:020000040800F2
:1000000090220020FD4D0008454D0008474D000896
:10001000494D00084B4D00084D4D00080000000000
:100020000000000000000000000000004F4D00082C
:10003000514D000800000000534D0008554D0008C8
:10004000154E0008194E00081D4E0008594D0008B5
:10005000214E0008254E0008294E00082D4E0008AC
:10006000314E0008354E0008394E00083D4E00085C
:10007000414E0008454E0008494E00084D4E00080C
:10008000514E0008554E0008594E00085D4E0008BC
:10009000614E0008654E0008694E00086D4E00086C
:1000A000714E0008754E0008794E00087D4E00081C
:1000B000814E00080000000000000000854E00088E
:1000C000894E00088D4E0008914E0008954E00089C
:1000D000994E00089D4E0008A14E0008A54E00084C
:1000E000A94E0008AD4E000800000000000000000E
:1000F0000000000000000000000000000000000000
:1001000000000000B14E000800000000B54E0008DD
:100110000000000000000000B94E0008BD4E0008BD
:10012000C14E0008C54E0008C94E0008CD4E00085B
:10013000D14E000800000000000000000000000098
:10014000D54E0008D94E0008DD4E00080000000022
:10015000E14E0008E54E0008E94E0008ED4E0008AB
:10016000F14E0008F54E0008F94E000800000000AE
:10017000FD4E0008014F00080000000000000000D4
:10018000054F0008094F00080D4F000840F02000FF
:1001900070472DE9F14FB0B0924604910DF1420144
:1001A0003A9A2B9199464A7000200AE01AF8011BEE
:1001B0000498309A90470028049000F031860D98FA
:1001C000401C0D909AF8000050B12528EED1002176
:1001D00000220791089209910A920B910C9204E077
:1001E0000D9800F01FBE41F001011AF8010F202800
:1001F000F9D023280CD02B2804D02D2805D0302866
:1002000009D00BE041F00201EFE741F00401ECE717
:1002100041F00801E9E741F01001E6E72A280FD193
:10022000D9F8002052F8040BC9F8002000280F90DC
:1002300003D540420F9041F004010AF1010A14E095
:100240000F92DFF8E83B0AE00F98984205DA00EBDE
:10025000800402EB4402303A0F920AF1010A9AF844
:100260000020A2F130000A28EED39AF800002E28D0
:1002700003D04FF0FF320E9229E01AF8010F2A281E
:1002800009D1D9F8000050F8042BC9F800000E92EB
:100290000AF1010A1BE02D280CBF0AF1010A002017
:1002A00000220E92DFF8844B0BE040B90E9AA24276
:1002B00005DA02EB820503EB4503303B0E930AF1AE
:1002C000010A9AF80030A3F130020A2AEDD3ADF802
:1002D00040100FF65C309AF8001000F0C9FE08B12B
:1002E0001AF8010B8DF842009DF84200682805D1EC
:1002F0009AF8000068280CD1622106E06C2804BF3F
:100300009AF800006C2804D171218DF842100AF18E
:10031000010A12A806901AF801BBBBF125012CD0E6
:100320001C3900F09481091F022940F29081133991
:1003300000F0A884093900F08A81891E00F03D850B
:10034000491E00F0EA84491E022940F28081091FFB
:1003500000F0E384491F00F0EF80491E00F0928412
:10036000491E00F0D780C91E0CD0891E00F08A8477
:10037000C91E00F0878400F02BBD012207922521C1
:1003800000F023BDD9F8000050F8044BC9F8000074
:10039000002C059440F0AB802B994878002800F0A1
:1003A000A1804FF0FF340FF6902000F06DFE201A70
:1003B00040F0368500F018BD01236A4602A9304698
:1003C00000F0FEFD002840F02B856D1EF4D1309624
:1003D000079D12AF75B1309E17F8011B0498B04706
:1003E0000028049000F01C850D98401C6D1E0D9097
:1003F000F2D130960A9D3021002D8DF800100CDDD1
:10040000309E01236A4602A9304600F0D9FD00283B
:1004100040F006856D1EF4D13096059F089D75B19C
:10042000309E17F8011B0498B0470028049000F094
:10043000F7840D98401C6D1E0D90F2D130960B9DE7
:100440003021002D8DF800100CDD309E01236A460E
:1004500002A9304600F0B4FD002840F0E1846D1E92
:10046000F4D1309605980899099D471875B1309ECA
:1004700017F8011B0498B0470028049000F0D084BE
:100480000D98401C6D1E0D90F2D130960C9D3021C0
:10049000002D8DF800100CDD309E01236A4602A964
:1004A000304600F08DFD002840F0BA846D1EF4D176
:1004B00030969DF8400041077FF584AE2020002C47
:1004C0008DF800007FF77EAE309D01236A4602A9B9
:1004D000284600F075FD002840F0A284641EF4D187
:1004E00030956FE60FF63830059000F07DBC0E9D1C
:1004F000002D04D5204600F0E7FD044607E02A461B
:10050000204600F0FDFD002814BF041B2C46089473
:1005100000F06ABCD9F8001051F8040BC9F80010BB
:1005200020F00004002121F0FF35CDE9024512AB97
:100530000593782100F03DBC2B99487820B14FF00D
:10054000FF340FF6AC2030E79DF84200622860D0FF
:10055000682817D06A283FD06C2806D0712847D069
:1005600074282CD07A281DD062E0D9F8001051F8F8
:10057000040BC9F80010002866D14FF0FF340FF6C5
:10058000882012E7D9F8001051F8040BC9F80010C0
:1005900020B94FF0FF340FF6702006E70D99018067
:1005A00000F022BCD9F8001051F8040BC9F8001073
:1005B000002849D14FF0FF340FF64C20F5E6D9F86A
:1005C000001051F8040BC9F8001000283CD14FF07E
:1005D000FF340FF63420E8E6D9F8001051F8040B88
:1005E000C9F8001080B94FF0FF340FF61C20DCE68C
:1005F000D9F8001051F8040BC9F8001020B94FF0D9
:10060000FF340FF60420D0E60D9AD317C0E900237B
:10061000EAE3D9F8001051F8040BC9F8001020B92A
:100620004FF0FF340FF6E010BFE60D990170DBE3E9
:10063000D9F8001051F8040BC9F8001020B94FF098
:10064000FF340FF6C410B0E60D990160CCE39DF8BD
:1006500042004C2807BFD9F80010CB1DD9F8000084
:10066000C31D23F00703C9F80030D3E900010833A4
:10067000C9F80030CDE90201C80F02D007982D213A
:100680000AE0BDF84000810702D507982B2103E05E
:10069000C00705D50798202112AB1954401C0790BC
:1006A00012A80799DDE9024543184BF020006128A4
:1006B000059321AE0BD00E98002802D506200E908F
:1006C00005E001BF4BF02000672801210E91DDE914
:1006D00002014F007F1517F1010F0DD108030BD058
:1006E000ABF1610203201A2A089002D20FF63411EE
:1006F0000FE00FF634110CE017F1010F0ED10903D2
:100700000CD1ABF1610203201A2A08901CD30FF61A
:1007100020110322184600F01FFD65E3DDE9020108
:100720006A4600F06DFDCDE902014BF02000612822
:1007300011D1059830210170821C0592BBF1610F27
:100740000CBF7821582102E00FF6E001E1E741708B
:100750000798801C0790DDE9020120F0000231F0CB
:10076000004308BF002A02D10025002445E14BF0D8
:100770002008B8F1610F40F095800E98002847BF1F
:1007800021210191401C0190019F7F1C2046294698
:1007900000220023DDE9024500F06AFD38BF85F044
:1007A000004500998DF88420091F002F00910DF15C
:1007B000850034DD0646204629460022002300F04D
:1007C00071FD2BD21C2200F087FD04460D4600F07F
:1007D00021FEFF1F002F804609DD00F037FE024694
:1007E0000B462046294600F0F9FE04460D46F01D52
:1007F0000721B8F1000F0CDD491E5EBF08F00F02A3
:1008000000F8012D4FEA2818F3D502E0002200F885
:10081000012D491EFAD5C61D002FCCDC30460DF146
:100820008501401A01990DF1850605468842C8BF29
:100830000D46002D2FD4854206DA0DF18500415D6D
:100840000829A8BF0F2000DA0020294621AA0A445F
:1008500000E06D1E12F80139491E8342F9D00F28BD
:1008600004D10DF18500425C521C4254002904D58C
:100870000098001D21AE6D1C0090681E0BD431182D
:100880000A783032D3B23A2BA4BF5A443A3A401EC7
:1008900001F80129F4D50E98002840F1AD80691EB9
:1008A0000E91A9E00099DFF8082747F297504143DD
:1008B00091FBF2F2009225F00045C2F10702002AF6
:1008C00004DD2046294600F04FFB0BE05242002099
:1008D000DFF8E01600F048FB02460B4620462946AA
:1008E00000F0EEFE04460D46B8F1660F06BF009F0D
:1008F0000A3706270E983F18142FC8BF1427302038
:100900008DF884000DF1850000E03046002F35DDC4
:1009100006462046294600F0F7FF01460A4606F142
:10092000080304200A26B2FBF6F606EB860EA2EBBD
:100930004E02303203F8012C0A22B6FBF2F202EB2F
:10094000820EA6EB4E063036401E03F8026DE9D14A
:10095000083F002F03F10806D7DD084600F0E6FF48
:1009600002460B462046294600F038FE0022DFF8FA
:10097000483600F0E9FF04460D46CAE70DF185014F
:10098000401A0DF1850604E00099491E401E0091B1
:10099000761C31783029F7D0B8F1660F02D1009972
:1009A000491C04E0B8F1650F0CBF012100210E9D28
:1009B0004D19A842B8BF451E002D1DD4854204DA4A
:1009C000705D3428C8BF392000DC30202946721EF3
:1009D000531800E06D1E13F80149491E8442F9D0F6
:1009E000392802D1705C401C7054002904D500984D
:1009F000401C16466D1C0090009C01F07BF8406A7C
:100A00000778DDF8388028B2002802DC01250FF2D3
:100A100024664BF02000662808BF641C16D06728A7
:100A200046D120B210F1040F48DB404546DA9DF86C
:100A30004000641C010703D428B24045D8BF80465B
:100A400020B2B8EB000848BF4FF000080FFA84FB53
:100A5000BBF1000F00F3B5800898411C08913022CB
:100A600005990A54B8F1000F03DC9DF84000010716
:100A700004D50898411C089105990F5418EB0B0FE9
:100A8000B8BFC8F1000424B26042A0442AB20B905F
:100A90009045B8BF4546059B08982DB209952A4652
:100AA0003146184400F058FBA8EB05000C90D2E04A
:100AB000BBF1610F17D14FF0700B19E028B2404520
:100AC00004DA9DF840100A0758BF8046B8F10108C3
:100AD00048BF4FF00008BBF1670F14BF4FF0450B44
:100AE0004FF0650B04E0BBF1410F08BF4FF0500B16
:100AF0000898411C0891B8F1000F059916F8012BD0
:100B00000A5403DC9DF8400001071AD50898411CDF
:100B10000891B8F1000F05990F5412DD6D1E28B22F
:100B20008045B8BF45460598089B2AB2314618440F
:100B300000F012FB08992DB269180891A8EB050086
:100B40000B9005980899084421B2002980F800B05C
:100B500003D42B224270821C04E02D2242700C46EA
:100B6000821C644200212CAB20460AE004460A2085
:100B700094FBF0F000EB8005A4EB450403F8014B77
:100B8000491C00B20028F1DC012906DC4BF02000F2
:100B9000652804BF302002F8010B00292CAB08D1D6
:100BA000302002F8010B06E0491E585C303002F894
:100BB000010B0029F8DC059908980844121A0992DB
:100BC00049E028B221B288421CDA0598089B2AB273
:100BD0003146184400F0C0FA08992DB269180891FE
:100BE000ABEB0500B8F1000F0B9003DC9DF8400063
:100BF000020704D5059847540999491C0991CDF875
:100C0000308028E00598089B22B23146184400F055
:100C1000A3FA08982D1B5844B8F1000F089003DC84
:100C20009DF840100A0703D5411C089105990F54FF
:100C300028B28045B8BF45460598089B2AB206EB06
:100C40000B01184400F088FA08982DB22818089073
:100C5000A8EB05000B909DF8400000F01400102850
:100C600040F0C280079A08990B988A18099982184F
:100C70000C988A1882180F98824280F2B580821AE6
:100C80000A92B1E09DF84200622808D068280ED090
:100C90006A2814D06C281FD0712810D01CE0D9F815
:100CA000001051F8040BC9F80010C0B21AE0D9F8CE
:100CB000001051F8040BC9F8001080B212E0D9F806
:100CC0000000C21D22F00702C9F80020D2E900018D
:100CD0000832C9F8002006E0D9F8001051F8040BDA
:100CE000C9F800100021CDE902019DF8400001077C
:100CF0005AD5DDE90223002B08BF002A54D04BF05F
:100D00002000782850D1079812A930220A54401C9C
:100D1000431C079301F800B046E09DF842006228AA
:100D200008D068280ED06A2814D06C281FD07128EB
:100D300010D01CE0D9F8001051F8040BC9F80010CD
:100D400040B21AE0D9F8001051F8040BC9F80010AD
:100D500000B212E0D9F80000C21D22F00702C9F863
:100D60000020D2E900010832C9F8002006E0D9F8D5
:100D7000001051F8040BC9F80010C117CDE90201A9
:100D8000002902D507982D210AE0BDF8400081070F
:100D900002D507982B2103E0C00705D5079820212D
:100DA00012AA1154401C079012A8079901440591FA
:100DB000594602A800F04EF816E001200790D9F835
:100DC000000050F8041BC9F800008DF848100BE033
:100DD00001212522BBF1000F07918DF8482003D097
:100DE000022207928DF849B00F9A07980A990C9C35
:100DF000121A0898521A0B99121A0998521A121AB2
:100E00009DF84000141B41073FF5E2AA2020002C6A
:100E10008DF800007FF7DCAA309E2546FFF7CCBA9C
:100E20004FF0FF3031B0BDE8F08F0000CBCCCC0CE0
:100E3000686A6C747A4C00007072696E74665F73D5
:100E40003A2062616420257320617267756D656E5A
:100E5000740000002DE9FC4707468A463C6950466D
:100E60006F2808BF082505D0FFF790F9782814BF30
:100E70000A251025D7E900013C2680468946BAF1AB
:100E8000640F18BFBAF1690F05D1002903D5D8F155
:100E9000000869EB4909B9F1000F08BFB8F1000F6C
:100EA0000CD1386B50B9082D3AD197F838000107AA
:100EB00036D530223B2684F83B2031E08DF800A067
:100EC000404649462A46EB1700F018FE3032D0B2B1
:100ED000761E3A2801960EDAA255404649462A4621
:100EE000EB1700F00BFE80465FEA010908BFB8F17E
:100EF000000F05D108E09DF800001218513AEBE709
:100F0000F868A1198842DBD3082D09D197F8380079
:100F1000010705D5A05D302802D0761E3020A055EF
:100F2000C6F13C02BA61A119F960386B824208DA55
:100F3000821A3A624FF6EF70398F01403987BDE867
:100F4000F38700280ED597F8380000F01400102819
:100F500008D17B6B7969386A5B1A1B1A9A1A002AC6
:100F6000C8BF3A62BDE8F3872DE9D04306460F4675
:100F700014464FF00008DFF8449012E0E00707D570
:100F800042464B463046394600F0DEFC06460F46E8
:100F90004046494642464B4600F0D6FC6410804627
:100FA0008946002CEAD130463946BDE8D08300009E
:100FB000A08601000000F03F84D797410000244044
:100FC000F8B505460E4617461C4600205CB117F8DA
:100FD000011BB068A847B06030B1F06A401CF062F5
:100FE0000020641EF3D1F2BD4FF0FF30F2BD0000CF
:100FF0007072696E74665F733A20256E206469733F
:10100000616C6C6F776564007072696E74663A200B
:1010100062616420256E20617267756D656E740073
:10102000000000006E616E004E414E00696E660069
:10103000494E4600300030B5016884684218416866
:1010400002EB5103C90703D54C4401E0491C08D108
:101050009A4218BF12F9011B01D10C3030BD12F8B1
:10106000015B002904F8015BF0D4491EF7D5EFE7D6
:10107000C9B202788A421AB11CBF10F8012FF9E7F1
:1010800018BF002070472E0080B500B906A00549A2
:101090000B681BB122220021984701E000F0B1FD4E
:1010A000222002BD88020020636F6E737472616932
:1010B0006E742068616E646C65723A2062616420AF
:1010C0006D6573736167650000F10103810704D0EA
:1010D00010F8011B820781B1FAD10268A2F1013137
:1010E000914311F0803104BF50F8042FF6E709BA9C
:1010F000B1FA81F100EBD100401CC01A704700002A
:10110000C9B2830706D0521E22D310F8013B994280
:10111000F7D11FE0083A13D302F1040241EA01219A
:1011200041EA014150F8043B121F21BF4B40A3F19B
:10113000013C2CEA030C1CF0803FF3D0C9B2001F25
:10114000083210F8013B521E28BF91EA030FF8D86D
:1011500018BF0120401E704762B38B0708D0521E93
:1011600011F8013B00F8013B00F024808B07F6D119
:10117000830740F0208000BF103A07D330B4B1E8B5
:101180003810103AA0E83810F9D230BC530724BF09
:10119000B1E80810A0E8081044BF51F8043B40F83B
:1011A000043BD20724BF31F8022B20F8022B44BFA6
:1011B0000B7803707047121F17D35B0009D151F8E9
:1011C000043B20F8023B1B0C121F20F8023BF6D216
:1011D0000BE051F8043B00F8013B1B0A20F8023BEE
:1011E0001B0C121F00F8013BF3D238BF121D521E18
:1011F00024BF11F8013B00F8013BF8D8704700000C
:1012000010B5144600F002F8226010BDC1F30A5375
:1012100043B14A0012F5001F28D2A3F2FE32A1EB1F
:101220000251704750EA410C20D001F0004C31EAE5
:101230000C01B1FA81F204BFB0FA80F3D2180B3A74
:10124000B2F120032CBF00FA03F1914041EA0C01F6
:101250003EBFC2F1200C20FA0CF3194390405242D9
:1012600040F2FD33D21A01EB035170470022704760
:1012700041EA030C50EA4C0C52EA0C0C4FF4001CEF
:1012800009D307D01CEB410F9CBF1CEB430F8B42D3
:1012900008BF824270471CEB430FFBD8994208BF3E
:1012A0009042704741EA030C50EA4C0C52EA0C0C95
:1012B0004FF4001C09D307D01CEB410F9CBF1CEB63
:1012C000430F994208BF904270471CEB410FFBD877
:1012D0008B4208BF82427047124254D440F2FF7CD6
:1012E0001CEA11530FD0634531D09B1863453CBFB6
:1012F00001EB0251704701F0004141EA0C5100201E
:10130000AFF30080704750EA410320D001F0004C59
:1013100091EA0C011CD0B1FA81F30B3B9A420DD932
:10132000D21A994051EA0C01C3F1200C20FA0CFCAE
:1013300061449840531C40F2FF7CD7E7914041EA5A
:101340000C01C2F1200C20FA0CF3194390407047B5
:10135000B0FA80F31533202BE0D3202AEED3203AC5
:10136000203B9A4209D9D21A00FA03F141EA0C0152
:101370000020531C40F2FF7CB8E700FA02F141EA7A
:101380000C0100207047524240F2FF7C1CEA1153CE
:101390000DD06345DBD0B2EB030C3CBFA1EB025197
:1013A00070470CF1010221EA035141F4801150EA27
:1013B000410CCCD001F0004C352A27DC30B481EA56
:1013C0000C01B2F1200309DAC2F12003044601FA4C
:1013D00003F5D0402843D1409C400CE0C3F12002EB
:1013E000450020FA03F418BF44F0010421FA03F089
:1013F00091400C43002174F1004550F1000051EB85
:101400000C01244230BC7FF47BAF70476146002062
:1014100076E70000C1F30A5340F21E42D31A0CDDF6
:10142000CA0283F3070342EA505242F00042DA4014
:1014300002EBE17282EAE17070476FEAE17203F257
:10144000E13008B182F000407047000010F0004128
:1014500060B148BF4042B0FA80F29040D21CC2F561
:10146000846241EA025202EBD0214005704700003D
:10147000841A71EB030604D26E40001BB1411219AD
:1014800073414FF4001C1CEB410F34BF7CEB43064F
:1014900083E00C0DA4EB1356362E00F37C80012E56
:1014A00045EAC32341DC43EA525312BFD2029202FF
:1014B0005B08240545EAC12141EA5051D2EBC02026
:1014C000994125D407D1B0FA80F610FA06F162D01E
:1014D0000020203608E0B1FA81F6B140C6F12002C2
:1014E00020FA02F21143B0404FEAF474B4EB4654D0
:1014F00034F001064FEA74040AD8D6F50016760DCA
:1015000004F00044F04061FA06F25040F1404840D7
:10151000C00A40EA415021F0004128BF5FEA50056F
:1015200050F1000044EBD12135E0DB0A45EAC1214E
:10153000C90AB6F120050EDD42EA0242120CC5F1DD
:10154000200603FA06F6EB4042EA06056D42984192
:1015500061F100010DE062FA06F5F240554063FAD0
:1015600006FC82EA0C02F3405A406D42904161EB66
:10157000030111F4801F05D1641E620502D06D00C5
:101580004041494121F48011430875F1004350F175
:10159000000041EB045170BC70471CEB410F15D2A9
:1015A00023F0004352EA43060BD04FEA4C0CBCEB4D
:1015B000410F04D80C0D661E342EB7DDEBE7801A00
:1015C000994150EA410608BF0021E4E708BF1CEB3F
:1015D000430F28BF6FF00001DDE7000070B491EA0F
:1015E000030F4FF000457FF543AF6B40841A71EB5A
:1015F000030603D2001BB141121973414FF4001CC2
:101600001CEB410F34BF7CEB430442E00C0DA4EB18
:101610001356352E4FDC45EAC323DB0A45EAC121C8
:10162000C912B6F120050DDD63FA05F6EB4086EA36
:101630000305124218BF45F00105C01851F1000121
:101640000CD213E062FA06F5F2405540F3415A40DD
:10165000B340F3405A408018594107D349085FEA24
:1016600030005FEA350528BF45F0010501F580111E
:10167000420875F1004250F1000041EB04514E0068
:1016800016F5001F70BC38BF70470020090D090512
:1016900070471CEB410F10D252EA43060BD0BCEB53
:1016A000410F05D80C0DAB43661E342EB6DD02E0AB
:1016B000AB438018594170BC704770BC7047000044
:1016C000F0B540F2FF7581EA030C0CF0004C15EA0E
:1016D00011541DBF15EA1357AC42AF42E5E0BC41BF
:1016E000C1F31301C3F31303801A994143F4801328
:1016F00004D2641E0018494180185941C90241EAC8
:101700005051B1FBF3F603FB1611A2FB0675D7EBA4
:10171000C020A94102D2761E80185941C90241EA6F
:101720005051B1FBF3FE03FB1E11A2FB0E75D7EB6C
:10173000C020A94103D2AEF1010E8018594189029F
:1017400041EA9051760546EA8E2EB1FBF3F603FB93
:101750001611A2FB0675D7EB8020A94102D2761E96
:1017600080185941C90241EA50514EEA060EB1FBB8
:10177000F3F603FB1611A2FB0675D7EBC020A941B7
:1017800002D2761E80185941C90241EA5051B1FB7C
:10179000F3F703FB1711A2FB0735D3EBC020A941D8
:1017A00067F100070CBF004247F0010766F3D52739
:1017B0004FEA1E31B80814F5806412DDBD0775F1DB
:1017C000004250EB0E5051EB045111F5801F5CBFED
:1017D00041EA0C01F0BD4CF07F6141F0E041002096
:1017E000F0BDBD076D0840EA0E5041F48011D4F100
:1017F0000104B4F120060ADAC4F120060200E04038
:1018000001FA06F3E1401843B24015430EE0342CD0
:1018100013DCC6F1200445EA40056D0820FA06F203
:10182000154321FA06F0A1400D43002175F1004255
:1018300050F1000051EB0C01F0BD00205FEA0C01FB
:10184000F0BDCFB992185B41B3FA83F704BFB2FA87
:1018500082F6BF190B3FB7F120062FBF02FA06F33D
:10186000BB40C7F1200622FA06F638BF3343BA4020
:101870001CB1E419641E33E77F4231F00041B1FA34
:1018800081F404BFB0FA80F6A4190B3CB4F1200631
:101890002FBF00FA06F1A140C4F1200620FA06F697
:1018A00038BF3143A0403C1B1AE7AC421ABF05EADF
:1018B0001357AF4212E050EA41061CBF52EA4306FA
:1018C000BFE750EA4107304661461CBF41EA055177
:1018D000F0BD52EA430C08BFC143F0BD00204FF4F5
:1018E000001616EB410F98BF16EB430F08BF16EB1F
:1018F000410F24BFC14305E016EB430F0CBF614607
:101900004CEA0551F0BD0000400D40F21E4C40EA8B
:10191000C120BCEB115C40F0004003D48CF3070104
:10192000C84070476FEAE1707047000050B1B0FAEC
:1019300080F18840C91CC1F58461090501EBD02103
:10194000400570470146704730B540F2FF7C1CEA05
:1019500011541DBF1CEA1355644565453FE06419E9
:1019600081EA030C6FF35F530CF0004C43F48013D7
:10197000C90241F0004141EA505EC5021100A5FBD9
:10198000020200284FF00000EEFB01204FF00001A2
:10199000E3FB052118BF42F0010240180021494134
:1019A000E3FB0E01A4F580640D0302D292184041BE
:1019B000494154F1010470DD450872F1004250F1D3
:1019C000000051EB0451A1F5801102D441EA0C0151
:1019D00030BD40F2FF7E4CEA0E51002030BD0CEAD3
:1019E0001355644518BF654581EA030C0CF0004CA3
:1019F00041D050EA410E1CBF52EA430E02E061465C
:101A0000002030BD24422C441BD15FEA050EF6D0E5
:101A1000090302BF01460020AEF1140EB1FA81F5B0
:101A2000AEEB050401FA05FE0C35C5F1200100FA04
:101A300005F5C8404EEA000E6FF35F5343F4801380
:101A40009CE733F00043B3FA83F504BFB2FA82FE99
:101A500075440B3D641BB5F1200E2FBF02FA0EF347
:101A6000AB40C5F1200E22FA0EFE38BF43EA0E034A
:101A7000AA40641C7CE750EA410E14BF52EA430EB0
:101A80006FF000014FF4001515EB430F8EBF1946A0
:101A900015EB410F9DE7B4D830BDD4F10104B4F18A
:101AA00020050FDAC4F12005520828BF42F00102D8
:101AB00010FA05FE01FA05F57244E2BFE040284342
:101AC000E1400FE0352C9ADCC5F1200452EA4002D7
:101AD00020FA05F218BF42F0010231FA05F0A140E8
:101AE0000A43002172F1004250F1000051EB0C0159
:101AF00030BD00000048704710000020D3BBD9B1B2
:101B0000B2F5803F5BD2022A1ED98C46B1FBF2F1BE
:101B100002FB11C31B0443EA1043B3FBF2FC02FBBC
:101B20001C3380B240EA0343B3FBF2F002FB1032F5
:101B300040EA0C4000237047022A05D98446B0FBD6
:101B4000F2F002FB10C270474AB105D100F0010269
:101B500049085FEA3000704700220023704700F018
:101B600053B80B000200002100207047F7D3002279
:101B700000237047904271EB030CF2D370B5B1FAB9
:101B800081F4B3FA83F52C1BA340C4F1200532FA8B
:101B900005F63343A2405FF00046E64002E05B08F2
:101BA0005FEA3202841A71EB030524BF20462946FE
:101BB0007641F4D302000B003000002170BD70B5F7
:101BC000B1FA81F4B2FA82F5C4F120046419B4F1D7
:101BD0002006DAD3B2405FF00044F440002502E072
:101BE00052085FEA3303C61A71EB020E24BF304677
:101BF000714664416D41F3D302000B0020002900BF
:101C000070BD012000F002B87047000080B5AFF34E
:101C10000080024A11001820ABBEFBE7260002003C
:101C2000603000EB8100006800F0F84070476030E1
:101C300000EB8100016821F000410A430260704717
:101C4000C06800F44060401E8041C00F7047CB0D5B
:101C500010B5143003F004031818090D01F01F012A
:101C6000036807248C40A34302FA01F11943016081
:101C700010BDF8B504460020002500900CB90120E5
:101C8000F2BD04F15006706828B9204600F03DFD11
:101C90000020B060307021688868800004D58A68B0
:101CA000DFF8580402408A6021688868C00012D4B6
:101CB0008A68DFF84C04024042F080528A60DFF804
:101CC0007017DFF870270868B0FBF2F2521C520060
:101CD000009200F085FC20688168C90008D4726811
:101CE00042F0100272600125B16841F00101B1605B
:101CF000836871689B08CA0679D4D90777D472685B
:101D000022F4807242F0020272608068C0070CD434
:101D1000DFF824170868C00707D4DFF820170A681F
:101D2000606822F47C1202430A6004F13002607E93
:101D30005768E16894F820C047EA4037A0680F432D
:101D40000743BCF1010F47EA0C4703D1606A401E0C
:101D500047EA4047A06A20B100F470700743E06A88
:101D600007432168DFF8D806D1F80CC000EA0C0060
:101D70000743CF60DB072168886824D4000722D49A
:101D8000CB68DFF8C006277E0340107843EA87332C
:101D900043EA4003CB60107A01280FD123681F6902
:101DA000D16810696FF38A070F435169074390693F
:101DB0000F43074347F001071F6104E020680169F2
:101DC000490849000161206901282068016B05D19B
:101DD000E2690909521E42EA011101E009090901FB
:101DE00001630120716860F30101716004E07068B3
:101DF00040F01000706001252846F2BD70B5040067
:101E000001D1012070BD04F150050321686840F044
:101E100002006860204600F03EFB06462068C1686C
:101E200041F40011C160300006D1204600F0E0FB13
:101E3000060004BF0120686020684168C90AC90221
:101E4000416040F2FF70216808602068826822F0DB
:101E5000A04282602068816841F000518160DFF813
:101E6000E8052168CA680240CA602068C16841F07C
:101E70000041C16020680169C90AC9020161206886
:101E8000416901F0404141612068816901F0784178
:101E900081612068016A01F0F02101622068416AD5
:101EA00021F0FF1141622068816A21F0FF118162F7
:101EB000DFF8980521680A6B02400A632068DFF8A2
:101EC0009015426B0A4042632068826B1140816327
:101ED000DFF880052168CA6B0240CA632068DFF81A
:101EE0007815026E0A4002662068426E0A40426619
:101EF0002068826E0A4082662068C26E1140C16608
:101F00002068D0F8A010C90CC904C0F8A01020683F
:101F1000D0F8A410C90CC904C0F8A4102068D0F8E7
:101F2000B010C90CC904C0F8B0102068D0F8B410C3
:101F300021F07F11C0F8B410DFF8FC040068C1077D
:101F400008D4DFF8F80402686FF3184202602046F4
:101F500000F0FFFB0020A8600021E96028616960B3
:101F60002870304670BD38B5044620688068400748
:101F70001FD404F15005297801291AD000F099F8EE
:101F8000010015D100F08BF846BFA96821F00601C9
:101F9000002100F07DF82268D1688B0104D56B68C0
:101FA000012161F30D336B609368DFF8541188E011
:101FB00084E0022032BD38B500F08BF801D1022058
:101FC00032BD00F095F8010004D1284600F010FB66
:101FD00000F085F87AE02DE9F04105460C46686985
:101FE00005F15006082808BF08270AD02868C168EC
:101FF000C80705D5716841F020017160012045E0F6
:10200000042700F0B9FB804628680168394216D1E0
:1020100014F1010FF8D000F0AFFBA0EB08008442F0
:1020200001D3002CF0D1286801683942ECD17068E6
:1020300040F00400706000213170032026E07068D9
:1020400040F4007070602868FFF7FAFD80B1687E88
:1020500070B92968086802070AD5706820F4807092
:1020600070607068C10403D4706840F00100706053
:10207000082F2868C06803D129680820086004E098
:10208000400402D42A680C2111600020BDE8F081D0
:10209000A9601C2221680A6000232B7070476A68BF
:1020A000DFF8C0150A4042F480726A606968CA04A9
:1020B000704701202870204600F048BA002129709E
:1020C00032BD0B4043F00403936032BD0021217008
:1020D00032BD054605F15004207801287047010003
:1020E00005D1616821F4885141F0010161607047B8
:1020F000012020700321284600F0CDB9C0FFFF5F0A
:10210000C0FFFF7F0068006C70470000F8B506460E
:10211000002006F150050F4600900024297801297F
:1021200001D10220F2BD0120287030688168490782
:1021300000F175817968062910D2891E03290CD80F
:10214000DFE801F0020406080C2107E0122105E097
:10215000182103E04FF4807100E006218B09303034
:1021600003F00C033A68181801F01F01D0F800C002
:102170001F238B40C2F384622CEA030302FA01F1AD
:1021800019430160306882688168520720D40907CA
:102190001ED4BA683968FFF75AFD3068C1683A69D9
:1021A000042A16D060303B6800EB820CAA48DCF8A9
:1021B0000020024003F0F8431343C9087A6948003D
:1021C00000F006008240134343F00043CCF8003097
:1021D00076E00021FFF724FD40033068214604D15A
:1021E000FFF71EFDC0F3846003E0FFF719FD00F068
:1021F0003CF939684A030EBFC1F3846191FAA1F139
:10220000B1FA81F1884204D1306800220021FFF741
:102210000EFD00F037F9400304D100F033F9C0F3AC
:10222000846003E000F02EF900F01FF939684A03DA
:102230000EBFC1F3846191FAA1F1B1FA81F1884234
:1022400004D1306800220121FFF7F1FC00F016F9FB
:10225000400304D100F012F9C0F3846003E000F001
:102260000DF900F002F939684A030EBFC1F3846129
:1022700091FAA1F1B1FA81F1884204D130680022CB
:102280000221FFF7D4FC00F0F5F8400304D100F080
:10229000F1F8C0F3846003E000F0ECF800F0E5F83A
:1022A00039684A030EBFC1F3846191FAA1F1B1FA12
:1022B00081F1884204D1306800220321FFF7B7FC86
:1022C00031688868C00763D4FA683B68D1F8B0C049
:1022D000DFF894E302F01802C3F312002EFA02F2C0
:1022E0002CEA000013400343C1F8B030F868DFF86F
:1022F0007C1388424CD1386841030EBFC0F384621E
:1023000090FAA0F1B1FA81F2521C012102F01F02F1
:102310000A2A1BD2420306D1C0F38462C0F384634D
:10232000C0F3846001E000F099F8521C5B1C920637
:1023300003F01F03401C02F0F842994000F01F0018
:10234000114300EB400041EA00511DE0420306D179
:10235000C0F38463C0F38462C0F3846001E000F0E2
:102360007DF85B1C521C401C9B0602F01F0200F013
:102370001F0003F0F84391400A38194300EB400076
:1023800041EA005141F00071BA683068FFF75FFC24
:102390003B68DFF8DC02034246D02848DFF8D472FD
:1023A0000168DFF8D422BB4201F0E0711AD10B02C0
:1023B0003AD43668964237D100F068F841F400010B
:1023C00001601B481B4A0168B1FBF2F2521C0C2051
:1023D00042430092009800281EBF0098401E0090C3
:1023E000F8D121E0DFF89472BB4209D1CB011BD4B4
:1023F0003668964218D100F049F841F080710CE03F
:10240000DFF87C72BB420FD14B020DD43668964286
:102410000AD100F03BF841F48001016004E06868F3
:1024200040F0200068600124002028702046F2BDA2
:102430000C000020400D0300080004500803045065
:1024400007C0F0FFFDBFFFFF04800080300882E07E
:10245000200882E020F8FFFF00F0FF0390FAA0F0D0
:10246000B0FA80F213461046704790FAA0F0B0FA26
:1024700080F0704730680321FFF7D2BB306802213B
:10248000FFF7CEBB30680121FFF7CABB026822F01C
:10249000E0721143704770B5044620688368826813
:1024A0005B0701D412074FD5C0686D4A830113D56D
:1024B000607E012804BF207E01280DD12368714869
:1024C000012100E0401E1D686E0602D40028F9D1EB
:1024D00037E04020186001E002290DD020688368B1
:1024E0005B0707D583689B0704D48568154045F0D2
:1024F00010058560012913D0206883681B0707D564
:1025000083689B0704D485682A4042F020028260D9
:10251000022903D0032903D10C2502E0082500E09D
:10252000042500F029F906462068816829420BD06D
:1025300000F022F9801B0628F6D320688168294222
:10254000F2D000F043F870BD002070BD7CB50446A9
:102550000020009021688868C20735D488686FF32E
:102560009E1000282DD188683D4D284040F0010084
:1025700088604549086800020AD54449444B0A6806
:10258000B2FBF3F35B1C0C204343009300F028F8EC
:1025900000F0F2F8064620680168CA0714D4806883
:1025A000C00705D420688168294041F0010181609D
:1025B00000F0E2F8801B0328EDD320680168CA0709
:1025C000E9D400F003F876BD002076BD606D40F0E0
:1025D00010006065A06D40F00100A065012070470B
:1025E00002E00098401E009000980028F9D1704742
:1025F00038B50446216888688A68D2072ED58007D6
:102600002CD48A6802F00D02012A1DD18A68144870
:10261000024042F002028A6003212068016000F05B
:10262000ABF8054621688868C10717D500F0A4F803
:10263000401B0328F6D320688168C807F2D5616D76
:1026400041F01001616503E0606D40F010006065CD
:10265000A06D40F00100A065012032BD002032BD18
:10266000C0FFFF7FFEF1FFFFFFFF070000007F407C
:1026700000000880000052C700000450000084CB16
:1026800001000080000040A3080304500C0000205B
:10269000400D030010B586B018220021684600F0F6
:1026A00071F8314C31482060002104206061616084
:1026B000E160216121830020012184F82000E06293
:1026C000E16104F1300000220021A260A1620170EA
:1026D000426001722046FFF7CCFA08B100F0CEF854
:1026E0002349009106220192022102917F22039246
:1026F000042104910022059269462046FFF706FD59
:1027000008B100F0BBF806B010BD18B597B004468C
:102710005C220021684600F035F82168134A914296
:1027200015D14FF480434FF0405100931491684607
:1027300000F0B6F808B100F0A1F80E48016841F4C5
:1027400000510160006800F400500090009818B03B
:1027500010BD00680549884204D10648026822F489
:102760000052026070470000180100200000045071
:10277000000180214C10024001484068704700BFB2
:102780000000002010B5044610460A4601462046C7
:1027900000F044FA204610BD38B500F073FA00F09E
:1027A00030F800F07FFA00F009FB00F091FBFFF732
:1027B00071FF00F0FDFB00F051FC00BF0FF2CC04F4
:1027C0002FA500F0DDFC284600F01EFD00F019F8F2
:1027D00000F068FA00F07CFB284600F015FD00F0E0
:1027E00027FD10EE100A00F061FD02460B46204660
:1027F00000F00AFD00F07EFD41F2883000F082FD1D
:10280000DFE780B596B0442105A800F08FFD1421C4
:10281000684600F08BFD4FF4806000F091FD08B138
:1028200000F02CF800F0DCFD1348016821F01801DD
:102830004FF48072016008920121079106200590F3
:102840001021002209910F9205A800F0D1FD08B1D6
:1028500000F014F80F200121009001910022029253
:10286000039204920221684601F00CF808B100F0CE
:1028700005F817B000BD00009010024072B6FEE7E8
:1028800057414B452055500D0A000000566F6C749F
:102890006167653A20252E336C66560D0A000000EC
:1028A0002DE9FC47064600243068DFF8487301052F
:1028B000A0461BD5706C58B1B0F5000F03D0B0F531
:1028C000400F09D010E03A6842F480323A6004E0E8
:1028D000002100F00EF904463CB9F96F706C21F448
:1028E00040010143F96701E00124A04630688103FB
:1028F0002AD5F86CC1004FF000090AD4F86C40F0FA
:102900008050F8644FF00109F86C00F0805000909E
:102910000098DFF8E452286840F480702860FFF7E0
:102920002BFF82462868C10571D4FFF725FFA0EB75
:102930000A000328F6D30324A046B9F1000F03D000
:10294000F86C20F08050F8643078C10705D5FA6F34
:10295000306A920840EA8202FA673178880705D522
:10296000F96F706A21F00C010143F967317848076B
:1029700005D5F96FB06A21F030010143F96731786C
:10298000880605D5F96FF06A21F440610143F967C3
:102990003168880505D5F96FF06B21F440210143BA
:1029A000F9673168480505D5F96F306C21F440119D
:1029B0000143F9673178480605D5F96F306B21F48A
:1029C00040510143F9673178080605D5F96F706BFE
:1029D00021F440410143F9673168C80505D5F96F15
:1029E000B06B21F440310143F9673168080346D5E3
:1029F000F96FB06C21F040610143F967B06CB0F140
:102A0000006F34D1386840F48010386037E0002C13
:102A100092D1DFF8E841206810F440701CBFB16D1E
:102A200088420BD02068216841F48031216020F475
:102A30004070226822F4803222602060C0070FD5E7
:102A4000FFF79AFE05462068810709D4FFF794FE38
:102A5000401B41F289318842F5D34FF003086CE7FF
:102A60002168B06D21F440710143216065E7B0F148
:102A7000806F04D100F03CF8010018BF8046306838
:102A8000410316D5FA6FF06C22F040620243FA67F8
:102A9000F06CB0F1006F04D1386840F480103860F9
:102AA00007E0B0F1806F04D100F022F8010018BFF8
:102AB0008046306841040FD5FA6F306D22F04052E5
:102AC0000243FA67316DB1F1805F05D1022100F058
:102AD00010F8010018BF80463068010405D5FA6F70
:102AE000706D22F080420243FA674046BDE8F687E7
:102AF0000121301DFFE72DE9F0410546404F2868D0
:102B00000C46F968002611F0030F0DD0F96801F0AA
:102B10000301814237D1B0B3F8686968C0F302108D
:102B2000401C884213D02EE0012804D02BD3032868
:102B300023D01ED327E03A68910724D5FA68696844
:102B400022F073021043491E40EA0110F860386811
:102B500020F080603860FFF70FFE80463868010182
:102B600013D5FFF709FEA0EB08000328F6D30326D0
:102B70003BE039684A05E1D405E039688A03DDD4D1
:102B800039684A03DAD401262FE0A96844B93A69C2
:102B90001C48EB68024042EA012141EAC3610FE0B0
:102BA000012C3A6906D12B69174800F031F841EA47
:102BB000435105E06B69154800F02AF841EA43618A
:102BC0003961386840F080603860FFF7D5FD044611
:102BD0003868010105D4FFF7CFFD001B0328F7D3A8
:102BE000C5E73869A969084338613046BDE8F08116
:102BF000000000000C1002400070004090100240E5
:102C000000100240FF80FF07FF809FFFFF80FFF959
:102C100002405B0842EA01215B1E704762F30F220B
:102C200062F31F42401810F0030308D0C91A1FD3E3
:102C3000DB0748BF00F8012D28BF20F8022D130044
:102C400030B414461546103928BF20E93C00FAD8A4
:102C5000490728BF20E90C0048BF40F8042D89002F
:102C600028BF20F8022D48BF00F8012D30BC704766
:102C7000C91818BF00F8012DCB0728BF00F8012D97
:102C800070470000032010B500F059FF0F2000F03E
:102C9000ABFF0024002814BF012400F0C7FF20462A
:102CA00010BD000038B586B0142200216846FFF739
:102CB00069FD3648364D0168364C41F0040101602B
:102CC000026802F0040205920599026842F080024F
:102CD0000260036803F0800305930599026842F0DF
:102CE00001020260036803F001030593059902687D
:102CF00042F0020202600022006800F0020005902B
:102D00004FF400510598284601F000F900220221F5
:102D10004FF0904001F0FAF800220621204601F021
:102D2000F5F84FF4005100F040F8284600F096FF07
:102D30000B2000F033F8184800F090FF022100F05B
:102D400034F84FF0904000F089FF49F6501000F041
:102D500025F84FF0904000F081FF062100F025F8A3
:102D6000204600F07BFF4FF480600021009001912D
:102D700002912046694600F071FF4FF6F83000F0EE
:102D80000DF8204600F06AFF07B030BD4C1002403D
:102D90000008004800040048001C0048032100907F
:102DA00001910022029269467047009101220021A0
:102DB00002910391019269467047000080B53F4837
:102DC0003F4901604FF482724FF4E061C16042609C
:102DD0000721C16200234FF4802208218360036130
:102DE00043618261C361036243628362036341633F
:102DF00001F0A0F818B1BDE80140FFF73FBD01BDEB
:102E000010B586B00446142200216846FFF7BAFCCC
:102E100021682B48814238D12A48416941F48051C8
:102E20004161416901F4805105910599026842F0C0
:102E300001020260036803F001030593059902682B
:102E400042F002020260A021006800F0020005903A
:102E5000022205980091019200210291032205218E
:102E60000491039269464FF0904000F0F7FE022172
:102E7000019100220292012003210090039105227A
:102E800004926946104800F0E9FE06B010BD0068E3
:102E90000B49884200D0704780B50C48026822F484
:102EA00080520260A0214FF0904000F0B0FFBDE8DA
:102EB00004400121044800F0AABF00007C0100206A
:102EC000003001404C1002400004004860100240F5
:102ED00080B53348334901604FF4E13200230C21BF
:102EE00042608360C360036141618361C3610362C7
:102EF000436201F0A5F818B1BDE80140FFF7BEBC80
:102F000001BD18B59DB004461422002101A8FFF7A9
:102F100039FC5C22002106A8FFF734FC2068214917
:102F200088422BD1012206920E9206A8FFF7B8FC28
:102F300008B1FFF7A3FC1C48416941F4804141619D
:102F4000416901F4804100910099026842F0010258
:102F500002604FF4C061006800F00100009002229E
:102F6000009801910292002103910322072105910B
:102F7000049201A94FF0904000F070FE1EB010BD09
:102F80000068084988420AD10848026822F4804251
:102F900002604FF4C0614FF0904000F038BF7047BE
:102FA00090000020003801404C10024060100240A8
:102FB00080B52648264900220C2301604260C36088
:102FC00042618260C26101F035FB18B1BDE8014089
:102FD000FFF754BC01BD10B586B004461422002191
:102FE00001A8FFF7CFFB2168194881421DD119487C
:102FF000C16841F08041C160C16801F08041009129
:103000000099026842F0010202600921006800F0A4
:103010000100009003220098019102920021039187
:103020004FF0904001A900F019FE06B010BD0068F5
:103030000749884209D10848026822F080420260AC
:1030400009214FF0904000F0E2BE704730020020AE
:10305000007800404C1002405810024080B51E48D5
:103060001E49016000227F23FF2142608360C1600E
:10307000026142618261C26101F0A2FB18B1BDE848
:103080000140FFF7FBBB01BD18B597B004465C22B9
:1030900000216846FFF776FB2168104A914218D15B
:1030A0004FF400334FF48071009316916846FFF798
:1030B000F7FB08B1FFF7E2FB0948016841F4004162
:1030C000016000220021032000F046FD032000F0F3
:1030D00061FD18B010BD000064020020002800400F
:1030E000901002403C4881B0016841F0010101604C
:1030F000026802F0010200920099026842F00202A6
:103100000260036803F0020300930099026842F032
:1031100080020260006800F080000090009801B01A
:1031200070472D480168490849000160026822F093
:1031300002020260016821F080010160704700B561
:1031400085B01421684600F0F1F84FF6FF72009246
:10315000032101910022029269464FF0904000F055
:103160007DFD69461D4800F079FD69461C4800F068
:1031700075FD69461B4800F071FD05B000BD0000FB
:1031800010B500BF1EA0184C00F03EF8174800F024
:103190003BFF174800F098FF1648FEF72FFE164831
:1031A00001F0B6FAFFF79EFFFFF7C9FFFFF7B9FF7F
:1031B000204601F01EFC00224FF4A041204601F001
:1031C000B5FB0E48016821F4004101600120BDE813
:1031D000104000F0EBB800004C1002400004004822
:1031E00000080048001C0048640200207C01002008
:1031F000900000201801002030020020081002403A
:1032000053544F500D0A00000EB4C0B5024603A837
:1032100000210190009101AB0121044878440C3059
:10322000FCF7B7FF06BC5DF810FB00BFB91B000040
:1032300070B5FFF7BDFE194C194D204601F083FA19
:10324000FFF728FA7F21284601F040FC2846FEF7C8
:103250008AFE64212846FEF7BEFE2846FEF752FF8E
:1032600006462846FEF7A7FE204601F081FA2846CA
:10327000FEF7C4FD204601F04BFAB0B2FEF756FB54
:103280004FF06632074BFEF75FFB0022064BFEF75E
:103290005BFB01F065FC00EE100A70BD30020020FF
:1032A0001801002066660A400000303FC0F3C75195
:1032B00081B1FF2906D0C110400721F0E04101F1A2
:1032C0006051704741020CBF40F4E0016FF00041D3
:1032D0000020704700F0004100020AD0B0FA80FCE4
:1032E00000FA0CF001F16051A1EB0C5101EBD0217F
:1032F000400570470022FFE702214FF0904000F0A8
:1033000005BE000038B50446FFF736FA14F1010F88
:10331000054602D0044801786418FFF72DFA401BD7
:10332000A042FAD331BD00BF00000020002201F00E
:103330004BBC0000DFF89800006800F4C0607047E4
:1033400010B5DFF88C10B0F5007F086800F4C0609D
:103350001DD1B0F5007F22D00A68DFF87830012057
:1033600060F34A220A6032201C68DFF86C20444374
:10337000B4FBF2F0401C00E0401E4A69530501D541
:103380000028F9D14869410509D5032010BDB0F5E1
:10339000806F04D00A68022060F34A220A6000208D
:1033A00010BD086820F004000860704708490B68E9
:1033B000022262F302030B60012808490A6842F006
:1033C00004020A600FBF30BF40BF20BF20BFE8E744
:1033D000007000400C00002040420F0010ED00E0A3
:1033E0000248016841F4807101607047007000403C
:1033F0002DE9FC47050066D0DFF8E876DFF8F466D3
:10340000BC68D7F80C802878C10604F00C0408F0DA
:10341000030848D524B10C2C08BFB8F1010F2CD1FA
:103420003868810702D5A86900284CD03968080798
:103430004EBF396871680909286A01F0F0018142BC
:1034400006D200F014FB00283DD100F003FA07E09B
:1034500000F000FA24B9286A00F009FB002832D1F4
:1034600000F0A8FABA6800F094FADFF88006006865
:1034700000F0BAFB010016D0E6E1A86928B339686C
:1034800041F001013960FFF777F98146386881071B
:1034900007D4FFF771F9A0EB09000328F6D3032046
:1034A000D2E100F0D7F92878C10755D5082C04D00F
:1034B0000C2C08BFB8F1030F17D1386881034BD526
:1034C0006868002848D10120BEE138684008400003
:1034D00000F0D5F9814638688107E4D5FFF74CF94B
:1034E000A0EB09000328F6D3D9E76868B0F5803F60
:1034F00004D1386840F48030386011E0B0F5A02F76
:10350000386806D140F480203860396841F4803151
:1035100005E020F480303860396821F4802139607A
:10352000686860B1FFF728F981463868810313D4D1
:10353000FFF722F9A0EB09006528F6D3AFE7FFF704
:103540001BF981463868810306D5FFF715F9A0EB12
:1035500009006528F6D3A2E72878810713D5042C43
:1035600004D00C2C08BFB8F1020F22D138684105F5
:1035700002D5E8680028A6D07868296920F0F850BC
:1035800040EA016078602878010742D56869002820
:1035900070682FD040F001007060FFF7EDF88046B2
:1035A0007068810735D4FFF7E7F800F04FF9F7D3DB
:1035B00075E7E86878B1396841F480713960FFF7E0
:1035C000DBF8804638684105D6D4FFF7D5F800F01F
:1035D0003DF9F7D363E7386820F4807000F04FF9C5
:1035E000804638684105CED5FFF7C6F800F02EF9C1
:1035F000F7D354E7400840007060FFF7BDF88046FD
:103600007068810705D5FFF7B7F800F01FF9F7D309
:1036100045E72878410767D5B86DC1004FF000082D
:103620000AD4B86D40F08050B8654FF00108B86D0D
:1036300000F0805000900098DFF8BC94D9F80000AA
:10364000C10513D4D9F8000040F48070C9F8000017
:10365000FFF792F88246D9F80000C10506D4FFF7BB
:103660008BF8A0EB0A000328F5D318E7A868012817
:1036700004D1306840F00100306010E00528306867
:1036800006D140F004003060316841F0010105E0EE
:10369000400840003060316821F004013160A868C2
:1036A00041F2893960B1FFF767F8824630688107D7
:1036B00013D4FFF761F8A0EB0A004845F6D3EEE615
:1036C000FFF75AF882463068810706D5FFF754F8AD
:1036D000A0EB0A004845F6D3E1E6B8F1000F03D0AD
:1036E000B86D20F08050B8652878810621D5686AC9
:1036F0000028B0680ED040F00100B060FFF73CF841
:103700008046B068810714D4FFF736F800F09EF8C1
:10371000F7D3C4E640084000B060FFF72DF88046BC
:10372000B068810705D5FFF727F800F08FF8F7D3C9
:10373000B5E6A86A002800F0868002286FD1F868F4
:10374000EA6A00F00301914201BF00F070011031FC
:103750002A6BB1EB021F1DD16A6B00F4FE41B1EB85
:10376000022F02BF00F07841AA6BB1EBC26F11D1FA
:10377000EA6B00F4C00101F500115208B1EB425FA1
:1037800008D1296C00F0C06000F100704908B0EB6E
:10379000416F40D00C2C43D0386841013FF593AEC7
:1037A00000F06AF804463868810105D5FEF7E4FFA9
:1037B000001B0328F7D372E6F868DFF84013EA6AC3
:1037C0000840296B1043491E40EA0110EA6B696BFF
:1037D000520840EA0120296C521E490840EA425032
:1037E000491E40EA4160A96B40EAC160F860386850
:1037F00040F080703860F96841F08071F960FEF740
:10380000BBFF0446386881011DD4FEF7B5FF001BDD
:103810000328F7D343E63868810114D4E7E70C2C7A
:103820003FF451AE00F028F804463868810105D510
:10383000FEF7A2FF001B0328F7D330E6F868DFF895
:10384000C0120840F8600020BDE8F687A0EB080031
:1038500003287047386840F0080038603968286AE3
:1038600021F0F001014339607968E86921F47F4172
:1038700041EA002179607047386820F08070386034
:10388000FEF77ABF2DE9F0410400884655D0DFF8F5
:103890007462306800F00700404502D200F06FF813
:1038A0004BD12078DFF83C52810706D5A068A96883
:1038B00001F0F001814200F076F82078C1072AD5A6
:1038C0006068032802D129688A0108E0022802D131
:1038D00029688A0303E00028296802D18A0702D4F4
:1038E0002BE04A0529D5A968890840EA8100A8602B
:1038F000FEF742FF0746A868616800F00C00B0EBD5
:10390000810F08D0FEF738FFC01B41F28931884291
:10391000F1D3032031E02078810706D5A068A9689B
:1039200001F0F001884200F03EF8306800F0070036
:10393000804504D200F023F801D001201DE020785A
:10394000410705D5AA68E06822F4E0620243AA6054
:103950002178080706D5A968206921F4605141EA59
:10396000C001A96000F026F8AA6800F012F8BDE8CE
:10397000F0415E48006800F037B9BDE8F081316879
:10398000C90848EAC1013160306800F007004045CD
:1039900070475D49C2F30312895C534A01F01F016D
:1039A000C8401060704704D2A96821F0F0010843B4
:1039B000A860704770B54B4A554B9068D668002593
:1039C000002110F00C0006F00306524C03D00C2826
:1039D00012D1012E1AD115682E0704D4444D2E6839
:1039E000C6F3032502E01568C5F303154A4E56F8E1
:1039F000255048B9294624E0042808BF214620D094
:103A000008281ED119461CE00C281AD1D06800F0F5
:103A10000300022803D0032808BF1D4600E0254606
:103A2000D168D068D268C0F306204543C1F30210C4
:103A3000C2F34161401C491CB5FBF0F04900B0FBEA
:103A4000F1F1084670BD2848304A006813683349D0
:103A5000C3F3022206E024482C4A006813682F4969
:103A6000C3F3C222895C01F01F01C84070477CB5D6
:103A70002B4E054630680024C10002D5FFF75AFCE2
:103A80000EE0306840F080503060316801F08051C5
:103A900000910098FFF74EFC316821F080513160B1
:103AA000B0F5007F04D1802D0CD9A12D09D304E0FD
:103AB000802D88BF032405D801D1022402E0702D97
:103AC00000D101240F480168C90844EAC10101601E
:103AD000006800F00700A04201D0012076BD002060
:103AE00076BD0000001002400C00002008000020FD
:103AF0009410024090100240007000408C809D01A4
:103B0000FCFFEEFE00200240844D00080810024039
:103B100000127A000024F400A84C00080C4E0008A3
:103B2000581002400901020002D42848815470470D
:103B3000274B02F00F021A4402F8041C7047254B71
:103B400019684FF6FF020002114000F4E0600843DC
:103B5000214908431860704770B51E4B1C68C4F3B8
:103B600002230124C3F10705052D2EBF0F2504FAFA
:103B700005F56D1E1E1D072E34BF0023DB1E2940D8
:103B8000994004FA03F3BDE870405B1E1A401143EC
:103B9000C8E70000010007D4012200F01F010F4B0D
:103BA0008A40400943F820207047401EB0F1807FD2
:103BB00001D3012070470A490A4A48600023F020D7
:103BC00010708B60072008600020704700E400E060
:103BD00018ED00E00CED00E00000FA0500E100E067
:103BE00010E000E023ED00E070B50E4E04463078A2
:103BF0000025A0B14FF47A710B4AB1FBF0F11068C7
:103C0000B0FBF1F0FFF7D1FF48B9102C07D200222A
:103C100021464FF0FF30FFF79FFFB46000E0012521
:103C2000284670BD000000200C0000200A4881B02A
:103C3000816841F001018160816801F0010100911A
:103C40000099026842F080520260006800F08050E3
:103C50000090009801B07047581002402DE9F84FCD
:103C60000027AD4AAD4B4FF00F0805460E4638E031
:103C7000AB4CA54214BF072404248C40A94944EA54
:103C80000E0441F82C40C143D2F808C0746801EA20
:103C90000C0CE40248BF40EA0C0CC2F808C0D2F891
:103CA0000CC0746801EA0C0CA40248BF40EA0C0C7A
:103CB000C2F80CC0D2F804C0746801EA0C0CA4036A
:103CC00048BF40EA0C0CC2F804C0D2F800C001EAB8
:103CD0000C0C7168C90348BF40EA0C0CC2F800C064
:103CE0007F1C316831FA07F000F08F800124BC405E
:103CF00014EA0100F4D04FEA470C032101FA0CF159
:103D00006FEA010E716801F00309B9F1010F1CBFE0
:103D100001F00301022912D1A968D6F80C900EEA2D
:103D2000010109FA0CF949EA0101A960696821EA6F
:103D300004047168C1F30011B9400C436C60B90010
:103D4000347904F00304032C21D0EC68D6F80890F1
:103D50000EEA040409FA0CF949EA0404EC60347927
:103D600004F00304022C12D1FC0805EB840401F0DA
:103D70001C09D4F820A008FA09FB2AEA0B0AD6F895
:103D800010B00BFA09F949EA0A09C4F820902C6826
:103D90000EEA040E347904F0030404FA0CF444EA45
:103DA0000E0CC5F800C0746814F4403F98D0D3F8E6
:103DB00000C05C4C4CF0010CC3F800C04FEA970CFB
:103DC000D3F800E00EF0010ECDF800E001F00C0198
:103DD000DDF800E054F82C4008FA01FE24EA0E0E4B
:103DE000B5F1904F08BF00240ED04F4CA54208BF3C
:103DF000012409D04D4CA54208BF022404D04C4CEC
:103E0000A5427FF435AF032437E7BDE8F18F2DE9F4
:103E1000F04F8A464FF0000B3F49424B0F220446B9
:103E200049E03F4EB44214BF0726042606FA0EF6B8
:103E3000B54218D1D1F800E0C04300EA0E0EC1F837
:103E400000E04D6805404D60D1F80CE000EA0E0E30
:103E5000C1F80CE08D682840886053F8280020EAFB
:103E6000090943F8289003254FEA4B00D4F8008055
:103E700005FA00F040EA08084FEADB05C4F80080C4
:103E800004EB850E07F01C07DEF8208002FA07F726
:103E900028EA0707CEF82070C043A7680740A7604C
:103EA000D4F804E02EEA0C0CC4F804C0E7683840EB
:103EB000E0600BF1010B3AFA0BF025D0012000FA7B
:103EC0000BFC1CEA0A00F4D04FEA9B084FEA8B0770
:103ED00053F8285007F00C0E02FA0EF909EA05050E
:103EE000B4F1904F08BF0026A0D00F4EB44208BFD7
:103EF00001269BD00D4EB44208BF022696D00C4E30
:103F0000B4428ED1032691E7BDE8F08F0AB18161FA
:103F10007047816270470000000401406010024059
:103F20000010004808000140000400480008004854
:103F3000000C004838B5040001D1012032BD606A90
:103F400030B96068B0F5827F05D00021E16102E000
:103F50000020206160610020A06204F15C056878A7
:103F600020B9002129702046FEF74AFF0220687020
:103F700000F05FF8E168B1F5E06F04D90020B1F519
:103F8000706F03D104E04FF4805001D00021A16292
:103F90006168A268237C01F4827102F40442114337
:103FA000227D03F002031943A36902F001021143C9
:103FB000227F03F40073194394F8203002F0380292
:103FC0001143A26A03F080031943236802F40052EC
:103FD00011431960A16994F8242094F83430090C35
:103FE00001F0040102F010021143E26803F008033B
:103FF000194302F4706211430843216848600020AD
:1040000068600121697032BD10B508B9012010BD8A
:1040100000F15C040221617001680A6822F040022C
:104020000A60FEF734FF002060600021617020709C
:1040300010BD2068016821F0400101607047000058
:1040400038B5040001D1012032BD04F1780568685B
:1040500008B900F017F800F01AF808B100F031F8CC
:1040600000F02CF8012804D000F004F821F02A0117
:1040700016E032BD2068416821F49041416020681B
:1040800081687047002129702046FEF73ABF24203E
:10409000686020680168490849000160606A7047EB
:1040A000816000F004F8BDE8324000F0ECB920680F
:1040B000016841F00101016020467047204600F090
:1040C0008BB8204600F07CB938B5040001D101203E
:1040D00032BD04F178052420686000F014F8002057
:1040E000226810600021236859602168886020469A
:1040F000FEF746FF0020E86000216960A8602166A5
:104100006066297032BD2068016849084900016075
:1041100070472DE9F843054605F150060C46F06A54
:104120002028174699463ED10CB1380001D1012014
:104130003AE0002070632121F162FEF71DFB378019
:1041400080467780A868B0F5805F04BF28690028A2
:104150001ABF204600272746044611E0002280218E
:1041600000F024F8D8B92868002C12BF14F8011BFD
:1041700037F8021BC1F3080101857088411E718068
:1041800043467088CDF800900028E7D100224021F6
:1041900000F00CF818B92020F062002004E0202084
:1041A000F062032000E00220BDE8F283284600F020
:1041B000B7B9286800F1080151E8001F490800F16B
:1041C0000803490043E8001000287047286850E8B9
:1041D000001F024670470000F8B50446DFF83804B7
:1041E00022681368A168034020690B436169034397
:1041F000E0690B430343136000255168E06821F434
:10420000405101435160A3696C498A421CBF206A36
:1042100003439668DFF80474DFF8040426F430667C
:1042200033439360BA424FF40043DFF8F86332D16E
:10423000366806F00306032E3BD8DFE806F002746A
:1042400061760127E169B1F5004F4FF6F07640F055
:104250008C805FB1012F00F08080022F0AD0042FE4
:1042600000F07E80082F00F07E80A0E0FFF7EBFBDF
:1042700000280FD061684A0802EB4002B2FBF1F05F
:10428000A0F11001B142F0D20640C0F34200064353
:104290002068C6608CE0DFF89073BA4221D136689E
:1042A00016F00C063DD0042E3DD0082E28D00C2E42
:1042B0003BD010278A42C5D137B1022F08D0042F36
:1042C00035D0082F36D072E0FFF7BDFB00286FD045
:1042D000626802EB4201884269D3130383422BD206
:1042E00065E0DFF84873BA420CD1366816F0300644
:1042F00017D0102E17D0202E02D0302E15D0D8E790
:104300000227D7E78A42D4D1366816F4406608D02F
:10431000B6F5806F07D0B6F5006FF1D0B6F5406FF7
:10432000ECE70027C6E70427C4E70827C2E7FFF742
:1043300041FBCBE71846CBE7010E560816EB0020F1
:1043400069410023FDF7DAFBA0F54071DFF8E022B8
:1043500091422CD22168C8602AE0FFF77CFB87E7F6
:10436000FFF728FB84E7184684E747B1012F16D0F2
:10437000022F07D0042F15D0082F16D017E0FFF713
:1043800062FBA8B1616800EB5100B0FBF1F0A0F155
:104390001001B1420BD2226880B2D06008E0FFF772
:1043A0005AFBEEE7FFF706FBEBE71846EAE70125C5
:1043B0000020A066E0662846F2BD000000800040B4
:1043C00090F824100A0706D502685368416B23F45D
:1043D00000430B43536090F82410CA0706D50268C7
:1043E0005368816A23F400330B43536090F8241020
:1043F0008A0706D502685368C16A23F480330B43E9
:10440000536090F824104A0706D502685368016B80
:1044100023F480230B43536090F82410CA0606D57A
:1044200002689368816B23F480530B43936090F888
:1044300024108A0606D502689368C16B23F40053E2
:104440000B43936090F824104A0610D50268536815
:10445000016C23F480130B435360036CB3F5801F8E
:1044600005D15368416C23F4C0030B43536090F8AB
:1044700024100A0606D501684A68806C22F40022DE
:1044800002434A607047F8B5054605F178040020FC
:10449000E0606FF07E47FEF76FF906462868016816
:1044A0000A0711D50097334600224FF40011FFF799
:1044B0007DFE48B1FFF78AFE21F0800100F02CF864
:1044C000F8D12020606017E0286801684A0717D5F6
:1044D0000097334600224FF48001FFF767FE78B162
:1044E000FFF774FE21F4907100F016F8F8D1FFF791
:1044F00060FEFCD12020A060002121700320F2BDCD
:10450000202060602021A1600020286600216966CB
:104510002070F2BD21F4F07142E8001000287047CD
:104520002DE9F041069C05460E4690461F46286838
:10453000C1693140B1420CBF01200020404533D158
:1045400014F1010FF3D0FEF717F9C01B844200D31A
:1045500014B90320BDE8F081286801684A07E6D550
:10456000C169080704D42968C8690105DFD50DE0D1
:104570002A6808201062284600F018F805F1780033
:104580000821C160002202700120E3E729684FF48E
:1045900000600862284600F009F805F17800202143
:1045A000C16000220270D4E70020D3E710B500F00C
:1045B0000EF8FCD100F015F8FCD1016E00F01EF8E9
:1045C0002021C0F8801000220266826610BD0168BA
:1045D00051E8002F0B4622F4907243E80021002995
:1045E0007047016801F1080252E8002F520801F1FA
:1045F0000804520044E8002100297047012909D12C
:10460000026852E8002F036822F0100243E80021FC
:104610000029F5D170470000F369FFEF0038014031
:104620000024F4008810024000440040004800408C
:1046300000FD0F0038B504001EBF04F13105687895
:1046400005281CBF6878022801D1012032BD687896
:1046500008B9002129702046FEF7BDFC20680168DA
:1046600021F480510160E06808280BD122684E498E
:104670001368A0680B40A169034300F041F843F0C0
:1046800008031360E0680C2809D1226847491368C1
:10469000A0680B4000F036F843F00C031360E068AC
:1046A00038B9226842481368A168034000F028F82E
:1046B0001360E169B1F5804F15D1A06821683D4ACA
:1046C000022808D04868236A0240606A42EA03224E
:1046D00002434A6007E08868A36A0240E06A42EA4F
:1046E000032202438A6034480268616822F0004273
:1046F0000A430260687808B901216970002032BD60
:1047000020690B4361690343E0690B43034370472E
:1047100038B5002400281DBF00F131056978022951
:1047200001240ED001680A68520852000A60234929
:10473000026813680B401360FEF779FC00226A7070
:104740002A70204632BD0146002000291CBF91F886
:104750003220052A0AD091F83220012A06D10A68AF
:10476000136843F001031360042219E0012070472D
:104770000146002000291FBF91F83220052A91F838
:104780003220022A0AD091F83220042A06D10A687F
:1047900013685B085B001360012201E00120704791
:1047A00081F8322070470000C1B8FFFFF1BBFFFF66
:1047B000F1B8FFFFE0E0FFFF00780040C0A8FFFF76
:1047C00038B504460120002C4BD094F8210028B9BC
:1047D000002184F820102046FEF756FC022184F8C0
:1047E00021102068C168CA0637D4CA21416253200B
:1047F00022685062204600F04CF8B8B92168DFF812
:1048000020018A6802408A60226893686068216992
:104810000343A0690B43034393602068E16801618F
:1048200020680169A26841EA02410161204600F066
:1048300051F801000BD12168CA6C92089200CA6439
:104840002368DD6CE269616915430D43DD64FF2275
:10485000216803004A6204D100E00020012184F8AD
:10486000211032BD38B504462E482168C860FDF7D6
:1048700083FF05462068C168880608D4FDF77CFFE1
:10488000401B40F2E9318842F4D3032032BD0020BE
:1048900032BD70B5044600252068C1684A0617D4A9
:1048A0004FF0FF31C160FDF767FF06460AE0FDF7F4
:1048B00063FF801B40F2E931884203D303200325C4
:1048C00084F821002168C868410601D4032DEED187
:1048D000284670BD70B5144D0446686820F080000D
:1048E000686000262968880608D42046FFF7BAFFCA
:1048F000A0B1032084F8210003260FE0286820F0EF
:10490000200028602046FFF7ADFF18B1032084F88F
:1049100021000326286840F020002860304670BD42
:10492000BFFF8FFF5FFF0300082800402DE9F04123
:1049300004460F4694F820001646012808BF0220BE
:1049400036D000F082F8FF2500F043F801F0800136
:1049500061F49061C1602068C168480610D4FDF719
:104960000BFF80462068C168480709D4FDF704FFA3
:1049700000F096F8F6D32068456200F032F817E0B0
:104980002068476100F016F8DFF83801016841F44B
:1049900080110160826842F4801282602068816820
:1049A00041F48041816000F00CF8456200F07FF82E
:1049B000BDE8F08120688168C90846EAC1068660C2
:1049C00070472068816841F480618160012120681E
:1049D00070472068816821F4806181602068C16827
:1049E0007047032184F82110002084F82000032060
:1049F000704738B500F061F801D1022032BD00F0F7
:104A000024F82068816821F48061816020688168D1
:104A100021F480418160FDF7AFFE05462068C16842
:104A20004A070CD4FDF7A8FE401B00F03BF8F5D375
:104A30002268FF20506200F039F8084632BDFF219D
:104A40004162012000F026F8F7E7012084F82000F9
:104A5000022184F82110CA20226850625321206864
:104A60004162704710B50446DFF85C104FF48010C7
:104A700008602068C268510508D5C26802F080024B
:104A800062F49062C260204600F0B7F8012184F819
:104A9000211010BD84F82100002184F820107047F7
:104AA000A0EB080040F2E93188427047032184F806
:104AB0002110002084F820007047044694F820005C
:104AC0000128704700040140140401407CB50446ED
:104AD000002004F150060D4600903178012901D1E3
:104AE000022076BD0120307000F035F801007068BA
:104AF0002AD120F4885040F00200706005F0804513
:104B00002268DFF85800936803401D4345F00045D4
:104B1000956020688068C00F10D00098401C0090FD
:104B20000098B0F5912FF4D3706820F0020040F0A7
:104B30001000706000203070012076BD7268012086
:104B400060F30102726002E040F01000706000202B
:104B50003070084676BD2046FDF74ABDC0FFFF3FD6
:104B600001F000428B1AA3F16051B1F5801F0ADBFE
:104B7000B1F17F6F1FD242EAC102C10071F1004161
:104B800042EB507070470B15C3F10903212B10D273
:104B9000890241EA905180020128494141F00041D7
:104BA00021FA03F0C3F12003994071F10041504113
:104BB0007047100070476FF0000013EB103F5CBFB0
:104BC000000E42EAC050704700B500BF1300964681
:104BD0009446103928BFA0E80C50FAD85FEA417C0F
:104BE00028BF0CC048BF40F8042BC90728BF20F8D5
:104BF000022B48BF00F8012B00BD704780B50D495E
:104C0000794430310C4A7A442E32914203D00B4918
:104C1000AFF3008002BD8DF800000122694601203B
:104C200000F00EF8012802D19DF8000002BD4FF0FF
:104C3000FF3002BDCCB3FFF7C8B3FFF74800002038
:104C400010B5144609B9002010BD012818BF02286C
:104C500008D14FF6FF7392B20448FFF75AFA08B929
:104C6000204610BD4FF0FF3010BD00BF9000002067
:104C700030B4002512E050F8042BD30744BF4A4457
:104C8000521E091F042942F8045BFAD213468C070E
:104C900044BF15809B1CC90748BF1D7050F8041BFA
:104CA0000029E8D130BC7047A0860100400D030008
:104CB000801A060000350C0040420F0080841E0060
:104CC00000093D0000127A000024F40000366E0155
:104CD0000048E801006CDC0210B50749794418313E
:104CE000064C7C44163404E00A68081D11448847C9
:104CF0000146A142F8D110BD2C0000004800000080
:104D00004EF68851CEF20001086840F47000086049
:104D1000BFF34F8FBFF36F8F4FF00170E1EE100ABA
:104D2000704700004DFFFFFFFC01000090000020D5
:104D30000000000003C3FFFFD8010000C80000000E
:104D400000000020FEE7FEE7FEE7FEE7FEE7704713
:104D50007047704700F006B80148FFF783BE0000B7
:104D6000640200200248416802788A184260704755
:104D7000000000200248016841F4700101607047A2
:104D800088ED00E0000000000000000001020304C4
:104D90000607080900F00DF8002801D0FFF79CFF76
:104DA000AFF300800020AFF30080FDF7F5FC00F0CA
:104DB00002F80120704700F001B8000007463846AD
:104DC000FCF724FFFBE700000548014603B46846F2
:104DD00080F30988AFF30080FFF792FFFFF7DAFF57
:104DE000A5EDF5FE38B504460D462846FFF706FF4B
:104DF000A84218BF0024204632BD00000148804769
:104E000001480047754D0008C94D0008000000002A
:104E100001020304FFF7FEBFFFF7FEBFFFF7FEBF6F
:104E2000FFF7FEBFFFF7FEBFFFF7FEBFFFF7FEBFB6
:104E3000FFF7FEBFFFF7FEBFFFF7FEBFFFF7FEBFA6
:104E4000FFF7FEBFFFF7FEBFFFF7FEBFFFF7FEBF96
:104E5000FFF7FEBFFFF7FEBFFFF7FEBFFFF7FEBF86
:104E6000FFF7FEBFFFF7FEBFFFF7FEBFFFF7FEBF76
:104E7000FFF7FEBFFFF7FEBFFFF7FEBFFFF7FEBF66
:104E8000FFF7FEBFFFF7FEBFFFF7FEBFFFF7FEBF56
:104E9000FFF7FEBFFFF7FEBFFFF7FEBFFFF7FEBF46
:104EA000FFF7FEBFFFF7FEBFFFF7FEBFFFF7FEBF36
:104EB000FFF7FEBFFFF7FEBFFFF7FEBFFFF7FEBF26
:104EC000FFF7FEBFFFF7FEBFFFF7FEBFFFF7FEBF16
:104ED000FFF7FEBFFFF7FEBFFFF7FEBFFFF7FEBF06
:104EE000FFF7FEBFFFF7FEBFFFF7FEBFFFF7FEBFF6
:104EF000FFF7FEBFFFF7FEBFFFF7FEBFFFF7FEBFE6
:104F0000FFF7FEBFFFF7FEBFFFF7FEBFFFF7FEBFD5
:104F10000001F9000010FC001E093D00FE10000811
:104F2000FE100008FE100008FE100008FE10000829
:104F3000FE100008FE100008F8FF0B86100008FEA7
:104F4000100008FE100008FAFF150000020401011D
:104F5000E001002030020020E0010020E0010020FC
:104F6000FC0003E0010020FC00078C00002078001A
:044F70000020E0003D
:0400000508004DC9D9
:00000001FF
