:020000040800F2
:10000000A824002001710008497000084B70000806
:100010004D7000084F70000851700008000000008B
:100020000000000000000000000000005370000805
:100030005570000800000000577000085970000853
:10004000197100081D710008217100085D70000819
:1000500025710008297100082D7100083171000810
:1000600035710008397100083D71000841710008C0
:1000700045710008497100084D7100085171000870
:1000800055710008597100085D7100086171000820
:1000900065710008697100086D71000871710008D0
:1000A00075710008797100087D7100088171000880
:1000B0008571000800000000000000008971000840
:1000C0008D71000891710008957100089971000800
:1000D0009D710008A1710008A5710008A9710008B0
:1000E000AD710008B17100080000000000000000C0
:1000F0000000000000000000000000000000000000
:1001000000000000B571000800000000B97100088F
:100110000000000000000000BD710008C17100086F
:10012000C5710008C9710008CD710008D1710008BF
:10013000D571000800000000000000000000000071
:10014000D9710008DD710008E171000800000000AD
:10015000E5710008E9710008ED710008F17100080F
:10016000F5710008F9710008FD7100080000000039
:100170000172000805720008000000000000000085
:10018000097200080D7200081172000800000000DA
:1001900000000000002F000000000700070000140E
:1001A0007F147F1400242A7F2A120062640813231C
:1001B00000364955225000000503000000001C22B3
:1001C0004100000041221C000014083E08140008F1
:1001D000083E0808000000A06000000808080808A1
:1001E000000060600000002010080402003E514939
:1001F000453E0000427F40000042615149460021D7
:1002000041454B31001814127F10002745454539F0
:10021000003C4A494930000171090503003649494B
:10022000493600064949291E000036360000000004
:10023000563600000008142241000014141414144F
:1002400000004122140800020151090600324959F8
:10025000513E007C1211127C007F49494936003E14
:1002600041414122007F4141221C007F49494941CF
:10027000007F09090901003E4149497A007F0808C9
:10028000087F0000417F4100002040413F01007F86
:1002900008142241007F40404040007F020C027F52
:1002A000007F0408107F003E4141413E007F090964
:1002B0000906003E4151215E007F0919294600468A
:1002C000494949310001017F0101003F4040403F61
:1002D000001F2040201F003F4038403F00631408AB
:1002E0001463000708700807006151494543000086
:1002F0007F41410000552A552A55000041417F00A9
:10030000000402010204004040404040000001029D
:100310000400002054545478007F48444438003886
:100320004444442000384444487F0038545454180E
:1003300000087E0901020018A4A4A47C007F080420
:1003400004780000447D4000004080847D00007FF0
:10035000102844000000417F4000007C041804780D
:10036000007C0804047800384444443800FC242409
:1003700024180018242418FC007C080404080048F1
:100380005454542000043F444020003C4040207C12
:10039000001C2040201C003C4030403C0044281001
:1003A0002844001CA0A0A07C004464544C441414B5
:1003B00014141414000000000000000000000000ED
:1003C0000000FC000000000002000000000C020C15
:1003D000020000000000000090D0BCD0BC900003E0
:1003E000000300001824FE448C00030207020100F1
:1003F0001824D8B04C80000300010201C038E43852
:10040000E0000102020102020806000000000000F4
:1004100000000000000000F80402000000010204D7
:10042000000204F800000004020100009060F8607F
:1004300090000000010000002020FC2020000000AF
:10044000010000000000000000000806000000009D
:1004500020202020200000000000000000000000FC
:1004600000000002000000000080601C0200040385
:1004700000000000F8040404F80001020202010078
:100480000008FC000000000203020000188444245D
:10049000180003020202020008042424D80001020A
:1004A0000202010040B088FC80000000000302004E
:1004B0003C242424C400010202020100F824242C5C
:1004C000C0000102020201000C04E41C0400000050
:1004D00003000000D8242424D800010202020100F5
:1004E00038444444F80000030202010000001000F8
:1004F00000000000020000000000200000000000DA
:1005000006000000002050880402000000000102E4
:10051000909090909000000000000000000204887D
:1005200050200002010000001804C424180000003C
:1005300002000000F804E494F80001020202020044
:1005400000E09CF0800002030000030204FC24246D
:10055000D800020302020100F80404040C000102A6
:100560000202010004FC0404F8000203020201007C
:1005700004FC24740C0002030202030004FC247433
:100580000C00020302000000F0080444CC4000010B
:100590000202010004FC2020FC040203000003020C
:1005A0000404FC040400020203020200000404FC30
:1005B000040406040403000004FC24D00C04020319
:1005C0000200030204FC0400000002030202020312
:1005D000FC3CC03CFC0003000300030004FC30C4EE
:1005E000FC04020302000300F8040404F800010202
:1005F0000202010004FC242418000203020000008F
:10060000F8848404F80001020207050004FC246455
:100610009800020302000302182424448C00030201
:10062000020201000C04FC040C00000203020000A2
:1006300004FC0000FC04000102020100047C80E0D4
:100640001C040000030000001CE03CE01C00000350
:1006500000030000049C609C0400020300030200ED
:10066000041CE01C04000002030200000C84641C53
:1006700004000203020203000000FE020200000068
:1006800007040400000E30C000000000000102005A
:10069000000202FE0000000404070000000402043F
:1006A000000000000000000000000000000008083A
:1006B0000808080800000200000000000000000018
:1006C0000040A0A0C00000010202030204FC2020A0
:1006D000C00000030202010000C0202060000001F1
:1006E0000202020000C02024FC00000102020302FA
:1006F00000C0A0A0C0000001020202000020F824F7
:1007000024040002030202000040A0A060200007B1
:100710000A0A0A0404FC2020C000020302000302AB
:100720000020E4000000000203020000000020E4BA
:10073000000008080807000004FC80E020200203F5
:10074000020003020404FC00000002020302020093
:10075000E020E020C00003000300030020E0202090
:10076000C00002030200030200C02020C0000001FC
:100770000202010020E02020C000080F0A02010050
:1007800000C02020E0000001020A0F0820E0402005
:1007900020000203020000000060A0A02000000270
:1007A000020203000020F820000000000102020005
:1007B00020E00020E00000010202030220E020808F
:1007C00060200000030100006080E0806000000302
:1007D000000300002060806020000203000302008C
:1007E00020E0208060200808070100000020A060B1
:1007F0002000000203020200000020DE02000000D0
:1008000000070400000000FF00000000000F0000CF
:100810000002DE20000000040700000002010204C4
:1008200004020000000000000000000000000000C2
:100830000000000000000000000000F800000000C0
:10084000000000333000000000100C06100C060001
:10085000000000000000000040C07840C078400068
:10086000043F04043F040400007088FC08300000CA
:10087000001820FF211E0000F008F000E018000022
:1008800000211C031E211E0000F0088870000000DB
:100890001E2123241927211010160E00000000002D
:1008A0000000000000000000000000E0180402004A
:1008B000000000071820400000020418E0000000BB
:1008C0000040201807000000404080F080404000B9
:1008D0000202010F01020200000000F0000000000F
:1008E0000101011F010101000000000000000000E3
:1008F00080B0700000000000000000000000000058
:1009000000010101010101010000000000000000E0
:10091000003030000000000000000000806018047B
:10092000006018060100000000E010080810E00058
:10093000000F102020100F00001010F80000000021
:100940000020203F20200000007008080888700068
:1009500000302824222130000030088888483000E8
:100960000018202020110E000000C02010F8000008
:1009700000070424243F240000F8088888080800A1
:100980000019212020110E0000E0108888180000B6
:10099000000F112020110E0000380808C838080088
:1009A0000000003F00000000007088080888700008
:1009B000001C222121221C0000E010080810E00089
:1009C0000000312222110F00000000C0C000000012
:1009D0000000003030000000000000800000000037
:1009E000000080600000000000008040201008002F
:1009F00000010204081020004040404040404000F8
:100A000004040404040404000008102040800000D2
:100A10000020100804020100007048080808F000D7
:100A20000000003036010000C030C828E810E000A7
:100A30000718272423140B000000C038E000000032
:100A4000203C23020227382008F88888887000009C
:100A5000203F202020110E00C03008080808380070
:100A6000071820202010080008F808080810E000E7
:100A7000203F202020100F0008F88888E808100088
:100A8000203F20202320180008F88888E80810005C
:100A9000203F200003000000C03008080838000094
:100AA00007182020221E020008F808000008F80895
:100AB000203F210101213F20000808F8080800001C
:100AC0000020203F2020000000000808F80808004F
:100AD000C08080807F00000008F888C028180800C7
:100AE000203F20012638200008F808000000000000
:100AF000203F20202020300008F8F800F8F80800F7
:100B0000203F003F003F200008F830C00008F808F0
:100B1000203F200007183F00E01008080810E00000
:100B20000F10202020100F0008F808080808F00017
:100B3000203F210101010000E01008080810E0003A
:100B40000F18242438504F0008F8888888887000CF
:100B5000203F2000030C302000708808080838006F
:100B60000038202121221C00180808F80808180065
:100B70000000203F2000000008F808000008F808E6
:100B8000001F202020201F000878880000C8380897
:100B9000000007380E010000F80800F80008F8000F
:100BA000033C0700073C03000818688080681808A9
:100BB00020302C03032C30200838C800C838080027
:100BC0000000203F2000000010080808C838080076
:100BD0002038262120201800000000FE020202001A
:100BE0000000007F40404000000C30C000000000CA
:100BF000000000010638C00000020202FE000000F2
:100C0000004040407F000000000004020202040097
:100C100000000000000000000000000000000000D4
:100C200080808080808080800002020400000000BC
:100C300000000000000000000000808080800000B4
:100C40000019242222223F2008F8008080000000A2
:100C5000003F112020110E00000000808080000065
:100C6000000E112020201100000000808088F80074
:100C7000000E112020103F200000808080800000A6
:100C8000001F222222221300008080F0888888180A
:100C90000020203F20200000000080808080800015
:100CA000006B94949493600008F8008080800000AA
:100CB000203F210000203F20008098980000000085
:100CC0000020203F202000000000008098980000B5
:100CD00000C08080807F000008F8000080808000D5
:100CE000203F24022D302000000808F800000000FA
:100CF0000020203F202000008080808080808000B5
:100D0000203F20003F20003F808000808080000046
:100D1000203F210000203F200000808080800000D4
:100D2000001F202020201F00808000808000000005
:100D300080FFA12020110E00000000808080800034
:100D4000000E112020A0FF80808080008080800025
:100D500020203F2120000100000080808080800052
:100D60000033242424241900008080E080800000C7
:100D70000000001F20200000808000000080800014
:100D8000001F202020103F20808080000080808075
:100D900000010E3008060100808000800080808005
:100DA0000F300C030C300F0000808000808080002A
:100DB0000020312E0E312000808080000080808055
:100DC00080818E7018060100008080808080800005
:100DD0000021302C2221300000000000807C020223
:100DE00000000000003F404000000000FF00000045
:100DF00000000000FF0000000002027C80000000F4
:100E00000040403F0000000000060101020204040F
:100E100000000000000000000000000000000000D2
:100E200000000000000000000000000000000000C2
:100E300000000000000000000000000000000000B2
:100E400000F0F0F0000000000000000000017F0151
:100E50000000000000000000001C1C1C000000003E
:100E600000008060301C8C60301C0C000000000012
:100E70000000000000000000000000000000000072
:100E800000000000000000E00000000000E00000A2
:100E90000086E69F86868686E69F860000011F0103
:100EA000010101011F010100000080C06020F82045
:100EB000E0C00000000003070C18FF70E181000093
:100EC0000000070F10107F100F07000080602060E7
:100ED00080000000E02000000F3020309F70DC37E1
:100EE0001030C0000000100E030007181018070093
:100EF0000000C02020E0C0000000000080E01F389B
:100F0000E88703C43C040000070F1810100B070DFE
:100F10001010080000808C4C380000000000000019
:100F200000000000000000000000000000000000C1
:100F3000000000000000000000000000000080E051
:100F4000300804000000000000FEFF010000000067
:100F5000000000000000030F1820400000040830CB
:100F6000E0800000000000000000000001FFFE0023
:100F700000000000004020180F03000000000000E7
:100F8000000000000000C000000000000042666693
:100F90003C18FF183C666642000000000000030099
:100FA00000000000000000000000800000000000C1
:100FB000001010101010FF10101010100000000092
:100FC000000003000000000000000000000000001E
:100FD0000000000000000000000000000000000011
:100FE00000808C4C38000000000000000000000071
:100FF0000000000000000000001010101010101081
:1010000010101000000000000000000000000000B0
:1010100000000000000000000000000000000000D0
:10102000000000000000000000001C1C1C0000006C
:10103000000000000000000000000000E0380C008C
:101040000000000080701C03000000000060380EEB
:101050000100000000000000000080C0602020604F
:10106000C080000000FEFF010000000001FFFE0044
:101070000001070E181010180E07010000008080F4
:1010800080C0E000000000000000000000FFFF0042
:101090000000000000001010101F1F1010100000B2
:1010A0000080402020202060C0800000000303005A
:1010B000804020381F070000001C1A191818181843
:1010C000181F00000080C020202060C080000000A9
:1010D000000303001010182FE780000000070F1016
:1010E000101010180F070000000000000000C0E002
:1010F000F000000000C0B088868180FFFF80800083
:10110000000000000010101F1F1010000000E06021
:10111000606060606060000000003F100808081810
:10112000F0E0000000070B101010101C0F0300006F
:10113000000080C040202020E0C0000000FCFF2113
:101140001008080818F0E0000001070C1810101033
:10115000080F03000000C0E06060606060E06000B5
:10116000000003000000E01807000000000000007D
:10117000001F1F00000000000080C0602020202011
:1011800060C080000087EF2C1818303068CF8300D3
:1011900000070F0810101010180F07000000C0C043
:1011A00020202020C0800000001F3F6040404020E1
:1011B00010FFFE0000000C1C101010080F030000B0
:1011C000000000000000000000000000000000001F
:1011D000000E0E0E0000000000000000001C1C1C91
:1011E00000000000000000000000000000000000FF
:1011F00000000000000C0C000000000000000000D7
:1012000000583800000000000000000000000080CE
:10121000402010000000102844820100000000005F
:10122000000000000000010204081000000000009F
:101230000000000000000000008484848484848412
:101240008484840000000000000000000000000012
:10125000000010204080000000000000000000009E
:101260000000018244281000000010080402010060
:101270000000000000C020201010101030E0C0005E
:101280000003030000F010080C070300000000003A
:101290001C1C1C0000000000000000C0406020205A
:1012A0002040C00000FCFF01F00E03C1FE03807F60
:1012B0000001070E081111101109040200000000BE
:1012C00080E0E000000000000000807C4340477F99
:1012D000F880000010181F1000000000131F1C10E1
:1012E00020E0E02020202060C080000000FFFF10F0
:1012F000101010182FE78000101F1F101010101072
:10130000180F0700000080C0402020202060E0006F
:1013100000FCFF0100000000000001000001070EBA
:10132000181010100804030020E0E02020202040C6
:10133000C080000000FFFF000000000001FFFE0071
:10134000101F1F10101018080E07010020E0E020E9
:10135000202020202060800000FFFF101010107C53
:1013600000000000101F1F101010101010180600B1
:1013700020E0E020202020206060800000FFFF109F
:101380001010107C00000100101F1F100000000052
:1013900000000000000080C06020202040E000002D
:1013A00000FCFF0100004040C0C140400001070EAA
:1013B000181010100F0F000020E0E02000000000C7
:1013C00020E0E02000FFFF101010101010FFFF00C1
:1013D000101F1F1000000000101F1F100000202011
:1013E00020E0E020202000000000000000FFFF00BF
:1013F0000000000000001010101F1F10101000004F
:1014000000000000202020E0E0202020000000005C
:10141000000000FFFF0000000060E0808080C07FCF
:101420003F00000020E0E020000020A0602020001D
:1014300000FFFF30187CE3C000000000101F1F10E9
:10144000000001131F1C181020E0E0200000000025
:101450000000000000FFFF0000000000000000008E
:10146000101F1F10101010101018060020E0E0E0F0
:1014700000000000E0E0E02000FF013FFEC0E01EB1
:1014800001FFFF00101F1000031F0300101F1F109B
:1014900020E0E0C0000000000020E02000FF00038A
:1014A000071C78E08000FF00101F10000000000003
:1014B000030F1F00000080C060202060C08000007B
:1014C00000FEFF010000000000FFFE000001070E0B
:1014D000181010180C07010020E0E0202020202028
:1014E00060C0800000FFFF2020202020301F0F0060
:1014F000101F1F100000000000000000000080C04E
:1015000060202060C080000000FEFF01000000009D
:1015100000FFFE000001070E1111133C7C67210043
:1015200020E0E0202020202060C0800000FFFF108D
:101530001030F0D0080F0700101F1F10000000032C
:101540000F1C10100080C060202020204040E000D0
:1015500000070F0C1818303060E08100001F0C08E5
:1015600010101010180F07008060202020E0E020ED
:10157000202060800100000000FFFF00000000014B
:1015800000000000101F1F100000000020E0E020FD
:10159000000000000020E02000FFFF00000000002D
:1015A0000000FF0000070F181010101010080700AF
:1015B0002060E0E02000000020E060200000077FC5
:1015C000F88000807C03000000000000071F1C075B
:1015D0000000000020E0E02000E0E0200020E0200B
:1015E0000007FFF8E01FFFFCE01F00000000031FE2
:1015F0000300011F03000000002060E0A0000020A5
:10160000E0602000000000038F7CF8C601000000AD
:101610000010181E130001171F1810002060E0E0D2
:101620002000000020E06020000001073EF8E018E4
:101630000700000000000010101F1F101000000025
:1016400000806020202020A0E0E0200000000000BA
:10165000C0F03E0F0300000000101C1F17101010F8
:10166000101806000000000000FC0404040404003C
:101670000000000000FF000000000000000000006B
:10168000007F404040404000000010E000000000AB
:101690000000000000000000031C6080000000004B
:1016A00000000000000000030C7080000000040433
:1016B000040404FC0000000000000000000000FF23
:1016C00000000000000040404040407F000000005B
:1016D00000000010080C040C0810000000000000BE
:1016E00000000000000000000000000000000000FA
:1016F00000000000000000000000000000000000EA
:1017000000000000000000000000000080808080D9
:1017100080808080808080800000000404080800B1
:1017200000000000000000000000000000000000B9
:1017300000000000000000000000000000000000A9
:101740000000000000000000000098D84464242439
:10175000FCF80000000F1F18101010081F1F1018B1
:101760000020E0F000000000000000000000FFFF8B
:10177000180804040CF8F00000001F0F18101010D7
:10178000180F03000000000000000000000000002F
:1017900000E0F8180404043C3800000000030F0CBB
:1017A00010101010080600000000000000000020CB
:1017B000E0F0000000E0F81C04040408FFFF000053
:1017C00000030F18101010081F0F08000000000081
:1017D00000000000000000000000E0F8484444441D
:1017E0004C7870000000030F0C1810101008040053
:1017F0000000000080C0602020E0C000000404045D
:10180000FFFF040404040000000010101F1F10104C
:1018100010000000000000000000000000000000B8
:10182000000070F88C04048CF874040C007076CFFF
:101830008D8D8D89C87870000020E0F000000000D8
:10184000000000000000FFFF08040404FCF8000092
:1018500000101F1F100000101F1F100000000000CC
:1018600000606000000000000000040404FCFC00B4
:101870000000000000001010101F1F1010100000CA
:101880000000000000000060600000000000000098
:10189000040404FCFC0000000000C0C08080C07F85
:1018A0003F0000000020E0F0000000000000000009
:1018B0000000FFFF80C0F41C0404000000101F1F84
:1018C0001100031F1C1010000000202020E0F00079
:1018D000000000000000000000FFFF00000000000A
:1018E00000001010101F1F1010100000000000005A
:1018F000000000000000000004FCFC0804FCFC08E0
:1019000004FCFC00101F1F10001F1F10001F1F10E1
:101910000000000000000000000000000004FCFCCB
:1019200008080404FCF8000000101F1F100000103D
:101930001F1F100000000000000000000000000059
:1019400000E0F0180C04040C18F0E00000030F0C89
:10195000101010100C0F0300000000000000000029
:10196000000000000004FCFC080404040CF8F00073
:101970000080FFFF889010101C0F03000000000083
:10198000000000000000000000E0F81C040404084F
:10199000F8FC000000030F1810109088FFFF800073
:1019A000000000000000000000000000040404FC2F
:1019B000FC100804040C0C001010101F1F10101055
:1019C0000000000000000000000000000000000017
:1019D00000003078CCC48484840C1C0000001E18E5
:1019E00010101011190F06000000000000C00000C8
:1019F0000000000000040404FFFF040404000000D1
:101A0000000000000F1F1010100C0000000000006C
:101A100000000000000000000004FCFE00000004C4
:101A2000FCFE000000000F1F181010081F0F080018
:101A300000000000000000000000000000040C3C5A
:101A4000FCC40000C43C0C0400000000010F1E0E8A
:101A50000100000000000000000000000000000085
:101A6000043CFCC400E47CFC84807C040000071F70
:101A7000070000071F070000000000000000000032
:101A8000000000000004041C7CE4C0341C040400BA
:101A90000010101C1601131F1C181000000000007D
:101AA000000000000000000000040C3CFCC400C466
:101AB0003C0404000000C080C1370E01000000009B
:101AC00000000000000000000000000000001C04F6
:101AD00004C4F47C1C0400000000101C1F1711102B
:101AE00010180E0000000000000000F80C040000B8
:101AF00000000000001028EF0000000000000000BF
:101B00000000003F60400000000000000000FF00F7
:101B100000000000000000000000FF0000000000C6
:101B2000000000000000FF00000000000000040CA6
:101B3000F80000000000000000000000EF28100086
:101B400000000000000040603F00000000000000B6
:101B500000180602020408102020300800000000CF
:101B60000000000000000000000000000000000075
:101B70000000000040F0200070472DE9F14FB0B0A8
:101B8000924604910DF142013A9A2B9199464A707E
:101B900000200AE01AF8011B0498309A90470028A8
:101BA000049000F031860D98401C0D909AF80000CA
:101BB00050B12528EED10021002207910892099109
:101BC0000A920B910C9204E00D9800F01FBE41F0B8
:101BD00001011AF8010F2028F9D023280CD02B2856
:101BE00004D02D2805D0302809D00BE041F00201A7
:101BF000EFE741F00401ECE741F00801E9E741F0CB
:101C00001001E6E72A280FD1D9F8002052F8040B7A
:101C1000C9F8002000280F9003D540420F9041F0F2
:101C200004010AF1010A14E00F92DFF8E83B0AE030
:101C30000F98984205DA00EB800402EB4402303A38
:101C40000F920AF1010A9AF80020A2F130000A2846
:101C5000EED39AF800002E2803D04FF0FF320E92F8
:101C600029E01AF8010F2A2809D1D9F8000050F804
:101C7000042BC9F800000E920AF1010A1BE02D287E
:101C80000CBF0AF1010A002000220E92DFF8844BFB
:101C90000BE040B90E9AA24205DA02EB820503EB93
:101CA0004503303B0E930AF1010A9AF80030A3F184
:101CB00030020A2AEDD3ADF840100FF65C309AF8E6
:101CC000001000F0C9FE08B11AF8010B8DF84200AF
:101CD0009DF84200682805D19AF8000068280CD1C8
:101CE000622106E06C2804BF9AF800006C2804D139
:101CF00071218DF842100AF1010A12A806901AF813
:101D000001BBBBF125012CD01C3900F09481091FC7
:101D1000022940F29081133900F0A884093900F0BB
:101D20008A81891E00F03D85491E00F0EA84491E23
:101D3000022940F28081091F00F0E384491F00F06E
:101D4000EF80491E00F09284491E00F0D780C91E22
:101D50000CD0891E00F08A84C91E00F0878400F030
:101D60002BBD01220792252100F023BDD9F80000E8
:101D700050F8044BC9F80000002C059440F0AB80EB
:101D80002B994878002800F0A1804FF0FF340FF61F
:101D9000902000F071FE201A40F0368500F018BD4A
:101DA00001236A4602A9304600F0FEFD002840F0FB
:101DB0002B856D1EF4D13096079D12AF75B1309E04
:101DC00017F8011B0498B0470028049000F01C8508
:101DD0000D98401C6D1E0D90F2D130960A9D302159
:101DE000002D8DF800100CDD309E01236A4602A9FB
:101DF000304600F0D9FD002840F006856D1EF4D174
:101E00003096059F089D75B1309E17F8011B049808
:101E1000B0470028049000F0F7840D98401C6D1E18
:101E20000D90F2D130960B9D3021002D8DF80010D1
:101E30000CDD309E01236A4602A9304600F0B4FD55
:101E4000002840F0E1846D1EF4D130960598089981
:101E5000099D471875B1309E17F8011B0498B047CB
:101E60000028049000F0D0840D98401C6D1E0D9049
:101E7000F2D130960C9D3021002D8DF800100CDD34
:101E8000309E01236A4602A9304600F08DFD0028ED
:101E900040F0BA846D1EF4D130969DF840004107A1
:101EA0007FF584AE2020002C8DF800007FF77EAEF9
:101EB000309D01236A4602A9284600F075FD0028DE
:101EC00040F0A284641EF4D130956FE60FF63830EE
:101ED000059000F07DBC0E9D002D04D5204600F03D
:101EE000EBFD044607E02A46204600F001FE0028EC
:101EF00014BF041B2C46089400F06ABCD9F80010EB
:101F000051F8040BC9F8001020F00004002121F062
:101F1000FF35CDE9024512AB0593782100F03DBCB9
:101F20002B99487820B14FF0FF340FF6AC2030E702
:101F30009DF84200622860D0682817D06A283FD0F8
:101F40006C2806D0712847D074282CD07A281DD050
:101F500062E0D9F8001051F8040BC9F8001000280D
:101F600066D14FF0FF340FF6882012E7D9F8001041
:101F700051F8040BC9F8001020B94FF0FF340FF6E8
:101F8000702006E70D99018000F022BCD9F80010FE
:101F900051F8040BC9F80010002849D14FF0FF3464
:101FA0000FF64C20F5E6D9F8001051F8040BC9F8EB
:101FB000001000283CD14FF0FF340FF63420E8E643
:101FC000D9F8001051F8040BC9F8001080B94FF08F
:101FD000FF340FF61C20DCE6D9F8001051F8040B92
:101FE000C9F8001020B94FF0FF340FF60420D0E6F6
:101FF0000D9AD317C0E90023EAE3D9F8001051F88D
:10200000040BC9F8001020B94FF0FF340FF6E010B0
:10201000BFE60D990170DBE3D9F8001051F8040B0D
:10202000C9F8001020B94FF0FF340FF6C410B0E625
:102030000D990160CCE39DF842004C2807BFD9F808
:102040000010CB1DD9F80000C31D23F00703C9F809
:102050000030D3E900010833C9F80030CDE90201AE
:10206000C80F02D007982D210AE0BDF84000810773
:1020700002D507982B2103E0C00705D5079820213A
:1020800012AB1954401C079012A80799DDE90245CC
:1020900043184BF020006128059321AE0BD00E9819
:1020A000002802D506200E9005E001BF4BF020006D
:1020B000672801210E91DDE902014F007F1517F11C
:1020C000010F0DD108030BD0ABF1610203201A2AD6
:1020D000089002D20FF634110FE00FF634110CE025
:1020E00017F1010F0ED109030CD1ABF161020320EE
:1020F0001A2A08901CD30FF620110322184600F06C
:1021000023FD65E3DDE902016A4600F029FDCDE922
:1021100002014BF02000612811D105983021017097
:10212000821C0592BBF1610F0CBF7821582102E09F
:102130000FF6E001E1E741700798801C0790DDE9A8
:10214000020120F0000231F0004308BF002A02D152
:102150000025002445E14BF02008B8F1610F40F064
:1021600095800E98002847BF21210191401C0190C5
:10217000019F7F1C2046294600220023DDE90245FD
:1021800000F026FD38BF85F0004500998DF88420C9
:10219000091F002F00910DF1850034DD0646204611
:1021A00029460022002300F02DFD2BD21C2200F036
:1021B00043FD04460D4600F0DDFDFF1F002F804665
:1021C00009DD00F0F3FD02460B462046294600F0EB
:1021D000B5FE04460D46F01D0721B8F1000F0CDDD9
:1021E000491E5EBF08F00F0200F8012D4FEA2818C3
:1021F000F3D502E0002200F8012D491EFAD5C61DD4
:10220000002FCCDC30460DF18501401A01990DF10B
:10221000850605468842C8BF0D46002D2FD485424D
:1022200006DA0DF18500415D0829A8BF0F2000DA0C
:102230000020294621AA0A4400E06D1E12F8013947
:10224000491E8342F9D00F2804D10DF18500425C6C
:10225000521C4254002904D50098001D21AE6D1C6B
:102260000090681E0BD431180A783032D3B23A2B62
:10227000A4BF5A443A3A401E01F80129F4D50E98F9
:10228000002840F1AD80691E0E91A9E00099DFF8A9
:10229000082747F29750414391FBF2F2009225F054
:1022A0000045C2F10702002A04DD2046294600F05D
:1022B0004FFB0BE052420020DFF8E01600F048FB35
:1022C00002460B462046294600F0AAFE04460D466B
:1022D000B8F1660F06BF009F0A3706270E983F1811
:1022E000142FC8BF142730208DF884000DF185000D
:1022F00000E03046002F35DD06462046294600F036
:10230000B3FF01460A4606F1080304200A26B2FB81
:10231000F6F606EB860EA2EB4E02303203F8012CE5
:102320000A22B6FBF2F202EB820EA6EB4E06303624
:10233000401E03F8026DE9D1083F002F03F10806A3
:10234000D7DD084600F0A2FF02460B46204629468C
:1023500000F0F4FD0022DFF8483600F0A5FF044647
:102360000D46CAE70DF18501401A0DF1850604E01E
:102370000099491E401E0091761C31783029F7D013
:10238000B8F1660F02D10099491C04E0B8F1650F5D
:102390000CBF012100210E9D4D19A842B8BF451E5A
:1023A000002D1DD4854204DA705D3428C8BF392061
:1023B00000DC30202946721E531800E06D1E13F811
:1023C0000149491E8442F9D0392802D1705C401C71
:1023D0007054002904D50098401C16466D1C0090CE
:1023E000009C01F037F8406A0778DDF8388028B2A1
:1023F000002802DC01250FF224664BF0200066283D
:1024000008BF641C16D0672846D120B210F1040F13
:1024100048DB404546DA9DF84000641C010703D4C0
:1024200028B24045D8BF804620B2B8EB000848BF6C
:102430004FF000080FFA84FBBBF1000F00F3B580EA
:102440000898411C0891302205990A54B8F1000FF0
:1024500003DC9DF84000010704D50898411C089151
:1024600005990F5418EB0B0FB8BFC8F1000424B244
:102470006042A0442AB20B909045B8BF4546059BE8
:1024800008982DB209952A463146184400F05CFBA5
:10249000A8EB05000C90D2E0BBF1610F17D14FF013
:1024A000700B19E028B2404504DA9DF840100A0785
:1024B00058BF8046B8F1010848BF4FF00008BBF193
:1024C000670F14BF4FF0450B4FF0650B04E0BBF1F5
:1024D000410F08BF4FF0500B0898411C0891B8F10C
:1024E000000F059916F8012B0A5403DC9DF84000F3
:1024F00001071AD50898411C0891B8F1000F0599F9
:102500000F5412DD6D1E28B28045B8BF45460598B0
:10251000089B2AB23146184400F016FB08992DB2E8
:1025200069180891A8EB05000B90059808990844D4
:1025300021B2002980F800B003D42B224270821C03
:1025400004E02D2242700C46821C644200212CAB18
:1025500020460AE004460A2094FBF0F000EB8005D8
:10256000A4EB450403F8014B491C00B20028F1DC40
:10257000012906DC4BF02000652804BF302002F85A
:10258000010B00292CAB08D1302002F8010B06E02A
:10259000491E585C303002F8010B0029F8DC05991F
:1025A00008980844121A099249E028B221B28842D8
:1025B0001CDA0598089B2AB23146184400F0C4FA88
:1025C00008992DB269180891ABEB0500B8F1000F1E
:1025D0000B9003DC9DF84000020704D50598475492
:1025E0000999491C0991CDF8308028E00598089B8D
:1025F00022B23146184400F0A7FA08982D1B58441F
:10260000B8F1000F089003DC9DF840100A0703D5CD
:10261000411C089105990F5428B28045B8BF454622
:102620000598089B2AB206EB0B01184400F08CFABF
:1026300008982DB228180890A8EB05000B909DF87B
:10264000400000F01400102840F0C280079A08995A
:102650000B988A18099982180C988A1882180F9872
:10266000824280F2B580821A0A92B1E09DF842005F
:10267000622808D068280ED06A2814D06C281FD091
:10268000712810D01CE0D9F8001051F8040BC9F8DB
:102690000010C0B21AE0D9F8001051F8040BC9F8C4
:1026A000001080B212E0D9F80000C21D22F007022B
:1026B000C9F80020D2E900010832C9F8002006E07C
:1026C000D9F8001051F8040BC9F800100021CDE929
:1026D00002019DF8400001075AD5DDE90223002BD5
:1026E00008BF002A54D04BF02000782850D107981A
:1026F00012A930220A54401C431C079301F800B071
:1027000046E09DF84200622808D068280ED06A286A
:1027100014D06C281FD0712810D01CE0D9F80010FC
:1027200051F8040BC9F8001040B21AE0D9F80010B3
:1027300051F8040BC9F8001000B212E0D9F80000FB
:10274000C21D22F00702C9F80020D2E900010832B8
:10275000C9F8002006E0D9F8001051F8040BC9F8B8
:102760000010C117CDE90201002902D507982D21DB
:102770000AE0BDF84000810702D507982B2103E04D
:10278000C00705D50798202112AA1154401C0790B4
:1027900012A8079901440591594602A800F04EF885
:1027A00016E001200790D9F8000050F8041BC9F882
:1027B00000008DF848100BE001212522BBF1000F2D
:1027C00007918DF8482003D0022207928DF849B076
:1027D0000F9A07980A990C9C121A0898521A0B998A
:1027E000121A0998521A121A9DF84000141B410738
:1027F0003FF5E2AA2020002C8DF800007FF7DCAA2C
:10280000309E2546FFF7CCBA4FF0FF3031B0BDE81F
:10281000F08F0000CBCCCC0C686A6C747A4C000052
:102820007072696E74665F733A206261642025730A
:1028300020617267756D656E740000002DE9FC47BC
:1028400007468A463C6950466F2808BF082505D0D0
:10285000FFF790F9782814BF0A251025D7E9000161
:102860003C2680468946BAF1640F18BFBAF1690F59
:1028700005D1002903D5D8F1000869EB4909B9F160
:10288000000F08BFB8F1000F0CD1386B50B9082DFC
:102890003AD197F83800010736D530223B2684F824
:1028A0003B2031E08DF800A0404649462A46EB1710
:1028B00000F0D4FD3032D0B2761E3A2801960EDAFE
:1028C000A255404649462A46EB1700F0C7FD804610
:1028D0005FEA010908BFB8F1000F05D108E09DF8D3
:1028E00000001218513AEBE7F868A1198842DBD3CF
:1028F000082D09D197F83800010705D5A05D3028CB
:1029000002D0761E3020A055C6F13C02BA61A11952
:10291000F960386B824208DA821A3A624FF6EF7039
:10292000398F01403987BDE8F38700280ED597F825
:10293000380000F01400102808D17B6B7969386AE0
:102940005B1A1B1A9A1A002AC8BF3A62BDE8F387BD
:102950002DE9D04306460F4614464FF00008DFF835
:10296000449012E0E00707D542464B4630463946D0
:1029700000F09AFC06460F464046494642464B4602
:1029800000F092FC641080468946002CEAD1304663
:102990003946BDE8D0830000A08601000000F03F6A
:1029A00084D7974100002440F8B505460E461746E7
:1029B0001C4600205CB117F8011BB068A847B06046
:1029C00030B1F06A401CF0620020641EF3D1F2BD09
:1029D0004FF0FF30F2BD00007072696E74665F7375
:1029E0003A20256E20646973616C6C6F77656400B2
:1029F0007072696E74663A2062616420256E20618F
:102A00007267756D656E7400000000006E616E0087
:102A10004E414E00696E6600494E4600300030B5AA
:102A2000016884684218416802EB5103C90703D565
:102A30004C4401E0491C08D19A4218BF12F9011B0D
:102A400001D10C3030BD12F8015B002904F8015BA4
:102A5000F0D4491EF7D5EFE7C9B202788A421AB11D
:102A60001CBF10F8012FF9E718BF0020704702685B
:102A7000531C03601170704780B500B906A005496A
:102A80000B681BB122220021984701E000F069FD8C
:102A9000222002BDA4040020636F6E73747261690A
:102AA0006E742068616E646C65723A2062616420A5
:102AB0006D6573736167650000F10103810704D0E0
:102AC00010F8011B820781B1FAD10268A2F101312D
:102AD000914311F0803104BF50F8042FF6E709BA92
:102AE000B1FA81F100EBD100401CC01A70472E00F2
:102AF000C9B2830706D0521E22D310F8013B994277
:102B0000F7D11FE0083A13D302F1040241EA012190
:102B100041EA014150F8043B121F21BF4B40A3F191
:102B2000013C2CEA030C1CF0803FF3D0C9B2001F1B
:102B3000083210F8013B521E28BF91EA030FF8D863
:102B400018BF0120401E70474AB1000011F8013B38
:102B5000521E00F8013B1CBF11F8013BF8E770471B
:102B600010B5144600F002F8226010BDC1F30A53FC
:102B700043B14A0012F5001F28D2A3F2FE32A1EBA6
:102B80000251704750EA410C20D001F0004C31EA6C
:102B90000C01B1FA81F204BFB0FA80F3D2180B3AFB
:102BA000B2F120032CBF00FA03F1914041EA0C017D
:102BB0003EBFC2F1200C20FA0CF319439040524260
:102BC00040F2FD33D21A01EB0351704700227047E7
:102BD00041EA030C50EA4C0C52EA0C0C4FF4001C76
:102BE00009D307D01CEB410F9CBF1CEB430F8B425A
:102BF00008BF824270471CEB430FFBD8994208BFC5
:102C00009042704741EA030C50EA4C0C52EA0C0C1B
:102C10004FF4001C09D307D01CEB410F9CBF1CEBE9
:102C2000430F994208BF904270471CEB410FFBD8FD
:102C30008B4208BF82427047124254D440F2FF7C5C
:102C40001CEA11530FD0634531D09B1863453CBF3C
:102C500001EB0251704701F0004141EA0C510020A4
:102C6000AFF30080704750EA410320D001F0004CE0
:102C700091EA0C011CD0B1FA81F30B3B9A420DD9B9
:102C8000D21A994051EA0C01C3F1200C20FA0CFC35
:102C900061449840531C40F2FF7CD7E7914041EAE1
:102CA0000C01C2F1200C20FA0CF31943904070473C
:102CB000B0FA80F31533202BE0D3202AEED3203A4C
:102CC000203B9A4209D9D21A00FA03F141EA0C01D9
:102CD0000020531C40F2FF7CB8E700FA02F141EA01
:102CE0000C0100207047524240F2FF7C1CEA115355
:102CF0000DD06345DBD0B2EB030C3CBFA1EB02511E
:102D000070470CF1010221EA035141F4801150EAAD
:102D1000410CCCD001F0004C352A27DC30B481EADC
:102D20000C01B2F1200309DAC2F12003044601FAD2
:102D300003F5D0402843D1409C400CE0C3F1200271
:102D4000450020FA03F418BF44F0010421FA03F00F
:102D500091400C43002174F1004550F1000051EB0B
:102D60000C01244230BC7FF47BAF704761460020E9
:102D700076E70000C1F30A5340F21E42D31A0CDD7D
:102D8000CA0283F3070342EA505242F00042DA409B
:102D900002EBE17282EAE17070476FEAE17203F2DE
:102DA000E13008B182F000407047000010F00041AF
:102DB00060B148BF4042B0FA80F29040D21CC2F5E8
:102DC000846241EA025202EBD021400570470000C4
:102DD000841A71EB030604D26E40001BB141121934
:102DE00073414FF4001C1CEB410F34BF7CEB4306D6
:102DF00083E00C0DA4EB1356362E00F37C80012EDD
:102E000045EAC32341DC43EA525312BFD202920285
:102E10005B08240545EAC12141EA5051D2EBC020AC
:102E2000994125D407D1B0FA80F610FA06F162D0A4
:102E30000020203608E0B1FA81F6B140C6F1200248
:102E400020FA02F21143B0404FEAF474B4EB465456
:102E500034F001064FEA74040AD8D6F50016760D50
:102E600004F00044F04061FA06F25040F14048405E
:102E7000C00A40EA415021F0004128BF5FEA5005F6
:102E800050F1000044EBD12135E0DB0A45EAC121D5
:102E9000C90AB6F120050EDD42EA0242120CC5F164
:102EA000200603FA06F6EB4042EA06056D42984119
:102EB00061F100010DE062FA06F5F240554063FA57
:102EC00006FC82EA0C02F3405A406D42904161EBED
:102ED000030111F4801F05D1641E620502D06D004C
:102EE0004041494121F48011430875F1004350F1FC
:102EF000000041EB045170BC70471CEB410F15D230
:102F000023F0004352EA43060BD04FEA4C0CBCEBD3
:102F1000410F04D80C0D661E342EB7DDEBE7801A86
:102F2000994150EA410608BF0021E4E708BF1CEBC5
:102F3000430F28BF6FF00001DDE7000070B491EA95
:102F4000030F4FF000457FF543AF6B40841A71EBE0
:102F5000030603D2001BB141121973414FF4001C48
:102F60001CEB410F34BF7CEB430442E00C0DA4EB9F
:102F70001356352E4FDC45EAC323DB0A45EAC1214F
:102F8000C912B6F120050DDD63FA05F6EB4086EABD
:102F90000305124218BF45F00105C01851F10001A8
:102FA0000CD213E062FA06F5F2405540F3415A4064
:102FB000B340F3405A408018594107D349085FEAAB
:102FC00030005FEA350528BF45F0010501F58011A5
:102FD000420875F1004250F1000041EB04514E00EF
:102FE00016F5001F70BC38BF70470020090D090599
:102FF00070471CEB410F10D252EA43060BD0BCEBDA
:10300000410F05D80C0DAB43661E342EB6DD02E031
:10301000AB438018594170BC704770BC70470000CA
:10302000F0B540F2FF7581EA030C0CF0004C15EA94
:1030300011541DBF15EA1357AC42AF42E5E0BC4145
:10304000C1F31301C3F31303801A994143F48013AE
:1030500004D2641E0018494180185941C90241EA4E
:103060005051B1FBF3F603FB1611A2FB0675D7EB2B
:10307000C020A94102D2761E80185941C90241EAF6
:103080005051B1FBF3FE03FB1E11A2FB0E75D7EBF3
:10309000C020A94103D2AEF1010E80185941890226
:1030A00041EA9051760546EA8E2EB1FBF3F603FB1A
:1030B0001611A2FB0675D7EB8020A94102D2761E1D
:1030C00080185941C90241EA50514EEA060EB1FB3F
:1030D000F3F603FB1611A2FB0675D7EBC020A9413E
:1030E00002D2761E80185941C90241EA5051B1FB03
:1030F000F3F703FB1711A2FB0735D3EBC020A9415F
:1031000067F100070CBF004247F0010766F3D527BF
:103110004FEA1E31B80814F5806412DDBD0775F161
:10312000004250EB0E5051EB045111F5801F5CBF73
:1031300041EA0C01F0BD4CF07F6141F0E04100201C
:10314000F0BDBD076D0840EA0E5041F48011D4F186
:103150000104B4F120060ADAC4F120060200E040BE
:1031600001FA06F3E1401843B24015430EE0342C57
:1031700013DCC6F1200445EA40056D0820FA06F28A
:10318000154321FA06F0A1400D43002175F10042DC
:1031900050F1000051EB0C01F0BD00205FEA0C0182
:1031A000F0BDCFB992185B41B3FA83F704BFB2FA0E
:1031B00082F6BF190B3FB7F120062FBF02FA06F3C4
:1031C000BB40C7F1200622FA06F638BF3343BA40A7
:1031D0001CB1E419641E33E77F4231F00041B1FABB
:1031E00081F404BFB0FA80F6A4190B3CB4F12006B8
:1031F0002FBF00FA06F1A140C4F1200620FA06F61E
:1032000038BF3143A0403C1B1AE7AC421ABF05EA65
:103210001357AF4212E050EA41061CBF52EA430680
:10322000BFE750EA4107304661461CBF41EA0551FD
:10323000F0BD52EA430C08BFC143F0BD00204FF47B
:10324000001616EB410F98BF16EB430F08BF16EBA5
:10325000410F24BFC14305E016EB430F0CBF61468D
:103260004CEA0551F0BD0000400D40F21E4C40EA12
:10327000C120BCEB115C40F0004003D48CF307018B
:10328000C84070476FEAE1707047000050B1B0FA73
:1032900080F18840C91CC1F58461090501EBD0218A
:1032A000400570470146704730B540F2FF7C1CEA8C
:1032B00011541DBF1CEA1355644565453FE0641970
:1032C00081EA030C6FF35F530CF0004C43F480135E
:1032D000C90241F0004141EA505EC5021100A5FB60
:1032E000020200284FF00000EEFB01204FF0000129
:1032F000E3FB052118BF42F00102401800214941BB
:10330000E3FB0E01A4F580640D0302D29218404144
:10331000494154F1010470DD450872F1004250F159
:10332000000051EB0451A1F5801102D441EA0C01D7
:1033300030BD40F2FF7E4CEA0E51002030BD0CEA59
:103340001355644518BF654581EA030C0CF0004C29
:1033500041D050EA410E1CBF52EA430E02E06146E2
:10336000002030BD24422C441BD15FEA050EF6D06C
:10337000090302BF01460020AEF1140EB1FA81F537
:10338000AEEB050401FA05FE0C35C5F1200100FA8B
:1033900005F5C8404EEA000E6FF35F5343F4801307
:1033A0009CE733F00043B3FA83F504BFB2FA82FE20
:1033B00075440B3D641BB5F1200E2FBF02FA0EF3CE
:1033C000AB40C5F1200E22FA0EFE38BF43EA0E03D1
:1033D000AA40641C7CE750EA410E14BF52EA430E37
:1033E0006FF000014FF4001515EB430F8EBF194627
:1033F00015EB410F9DE7B4D830BDD4F10104B4F111
:1034000020050FDAC4F12005520828BF42F001025E
:1034100010FA05FE01FA05F57244E2BFE0402843C8
:10342000E1400FE0352C9ADCC5F1200452EA40025D
:1034300020FA05F218BF42F0010231FA05F0A1406E
:103440000A43002172F1004250F1000051EB0C01DF
:1034500030BD00000048704708020020D3BBD9B13E
:10346000B2F5803F5BD2022A1ED98C46B1FBF2F145
:1034700002FB11C31B0443EA1043B3FBF2FC02FB43
:103480001C3380B240EA0343B3FBF2F002FB10327C
:1034900040EA0C4000237047022A05D98446B0FB5D
:1034A000F2F002FB10C270474AB105D100F00102F0
:1034B00049085FEA3000704700220023704700F09F
:1034C00053B80B000200002100207047F7D3002200
:1034D00000237047904271EB030CF2D370B5B1FA40
:1034E00081F4B3FA83F52C1BA340C4F1200532FA12
:1034F00005F63343A2405FF00046E64002E05B0879
:103500005FEA3202841A71EB030524BF2046294684
:103510007641F4D302000B003000002170BD70B57D
:10352000B1FA81F4B2FA82F5C4F120046419B4F15D
:103530002006DAD3B2405FF00044F440002502E0F8
:1035400052085FEA3303C61A71EB020E24BF3046FD
:10355000714664416D41F3D302000B002000290045
:1035600070BD012000F002B87047000080B5AFF3D5
:103570000080024A11001820ABBEFBE726000200C3
:10358000603000EB8100006800F0F8407047603068
:1035900000EB8100016821F000410A43026070479E
:1035A000C06800F44060401E8041C00F7047CB0DE2
:1035B00010B5143003F004031818090D01F01F01B1
:1035C000036807248C40A34302FA01F11943016008
:1035D00010BDF8B504460020002500900CB901206C
:1035E000F2BD04F15006706828B9204600F03DFD98
:1035F0000020B060307021688868800004D58A6837
:10360000DFF8580402408A6021688868C00012D43C
:103610008A68DFF84C04024042F080528A60DFF88A
:103620007017DFF870270868B0FBF2F2521C5200E6
:10363000009200F085FC20688168C90008D4726897
:1036400042F0100272600125B16841F00101B160E1
:10365000836871689B08CA0679D4D90777D47268E1
:1036600022F4807242F0020272608068C0070CD4BB
:10367000DFF824170868C00707D4DFF820170A68A6
:10368000606822F47C1202430A6004F13002607E1A
:103690005768E16894F820C047EA4037A0680F43B4
:1036A0000743BCF1010F47EA0C4703D1606A401E93
:1036B00047EA4047A06A20B100F470700743E06A0F
:1036C00007432168DFF8D806D1F80CC000EA0C00E7
:1036D0000743CF60DB072168886824D4000722D421
:1036E000CB68DFF8C006277E0340107843EA8733B3
:1036F00043EA4003CB60107A01280FD123681F6989
:10370000D16810696FF38A070F43516907439069C5
:103710000F43074347F001071F6104E02068016978
:10372000490849000161206901282068016B05D121
:10373000E2690909521E42EA011101E00909090181
:1037400001630120716860F30101716004E0706839
:1037500040F01000706001252846F2BD70B50400ED
:1037600001D1012070BD04F150050321686840F0CB
:1037700002006860204600F03EFB06462068C168F3
:1037800041F40011C160300006D1204600F0E0FB9A
:10379000060004BF0120686020684168C90AC902A8
:1037A000416040F2FF70216808602068826822F062
:1037B000A04282602068816841F000518160DFF89A
:1037C000E8052168CA680240CA602068C16841F003
:1037D0000041C16020680169C90AC902016120680D
:1037E000416901F0404141612068816901F07841FF
:1037F00081612068016A01F0F02101622068416A5C
:1038000021F0FF1141622068816A21F0FF1181627D
:10381000DFF8980521680A6B02400A632068DFF828
:103820009015426B0A4042632068826B11408163AD
:10383000DFF880052168CA6B0240CA632068DFF8A0
:103840007815026E0A4002662068426E0A4042669F
:103850002068826E0A4082662068C26E1140C1668E
:103860002068D0F8A010C90CC904C0F8A0102068C6
:10387000D0F8A410C90CC904C0F8A4102068D0F86E
:10388000B010C90CC904C0F8B0102068D0F8B4104A
:1038900021F07F11C0F8B410DFF8FC040068C10704
:1038A00008D4DFF8F80402686FF31842026020467B
:1038B00000F0FFFB0020A8600021E960286169603A
:1038C0002870304670BD38B50446206880684007CF
:1038D0001FD404F15005297801291AD000F099F875
:1038E000010015D100F08BF846BFA96821F0060150
:1038F000002100F07DF82268D1688B0104D56B6847
:10390000012161F30D336B609368DFF8541188E097
:1039100084E0022032BD38B500F08BF801D10220DE
:1039200032BD00F095F8010004D1284600F010FBEC
:1039300000F085F87AE02DE9F04105460C4668690B
:1039400005F15006082808BF08270AD02868C16872
:10395000C80705D5716841F020017160012045E07C
:10396000042700F0B9FB804628680168394216D167
:1039700014F1010FF8D000F0AFFBA0EB0800844277
:1039800001D3002CF0D1286801683942ECD170686D
:1039900040F00400706000213170032026E0706860
:1039A00040F4007070602868FFF7FAFD80B1687E0F
:1039B00070B92968086802070AD5706820F4807019
:1039C00070607068C10403D4706840F001007060DA
:1039D000082F2868C06803D129680820086004E01F
:1039E000400402D42A680C2111600020BDE8F08157
:1039F000A9601C2221680A6000232B7070476A6846
:103A0000DFF8C0150A4042F480726A606968CA042F
:103A1000704701202870204600F048BA0021297024
:103A200032BD0B4043F00403936032BD002121708E
:103A300032BD054605F15004207801287047010089
:103A400005D1616821F4885141F00101616070473E
:103A5000012020700321284600F0CDB9C0FFFF5F90
:103A6000C0FFFF7F0068006C70470000F8B5064695
:103A7000002006F150050F46009000242978012906
:103A800001D10220F2BD0120287030688168490709
:103A900000F175817968062910D2891E03290CD896
:103AA000DFE801F0020406080C2107E0122105E01E
:103AB000182103E04FF4807100E006218B093030BB
:103AC00003F00C033A68181801F01F01D0F800C089
:103AD0001F238B40C2F384622CEA030302FA01F134
:103AE00019430160306882688168520720D4090751
:103AF0001ED4BA683968FFF75AFD3068C1683A6960
:103B0000042A16D060303B6800EB820CAA48DCF82F
:103B10000020024003F0F8431343C9087A694800C3
:103B200000F006008240134343F00043CCF800301D
:103B300076E00021FFF724FD40033068214604D1E0
:103B4000FFF71EFDC0F3846003E0FFF719FD00F0EE
:103B50003CF939684A030EBFC1F3846191FAA1F1BF
:103B6000B1FA81F1884204D1306800220021FFF7C8
:103B70000EFD00F037F9400304D100F033F9C0F333
:103B8000846003E000F02EF900F01FF939684A0361
:103B90000EBFC1F3846191FAA1F1B1FA81F18842BB
:103BA00004D1306800220121FFF7F1FC00F016F982
:103BB000400304D100F012F9C0F3846003E000F088
:103BC0000DF900F002F939684A030EBFC1F38461B0
:103BD00091FAA1F1B1FA81F1884204D13068002252
:103BE0000221FFF7D4FC00F0F5F8400304D100F007
:103BF000F1F8C0F3846003E000F0ECF800F0E5F8C1
:103C000039684A030EBFC1F3846191FAA1F1B1FA98
:103C100081F1884204D1306800220321FFF7B7FC0C
:103C200031688868C00763D4FA683B68D1F8B0C0CF
:103C3000DFF894E302F01802C3F312002EFA02F246
:103C40002CEA000013400343C1F8B030F868DFF8F5
:103C50007C1388424CD1386841030EBFC0F38462A4
:103C600090FAA0F1B1FA81F2521C012102F01F0278
:103C70000A2A1BD2420306D1C0F38462C0F38463D4
:103C8000C0F3846001E000F099F8521C5B1C9206BE
:103C900003F01F03401C02F0F842994000F01F009F
:103CA000114300EB400041EA00511DE0420306D100
:103CB000C0F38463C0F38462C0F3846001E000F069
:103CC0007DF85B1C521C401C9B0602F01F0200F09A
:103CD0001F0003F0F84391400A38194300EB4000FD
:103CE00041EA005141F00071BA683068FFF75FFCAB
:103CF0003B68DFF8DC02034246D02848DFF8D47284
:103D00000168DFF8D422BB4201F0E0711AD10B0246
:103D10003AD43668964237D100F068F841F4000191
:103D200001601B481B4A0168B1FBF2F2521C0C20D7
:103D300042430092009800281EBF0098401E009049
:103D4000F8D121E0DFF89472BB4209D1CB011BD43A
:103D50003668964218D100F049F841F080710CE0C5
:103D6000DFF87C72BB420FD14B020DD4366896420D
:103D70000AD100F03BF841F48001016004E068687A
:103D800040F0200068600124002028702046F2BD29
:103D900004020020400D03000800045008030450F2
:103DA00007C0F0FFFDBFFFFF04800080300882E005
:103DB000200882E020F8FFFF00F0FF0390FAA0F057
:103DC000B0FA80F213461046704790FAA0F0B0FAAD
:103DD00080F0704730680321FFF7D2BB30680221C2
:103DE000FFF7CEBB30680121FFF7CABB026822F0A3
:103DF000E0721143704770B504462068836882689A
:103E00005B0701D412074FD5C0686D4A830113D5F3
:103E1000607E012804BF207E01280DD123687148EF
:103E2000012100E0401E1D686E0602D40028F9D171
:103E300037E04020186001E002290DD02068836837
:103E40005B0707D583689B0704D48568154045F058
:103E500010058560012913D0206883681B0707D5EA
:103E600083689B0704D485682A4042F02002826060
:103E7000022903D0032903D10C2502E0082500E024
:103E8000042500F029F906462068816829420BD0F4
:103E900000F022F9801B0628F6D3206881682942A9
:103EA000F2D000F043F870BD002070BD7CB5044630
:103EB0000020009021688868C20735D488686FF3B5
:103EC0009E1000282DD188683D4D284040F001000B
:103ED00088604549086800020AD54449444B0A688D
:103EE000B2FBF3F35B1C0C204343009300F028F873
:103EF00000F0F2F8064620680168CA0714D480680A
:103F0000C00705D420688168294041F00101816023
:103F100000F0E2F8801B0328EDD320680168CA078F
:103F2000E9D400F003F876BD002076BD606D40F066
:103F300010006065A06D40F00100A0650120704791
:103F400002E00098401E009000980028F9D17047C8
:103F500038B50446216888688A68D2072ED580075C
:103F60002CD48A6802F00D02012A1DD18A681448F7
:103F7000024042F002028A6003212068016000F0E2
:103F8000ABF8054621688868C10717D500F0A4F88A
:103F9000401B0328F6D320688168C807F2D5616DFD
:103FA00041F01001616503E0606D40F01000606554
:103FB000A06D40F00100A065012032BD002032BD9F
:103FC000C0FFFF7FFEF1FFFFFFFF070000007F4003
:103FD00000000880000052C700000450000084CB9D
:103FE00001000080000040A30803045004020020E8
:103FF000400D030010B586B018220021684600F07D
:1040000071F8314C3148206000210420606161600A
:10401000E160216121830020012184F82000E06219
:10402000E16104F1300000220021A260A162017070
:10403000426001722046FFF7CCFA08B100F0EBF8BD
:104040002349009106220192022102917F220392CC
:10405000042104910022059269462046FFF706FDDF
:1040600008B100F0D8F806B010BD18B597B00446F6
:104070005C220021684600F035F82168134A91421D
:1040800015D14FF480434FF040510093149168468E
:1040900000F0D4F808B100F0BEF80E48016841F411
:1040A00000510160006800F400500090009818B0C2
:1040B00010BD00680549884204D10648026822F410
:1040C00000520260704700001003002000000450FE
:1040D000000180214C10024001484068704700BF39
:1040E000F801002010B5044610460A460146204655
:1040F00000F062FA204610BD2DE9F04700F090FA7A
:1041000000F056F800F09CFA00F026FB00F0AEFB41
:10411000FFF770FF00F01AFC00F06EFC00F004FDE9
:1041200041F2883044F6206800F022FD0024474622
:104130004FF6FF750FF2F00ADFF86C9037A638469D
:10414000002704E0AF42FAD318492846CF1900F0FF
:1041500071FD00F02DF8002FF4D1304600F0ACFDD9
:1041600000F026F800F06CFA00F080FB304600F01A
:10417000A3FD484600F0F8FD01F0ACF801F02AF983
:1041800010EE100A01F064F902460B46504600F0AA
:1041900093FDE0B200F074FC641CE0B208284746CE
:1041A000CDDB0024CBE70000880200200100FFFFE8
:1041B00080B596B0442105A801F06EF91421684637
:1041C00001F06AF94FF4806001F070F908B100F075
:1041D00022F84FF480711022089109920A2005906C
:1041E000012100220A910F9205A801F0AFF908B150
:1041F00000F011F80F20012100900191002202929D
:10420000039204920221684601F0EAFB08B100F033
:1042100002F817B000BD72B6FEE7000057414B45EB
:104220002055500D0A000000566F6C746167653AA6
:1042300020252E336C66560D0A0000002DE9FC4740
:10424000064600243068DFF848730105A0461BD5F8
:10425000706C58B1B0F5000F03D0B0F5400F09D025
:1042600010E03A6842F480323A6004E0002100F045
:104270000EF904463CB9F96F706C21F4400101431A
:10428000F96701E00124A046306881032AD5F86C63
:10429000C1004FF000090AD4F86C40F08050F86477
:1042A0004FF00109F86C00F0805000900098DFF8A2
:1042B000E452286840F480702860FFF70DFF8246C2
:1042C0002868C10571D4FFF707FFA0EB0A00032897
:1042D000F6D30324A046B9F1000F03D0F86C20F008
:1042E0008050F8643078C10705D5FA6F306A9208BB
:1042F00040EA8202FA673178880705D5F96F706A5B
:1043000021F00C010143F9673178480705D5F96FB1
:10431000B06A21F030010143F9673178880605D58C
:10432000F96FF06A21F440610143F967316888054B
:1043300005D5F96FF06B21F440210143F96731682D
:10434000480505D5F96F306C21F440110143F96738
:104350003178480605D5F96F306B21F4405101439F
:10436000F9673178080605D5F96F706B21F4404183
:104370000143F9673168C80505D5F96FB06B21F4C1
:1043800040310143F9673168080346D5F96FB06CD5
:1043900021F040610143F967B06CB0F1006F34D196
:1043A000386840F48010386037E0002C92D1DFF894
:1043B000E841206810F440701CBFB16D88420BD0FA
:1043C0002068216841F48031216020F44070226827
:1043D00022F4803222602060C0070FD5FFF77CFEF8
:1043E00005462068810709D4FFF776FE401B41F29D
:1043F00089318842F5D34FF003086CE72168B06D2E
:1044000021F440710143216065E7B0F1806F04D170
:1044100000F03CF8010018BF80463068410316D513
:10442000FA6FF06C22F040620243FA67F06CB0F170
:10443000006F04D1386840F48010386007E0B0F1B4
:10444000806F04D100F022F8010018BF8046306868
:1044500041040FD5FA6F306D22F040520243FA67E3
:10446000316DB1F1805F05D1022100F010F801003B
:1044700018BF80463068010405D5FA6F706D22F0D0
:1044800080420243FA674046BDE8F6870121301DAD
:10449000FFE72DE9F0410546404F28680C46F968D2
:1044A000002611F0030F0DD0F96801F003018142DD
:1044B00037D1B0B3F8686968C0F30210401C884275
:1044C00013D02EE0012804D02BD3032823D01ED3F1
:1044D00027E03A68910724D5FA68696822F07302E8
:1044E0001043491E40EA0110F860386820F08060EF
:1044F0003860FFF7F1FD80463868010113D5FFF7FA
:10450000EBFDA0EB08000328F6D303263BE0396857
:104510004A05E1D405E039688A03DDD439684A03E5
:10452000DAD401262FE0A96844B93A691C48EB683F
:10453000024042EA012141EAC3610FE0012C3A69DD
:1045400006D12B69174800F031F841EA435105E0E4
:104550006B69154800F02AF841EA4361396138680F
:1045600040F080603860FFF7B7FD0446386801010D
:1045700005D4FFF7B1FD001B0328F7D3C5E7386961
:10458000A969084338613046BDE8F08100000000A9
:104590000C100240007000409010024000100240D9
:1045A000FF80FF07FF809FFFFF80FFF902405B084D
:1045B00042EA01215B1E704762F30F2262F31F4241
:1045C000401810F0030308D0C91A1FD3DB0748BFF7
:1045D00000F8012D28BF20F8022D130030B4144636
:1045E0001546103928BF20E93C00FAD8490728BFF2
:1045F00020E90C0048BF40F8042D890028BF20F8AE
:10460000022D48BF00F8012D30BC7047C91818BFF3
:1046100000F8012DCB0728BF00F8012D70470000DE
:10462000032010B501F039FB0F2001F08BFB0024B3
:10463000002814BF012401F0A7FB204610BD000094
:1046400038B586B0142200216846FFF74BFD364886
:10465000364D0168364C41F004010160026802F0F9
:10466000040205920599026842F080020260036824
:1046700003F0800305930599026842F0010202608D
:10468000036803F0010305930599026842F00202F2
:1046900002600022006800F0020005904FF4005113
:1046A0000598284601F0E6FC002202214FF09040D8
:1046B00001F0E0FC00220621204601F0DBFC4FF473
:1046C000005100F040F8284601F076FB0B2000F086
:1046D00033F8184801F070FB022100F034F84FF075
:1046E000904001F069FB49F6501000F025F84FF0BA
:1046F000904001F061FB062100F025F8204601F012
:104700005BFB4FF4806000210090019102912046F4
:10471000694601F051FB4FF6F83000F00DF82046E5
:1047200001F04AFB07B030BD4C10024000080048C1
:1047300000040048001C0048032100900191002261
:104740000292694670470091012200210291039173
:10475000019269467047000080B53F483F490160BB
:104760004FF482724FF4E061C16042600721C16280
:1047700000234FF48022082183600361436182613A
:10478000C3610362436283620363416301F086FC99
:1047900018B1BDE80140FFF73EBD01BD10B586B0C0
:1047A0000446142200216846FFF79CFC21682B4830
:1047B000814238D12A48416941F4805141614169BF
:1047C00001F4805105910599026842F001020260EE
:1047D000036803F0010305930599026842F00202A1
:1047E0000260A021006800F00200059002220598F6
:1047F000009101920021029103220521049103926C
:1048000069464FF0904001F0D7FA02210191002251
:10481000029201200321009003910522049269462F
:10482000104801F0C9FA06B010BD00680B49884273
:1048300000D0704780B50C48026822F480520260B4
:10484000A0214FF0904001F090FBBDE80440012111
:10485000044801F08ABB00007403002000300140CE
:104860004C100240000400486010024080B53348FC
:10487000334901604FF4E13200230C214260836030
:10488000C360036141618361C3610362436200F0FD
:1048900027FA18B1BDE80140FFF7BDBC01BD18B54E
:1048A0009DB004461422002101A8FFF71BFC5C22E6
:1048B000002106A8FFF716FC2068214988422BD169
:1048C000012206920E9206A8FFF7B8FC08B1FFF786
:1048D000A2FC1C48416941F480414161416901F4F5
:1048E000804100910099026842F0010202604FF499
:1048F000C061006800F00100009002220098019160
:10490000029200210391032207210591049201A93B
:104910004FF0904001F050FA1EB010BD00680849F9
:1049200088420AD10848026822F4804202604FF4AB
:10493000C0614FF0904001F018BB70478802002022
:10494000003801404C1002406010024080B52648FB
:10495000264900220C2301604260C36042618260EC
:10496000C26101F0FFFD18B1BDE80140FFF753BC83
:1049700001BD10B586B004461422002101A8FFF73E
:10498000B1FB2168194881421DD11948C16841F025
:104990008041C160C16801F08041009100990268C6
:1049A00042F0010202600921006800F0010000905D
:1049B0000322009801910292002103914FF0904050
:1049C00001A901F0F9F906B010BD00680749884255
:1049D00009D10848026822F08042026009214FF0A4
:1049E000904001F0C2BA70472804002000780040CF
:1049F0004C1002405810024080B51E481E4901600C
:104A000000227C23FF2142608360C1600261426119
:104A10008261C26101F06CFE18B1BDE80140FFF790
:104A2000FABB01BD18B597B004465C220021684668
:104A3000FFF758FB2168104A914218D14FF4003318
:104A40004FF40071009316916846FFF7F7FB08B129
:104A5000FFF7E1FB0948016841F4004101600022D1
:104A60000021032001F026F9032001F041F918B0DC
:104A700010BD00008004002000280040901002407B
:104A800018B5ADF5985DADB0044600F08DFC01F0B1
:104A90001AFF00F062F80BA801F073FFFF2001F08D
:104AA000BAFF1C211F4A4C43111904A81C22FEF70F
:104AB0004BF8002018230190009301239DF810204B
:104AC0000A210A2002F057F80020009018230DF167
:104AD000250228210A2002F02EF800200090182339
:104AE0000DF1150246210A2002F025F80A9800F07F
:104AF000AFFC02464FEA01031BA101A802F078F8BF
:104B000000200090182301AA64210A2002F013F863
:104B10000BA801F097FF00F04EFC0DF5985D2EB04C
:104B200010BD00000000002000B5ADF5985DA3B0F9
:104B300000F03AFC01F0C7FE00F00FF801A801F008
:104B400020FFFF2001F067FF01A801F07BFF00F0CC
:104B500032FC0DF5985D23B000BDFF2000900023CE
:104B6000C822C82170470000252E336600000000CF
:104B700038B50446FFF7B0FA14F1010F054602D02C
:104B8000044801786418FFF7A7FA401BA042FAD343
:104B900031BD00BFF80100203B4881B0016841F001
:104BA00001010160026802F00102009200990268AE
:104BB00042F002020260036803F0020300930099CE
:104BC000026842F080020260006800F080000090FD
:104BD000009801B070472C480168490849000160FD
:104BE000026822F002020260016821F08001016087
:104BF000704700B585B01421684600F04DFC4FF6B3
:104C0000FF720092032101910022029269464FF047
:104C1000904001F0D1F869461C4801F0CDF8694692
:104C20001B4801F0C9F869461A4801F0C5F805B0FB
:104C300000BD000038B504461DA0174D00F03CF83B
:104C4000164801F095FA164800F08EF81548FEF760
:104C500085FD154801F0F4FCFFF79EFFFFF7C9FF43
:104C6000FFF7B9FF284602F046F800222146284601
:104C700001F0DEFF0D48016821F4004101600120D0
:104C8000BDE8324000F048BC4C100240000400482F
:104C900000080048001C0048800400207403002025
:104CA0008802002010030020280400200810024081
:104CB00053544F500D0A00000EB4C0B5024603A86D
:104CC00000210190009101AB0121044878440C308F
:104CD000FCF753FF06BC5DF810FB00BF0D2400007D
:104CE00038B5040001D1012032BD04F178056868AF
:104CF00008B900F017F800F01AF808B100F031F820
:104D000000F02CF8012804D000F004F821F02A016A
:104D100016E032BD2068416821F49041416020686E
:104D200081687047002129702046FFF7B8BD242014
:104D3000686020680168490849000160606A70473E
:104D4000816000F004F8BDE8324000F0ECB9206862
:104D5000016841F00101016020467047204600F0E3
:104D60008BB8204600F07CB938B5040001D1012091
:104D700032BD04F178052420686000F014F80020AA
:104D800022681060002123685960216888602046ED
:104D9000FFF7C4FD0020E86000216960A86021667B
:104DA0006066297032BD20680168490849000160C9
:104DB00070472DE9F843054605F150060C46F06AA8
:104DC0002028174699463ED10CB1380001D1012068
:104DD0003AE0002070632121F162FFF77DF937800E
:104DE00080467780A868B0F5805F04BF28690028F6
:104DF0001ABF204600272746044611E000228021E2
:104E000000F024F8D8B92868002C12BF14F8011B50
:104E100037F8021BC1F3080101857088411E7180BB
:104E200043467088CDF800900028E7D10022402149
:104E300000F00CF818B92020F062002004E02020D7
:104E4000F062032000E00220BDE8F283284600F073
:104E5000B7B9286800F1080151E8001F490800F1BE
:104E60000803490043E8001000287047286850E80C
:104E7000001F024670470000F8B50446DFF838040A
:104E800022681368A168034020690B4361690343EA
:104E9000E0690B430343136000255168E06821F487
:104EA000405101435160A3696C498A421CBF206A8A
:104EB00003439668DFF80474DFF8040426F43066D0
:104EC00033439360BA424FF40043DFF8F86332D1C2
:104ED000366806F00306032E3BD8DFE806F00274BE
:104EE00061760127E169B1F5004F4FF6F07640F0A9
:104EF0008C805FB1012F00F08080022F0AD0042F38
:104F000000F07E80082F00F07E80A0E000F049FED7
:104F100000280FD061684A0802EB4002B2FBF1F0B2
:104F2000A0F11001B142F0D20640C0F342000643A6
:104F30002068C6608CE0DFF89073BA4221D13668F1
:104F400016F00C063DD0042E3DD0082E28D00C2E95
:104F50003BD010278A42C5D137B1022F08D0042F89
:104F600035D0082F36D072E000F01BFE00286FD03D
:104F7000626802EB4201884269D3130383422BD259
:104F800065E0DFF84873BA420CD1366816F0300697
:104F900017D0102E17D0202E02D0302E15D0D8E7E3
:104FA0000227D7E78A42D4D1366816F4406608D083
:104FB000B6F5806F07D0B6F5006FF1D0B6F5406F4B
:104FC000ECE70027C6E70427C4E70827C2E700F09C
:104FD0009FFDCBE71846CBE7010E560816EB0020E5
:104FE00069410023FEF73AFAA0F54071DFF8E022AC
:104FF00091422CD22168C8602AE000F0DAFD87E7F0
:1050000000F086FD84E7184684E747B1012F16D0EB
:10501000022F07D0042F15D0082F16D017E000F06C
:10502000C0FDA8B1616800EB5100B0FBF1F0A0F148
:105030001001B1420BD2226880B2D06008E000F0CB
:10504000B8FDEEE700F064FDEBE71846EAE701255E
:105050000020A066E0662846F2BD00000080004007
:1050600090F824100A0706D502685368416B23F4B0
:1050700000430B43536090F82410CA0706D502681A
:105080005368816A23F400330B43536090F8241073
:105090008A0706D502685368C16A23F480330B433C
:1050A000536090F824104A0706D502685368016BD4
:1050B00023F480230B43536090F82410CA0606D5CE
:1050C00002689368816B23F480530B43936090F8DC
:1050D00024108A0606D502689368C16B23F4005336
:1050E0000B43936090F824104A0610D50268536869
:1050F000016C23F480130B435360036CB3F5801FE2
:1051000005D15368416C23F4C0030B43536090F8FE
:1051100024100A0606D501684A68806C22F4002231
:1051200002434A607047F8B5054605F1780400204F
:10513000E0606FF07E47FEF7CFFF06462868016803
:105140000A0711D50097334600224FF40011FFF7EC
:105150007DFE48B1FFF78AFE21F0800100F02CF8B7
:10516000F8D12020606017E0286801684A0717D549
:105170000097334600224FF48001FFF767FE78B1B5
:10518000FFF774FE21F4907100F016F8F8D1FFF7E4
:1051900060FEFCD12020A060002121700320F2BD20
:1051A000202060602021A16000202866002169661F
:1051B0002070F2BD21F4F07142E800100028704721
:1051C0002DE9F041069C05460E4690461F4628688C
:1051D000C1693140B1420CBF01200020404533D1AC
:1051E00014F1010FF3D0FEF777FFC01B844200D308
:1051F00014B90320BDE8F081286801684A07E6D5A4
:10520000C169080704D42968C8690105DFD50DE024
:105210002A6808201062284600F018F805F1780086
:105220000821C160002202700120E3E729684FF4E1
:1052300000600862284600F009F805F17800202196
:10524000C16000220270D4E70020D3E710B500F05F
:105250000EF8FCD100F015F8FCD1016E00F01EF83C
:105260002021C0F8801000220266826610BD01680D
:1052700051E8002F0B4622F4907243E800210029E8
:105280007047016801F1080252E8002F520801F14D
:105290000804520044E8002100297047012909D17F
:1052A000026852E8002F036822F0100243E8002150
:1052B0000029F5D170470000F369FFEF0038014085
:1052C0000024F400881002400044004000480040E0
:1052D00000FD0F000022FFE702214FF0904000F098
:1052E000C9BE18B53848394C85B000F04FF80022D7
:1052F000006800F0020000900621009B204600F0AC
:10530000B9FE00F00FF8062100F011F8204600F079
:1053100053FD4FF4806000210090019102912046DE
:1053200069462FE0142200216846FEF7DBBE00919B
:10533000012200210291039101926946704718B53C
:105340002148224C85B000F021F81422006800F0BA
:10535000020000900021009B6846FEF7C3FE062174
:10536000009103220021029101926946204600F03B
:1053700023FD4FF4806003210090019100220292EE
:105380006946204600F018FD06B010BD016841F0E6
:1053900001010160026802F00102009200990268B6
:1053A00042F002020260704780B5FFF79AFFBDE845
:1053B0000140FFF7D1B980B5FFF7C1FFBDE802405A
:1053C000034800F0D5BE00004C1002400004004825
:1053D0007403002070B5FFF7B9FA194C194D204637
:1053E00001F049F9FEF706FE7F21284601F0F0FCA6
:1053F0002846FEF768FA64212846FEF79CFA2846FC
:10540000FEF730FB06462846FEF785FA204601F0F7
:1054100047F92846FEF7A2F9204601F011F9B0B28B
:10542000FDF734FF4FF06632074BFDF73DFF0022DA
:10543000064BFDF739FF01F015FD00EE100A70BDB7
:10544000280400201003002066660A400000303F58
:10545000C0F3C75181B1FF2906D0C110400721F028
:10546000E04101F16051704741020CBF40F4E0019E
:105470006FF000410020704700F0004100020AD0A8
:10548000B0FA80FC00FA0CF001F16051A1EB0C5174
:1054900001EBD02140057047002201F017BD00004C
:1054A000DFF89800006800F4C060704710B5DFF8BE
:1054B0008C10B0F5007F086800F4C0601DD1B0F515
:1054C000007F22D00A68DFF87830012060F34A229A
:1054D0000A6032201C68DFF86C204443B4FBF2F011
:1054E000401C00E0401E4A69530501D50028F9D14F
:1054F0004869410509D5032010BDB0F5806F04D07F
:105500000A68022060F34A220A60002010BD086881
:1055100020F004000860704708490B68022262F31B
:1055200002030B60012808490A6842F004020A607D
:105530000FBF30BF40BF20BF20BFE8E70070004072
:105540000402002040420F0010ED00E02DE9FC476E
:10555000050066D0DFF8E876DFF8F466BC68D7F8B7
:105560000C802878C10604F00C0408F0030848D524
:1055700024B10C2C08BFB8F1010F2CD13868810779
:1055800002D5A86900284CD0396808074EBF396891
:1055900071680909286A01F0F001814206D200F021
:1055A00014FB00283DD100F003FA07E000F000FAF8
:1055B00024B9286A00F009FB002832D100F0A8FACB
:1055C000BA6800F094FADFF88006006800F0BAFBD1
:1055D000010016D0E6E1A86928B3396841F001015D
:1055E0003960FEF779FD81463868810707D4FEF7F8
:1055F00073FDA0EB09000328F6D30320D2E100F0ED
:10560000D7F92878C10755D5082C04D00C2C08BF31
:10561000B8F1030F17D1386881034BD568680028AB
:1056200048D10120BEE138684008400000F0D5F9BB
:10563000814638688107E4D5FEF74EFDA0EB0900EE
:105640000328F6D3D9E76868B0F5803F04D13868FD
:1056500040F48030386011E0B0F5A02F386806D1F2
:1056600040F480203860396841F4803105E020F44E
:1056700080303860396821F480213960686860B111
:10568000FEF72AFD81463868810313D4FEF724FD16
:10569000A0EB09006528F6D3AFE7FEF71DFD8146B4
:1056A0003868810306D5FEF717FDA0EB09006528D1
:1056B000F6D3A2E72878810713D5042C04D00C2C4C
:1056C00008BFB8F1020F22D13868410502D5E86859
:1056D0000028A6D07868296920F0F85040EA0160D7
:1056E00078602878010742D56869002870682FD053
:1056F00040F001007060FEF7EFFC804670688107A3
:1057000035D4FEF7E9FC00F04FF9F7D375E7E86808
:1057100078B1396841F480713960FEF7DDFC80466C
:1057200038684105D6D4FEF7D7FC00F03DF9F7D331
:1057300063E7386820F4807000F04FF980463868DD
:105740004105CED5FEF7C8FC00F02EF9F7D354E79B
:10575000400840007060FEF7BFFC8046706881071B
:1057600005D5FEF7B9FC00F01FF9F7D345E7287817
:10577000410767D5B86DC1004FF000080AD4B86D75
:1057800040F08050B8654FF00108B86D00F08050CF
:1057900000900098DFF8BC94D9F80000C10513D43C
:1057A000D9F8000040F48070C9F80000FEF794FCBE
:1057B0008246D9F80000C10506D4FEF78DFCA0EBA7
:1057C0000A000328F5D318E7A868012804D1306837
:1057D00040F00100306010E00528306806D140F04C
:1057E00004003060316841F0010105E040084000EC
:1057F0003060316821F004013160A86841F28939D4
:1058000060B1FEF769FC82463068810713D4FEF769
:1058100063FCA0EB0A004845F6D3EEE6FEF75CFC1D
:1058200082463068810706D5FEF756FCA0EB0A00D9
:105830004845F6D3E1E6B8F1000F03D0B86D20F08B
:105840008050B8652878810621D5686A0028B0683C
:105850000ED040F00100B060FEF73EFC8046B0681C
:10586000810714D4FEF738FC00F09EF8F7D3C4E6A5
:1058700040084000B060FEF72FFC8046B06881070A
:1058800005D5FEF729FC00F08FF8F7D3B5E6A86A36
:10589000002800F0868002286FD1F868EA6A00F0DC
:1058A0000301914201BF00F0700110312A6BB1EB8E
:1058B000021F1DD16A6B00F4FE41B1EB022F02BF43
:1058C00000F07841AA6BB1EBC26F11D1EA6B00F422
:1058D000C00101F500115208B1EB425F08D1296CFB
:1058E00000F0C06000F100704908B0EB416F40D09B
:1058F0000C2C43D0386841013FF593AE00F06AF8B4
:1059000004463868810105D5FEF7E6FB001B032835
:10591000F7D372E6F868DFF84013EA6A0840296BAB
:105920001043491E40EA0110EA6B696B520840EAD5
:105930000120296C521E490840EA4250491E40EAA3
:105940004160A96B40EAC160F860386840F080703F
:105950003860F96841F08071F960FEF7BDFB0446DC
:10596000386881011DD4FEF7B7FB001B0328F7D36D
:1059700043E63868810114D4E7E70C2C3FF451AEBC
:1059800000F028F804463868810105D5FEF7A4FB2D
:10599000001B0328F7D330E6F868DFF8C012084090
:1059A000F8600020BDE8F687A0EB080003287047E8
:1059B000386840F0080038603968286A21F0F00142
:1059C000014339607968E86921F47F4141EA0021A7
:1059D00079607047386820F080703860FEF77CBBD3
:1059E0002DE9F0410400884655D0DFF87462306834
:1059F00000F00700404502D200F06FF84BD120784C
:105A0000DFF83C52810706D5A068A96801F0F001D3
:105A1000814200F076F82078C1072AD56068032813
:105A200002D129688A0108E0022802D129688A0384
:105A300003E00028296802D18A0702D42BE04A0536
:105A400029D5A968890840EA8100A860FEF744FBCF
:105A50000746A868616800F00C00B0EB810F08D021
:105A6000FEF73AFBC01B41F289318842F1D3032093
:105A700031E02078810706D5A068A96801F0F0011F
:105A8000884200F03EF8306800F00700804504D2FC
:105A900000F023F801D001201DE02078410705D552
:105AA000AA68E06822F4E0620243AA60217808074D
:105AB00006D5A968206921F4605141EAC001A960B6
:105AC00000F026F8AA6800F012F8BDE8F0415E4840
:105AD000006800F037B9BDE8F0813168C90848EACC
