:020000040800F2
:10000000A8360020A1D900089DD800089FD8000874
:10001000A1D80008A3D80008A5D800080000000057
:10002000000000000000000000000000A7D8000849
:10003000A9D8000800000000ABD80008ADD800081F
:10004000B9D90008BDD90008C1D90008B1D8000845
:10005000C5D90008C9D90008CDD90008D1D90008F0
:10006000BDD80008D5D90008D9D90008DDD90008C5
:10007000E1D90008E5D90008E9D90008EDD9000860
:10008000F1D90008F5D90008F9D90008FDD9000810
:1000900001DA000805DA000809DA00080DDA0008BC
:1000A00011DA000815DA000819DA00081DDA00086C
:1000B00021DA0008000000000000000025DA000836
:1000C00029DA00082DDA000831DA000835DA0008EC
:1000D00039DA00083DDA000841DA000845DA00089C
:1000E00049DA00084DDA00080000000000000000B6
:1000F0000000000000000000000000000000000000
:100100000000000051DA00080000000055DA000885
:10011000000000000000000059DA00085DDA000865
:1001200061DA000865DA000869DA00086DDA0008AB
:1001300071DA00080000000000000000000000006C
:1001400075DA000879DA00087DDA0008000000009E
:1001500081DA000885DA000889DA00088DDA0008FB
:1001600091DA000895DA000899DA0008000000002A
:100170009DDA0008A1DA000800000000000000007D
:10018000A5DA0008A9DA0008ADDA000800000000CE
:100190000080E07C58484040404040404040404063
:1001A00040404040406060400000000000201008D7
:1001B000869390909292929292929292D2921212EE
:1001C000121213FB1200000000000000000080402B
:1001D00040C0A0A0A09098888C868A8B99D0B0301F
:1001E00060E000FFE0000000008000000000202030
:1001F00020202020202020203F20202020202020E0
:1002000030302001070E3830787F000000000000F9
:100210000000C0703C28202020202020202020200A
:1002200020202020A0203020000000000000201806
:10023000848389888889898999B9E989898989899B
:10024000C98989F9FD0900000000000000000000D4
:100250000000001030383C96935270301C8CC8E07F
:100260004000001FFF8000000000000000000008A8
:100270004844442422221111080C040603050C18DA
:1002800038700000010F1C387C7300000000000073
:1002900000C0F830100080800000E0E02020202026
:1002A000E0E020202020F0E0200000000000C0302E
:1002B0003E27E1E1212131210100FFFF0808080864
:1002C000FFFF08080808FFFF000000000001040409
:1002D0000404FFFF0404040604404F474242424224
:1002E000FFFF42424242674700000000000000005A
:1002F00000000F1F0C06031110101010101010102A
:100300001F1F10101010101818100000000000001F
:1003100000C0FCB88880C0C08000800000000000E1
:1003200000FCF80800000000800000000080403859
:100330001E1310F010101818100000FF0101010129
:1003400001FFFF010101890703010000000004040F
:10035000040404FF040404068604F87F01010F313D
:10036000C10181C1791F07010000000000000000E9
:100370000000081F0C064231584723202010180C9B
:100380000507070D0C183830301000000000101061
:1003900010D0F0101010100000F8F0101010F8F04D
:1003A0000000F010101010F8F0100000000000C065
:1003B000FCFF212020F0200000FFFF080808FFFFBD
:1003C0000000FF08080808FFFF0000000004030108
:1003D000FFFF808080FF0000C0FF07020202FFFFD6
:1003E0000080FF02020202FFFF0000000000000088
:1003F0000F0700004021100C0300040408185F23BD
:10040000180701001010303F0F000000004040406E
:100410004040C0C0404040604000F0F0000000009C
:10042000FCF80000000000F00000000000000000E8
:10043000C0F87F434040E04040404347E2FE4A422C
:1004400043C3C242424242476040000000001806D7
:1004500003FF00000000FF000080F03E47703800FE
:10046000C07F1FE0402018180000000000000000BE
:10047000100F01014121130E0643402010180C07F4
:100480000100000003061C383010000000000000CE
:100490000080E07C382820202020202020202020E0
:1004A000202020A0A0303020000000000010080410
:1004B000030584E405050585FD3505058545752598
:1004C000050505FF050100000000000000000020F8
:1004D000202111D0080C0603F1F18183C6446C5829
:1004E0003000007FFC800000000000000000404061
:1004F0004026272110180C0F030404040C18183090
:100500007000000001070E1C383F000000000000D2
:100510000080E07C3C28202020202020202020205B
:10052000202020A020303020000000000000100C0F
:100530000601080868C98909090909F96909090949
:10054000090909FD0900000000000000000000008A
:1005500002121212121312FEFE121312121A138337
:10056000800000FFF000000000800000000001019A
:10057000010101010101017F3F01010101010101AF
:1005800001010000030E1C38303F00000000000095
:100590000080E0389E9494909090909090909090ED
:1005A0009090D0901010181810000000000008065D
:1005B0008385848484F4F4848484F484848484C46B
:1005C000840404FE0400000000000000000000009D
:1005D000E0FC444444FFFF444444FF4444444F4748
:1005E000E040007FFC0000000080000000000040B0
:1005F000402010180C07000000003F000008181FE2
:1006000007000000030F1C30787F0000000000008E
:10061000000080F07E3C242020202020202020206C
:10062000202020A0A0303830200000000000201042
:100630008C8689888989898989898989C9890909EB
:100640000909FDF9010100000000000000000000A0
:10065000000000C0FF1F00000000181F1310F0F87A
:1006600010003FFF800000000080000000004020DC
:1006700010080603000000000810107030381F0337
:1006800000000001071C18303C7F00000000000043
:1006900000C0FC3800000080800000000000000066
:1006A00000FCF8000000000000000000008060185E
:1006B0001E17F1F111111919110100FE02020202B7
:1006C00082FF7F82020202FEFF0200000004040497
:1006D0000404FFFF04040404860400FF8040301C6F
:1006E00007010000030E1CFFFF00000000000000D7
:1006F00000001F1F0C0602010000007F0000000028
:10070000000000001010303F3F000000000000001B
:1007100000C0FC988880C0808080808898F0A0808D
:100720008080F09C888880C0800000000080601875
:100730001E13F0F01010181810001010101010FFF9
:10074000FF101010101810008000000000000404BA
:100750000404FFFF04040607252121212121E1FDD6
:100760003DE1212121213131210100000000000063
:1007700000000F1F04024141202010180C06030046
:10078000000003060C18307020202000000000003C
:100790000080F8BC888080C0C0800000F0F010109D
:1007A000101010101010F8F0100000000000601879
:1007B0001E13F0F010101018100000003F1F080862
:1007C0000808080808083F1F000000000000040493
:1007D0000404FFFF040404068604FEFC040404046D
:1007E00004040404040404FCFE04000000000000EF
:1007F00000000F1F0C06020100003F1F0404040448
:10080000040404040404041F1F000000002020202E
:100810002020A0E060202020302000000000000008
:10082000FCFC0800000080800000000000000000C8
:10083000C0F8DF434040C0E04040414141414141B8
:100840007F7F4141414141416140000000100C0760
:1008500001FFFF000000FFFF0000202020202020DB
:10086000FFFF222020203030200000000000000088
:10087000001F0F01010107171010101010101010A9
:100880001F1F101010101010181000000000202062
:100890002020E0602020303020001030E00000FCFC
:1008A000F808008060381000800000000000008020
:1008B000F0FF232020F0E0A14141E191090703FF6F
:1008C0007F010709D9B1B1612121000000040201B3
:1008D000FFFF000000FFFF402018E74584E43E04CE
:1008E000C4F40404FFFF04048400000000000000BE
:1008F0001F1F01010107232010080403010000014C
:10090000030101017F3F01010101000000002020DF
:100910002020E0E0202020306040404040404CD883
:1009200078404040404040606040000000000000CF
:10093000E0FC2F212020F0E00000E0706864232319
:10094000212020222C3878F0000000000008040349
:10095000FFFF80808080FFFF0000C1FE020000FEDC
:10096000FE000000FEFC000080000000000000000F
:100970000F07000040402331180C07010000001F42
:100980001F0000003F3F30303F38100000000000E3
:100990000080E0381E949490909090909090909069
:1009A00090909090D090181800000000000008046B
:1009B000030124242424242424242424E4E42404DB
:1009C000040404FE04000000000000000000000811
:1009D000082868E9C9090909F9F989090F8F486CDC
:1009E0004C0000FFF80000000000000000000008BC
:1009F000180C0C04131231713F1F00010302060C86
:100A00001C000001070E1830387F40000000000075
:100A1000000080E07C58484040404040404040401A
:100A200040404040404060604000000000402010D6
:100A3000080613111012121212121212121292122E
:100A4000121212FB1B020000000000000000000157
:100A500031E1C10101FFFF010101FF010101E139A4
:100A6000180000FFE00000000080000000101010DF
:100A700010111310101F1F1010101F101211101042
:100A800010181811070E1C387C7F000000000000B1
:100A90000080F8BC88808080C08000E0202020207A
:100AA00020E0E020202020F0E00000000080403026
:100AB0001E1311F010101818100000FF1010101065
:100AC00010FFFF10101010FFFF00000000000404D2
:100AD000040404FF040404048604083F080808080A
:100AE00008FFFF080808081F1F00000000000000A2
:100AF0000000001F0C0603010000000000000000C1
:100B0000007F3F0000000000000000000000000027
:100B100000C0F8BC88808080C090101010101010A9
:100B200010F0F0101010101018100000008040306D
:100B30001E1311F01010101810000000FF0100002B
:100B400000FFFF0404040604000000000000040489
:100B5000040404FF04040404868400020702020261
:100B6000020303020202C2FF0200000000000000B4
:100B70000000183F0C04020100000000000000000B
:100B80000010103070303F0F000000000000000027
:100B900000C0FCB888808080C0800000000004088D
:100BA00078F02000000000808000000000806038A5
:100BB0001E13F0F01010101810010101F1E12121B5
:100BC000212121F1F12101010101000000000404B3
:100BD0000404FFFF0404040486040000FF7F0000F7
:100BE000000000FFFF000000800000000000000087
:100BF00000000F1F0C06424120180C0701000000E6
:100C00000000003F3F2030303F381000000000005F
:100C10000080F0BC88888080C0C00000000000FC1C
:100C2000F8080000000000000000000000804030D4
:100C30001C1711F0F010101810080808080808FF19
:100C4000FF08F8080808080C0C080000000004045D
:100C5000040404FFFF0404048606000080E0FE0F85
:100C60000000033EE08000000000000000000000E3
:100C70000000081F0F46422110180C060301000354
:100C8000061E080001070F3C38101000000000008D
:100C900000F0FC98808080C0800000F0E0202020E0
:100CA000202020F0E0000000000000000000C0381C
:100CB0002F23E0E020203020000000FFFF1020C0A4
:100CC000C00000FFFF00000000000000000104045D
:100CD0000404FFFF040404860604C0FF1F00000094
:100CE000070300FFFF000000C0000000000000003C
:100CF00000001F3F0C064320180E070100000000F3
:100D00000000001F3F3030303F180000000000009E
:100D100000C0F8381000008000000000C0F89C8877
:100D20008080808080C08000000000000000C03013
:100D30003E27E1E1212131212120180E030418B0C2
:100D4000C0F0B80E0701000000000000000104041C
:100D50000404FFFF04040406141008F8F41213112D
:100D60001010111317FEFE0C0C0400000000000010
:100D700000001F1F0C0602010000007F3F0808084A
:100D800008080808083F1F000000000000000000DD
:100D900000C0F8BC888080C0C00010101010101077
:100DA00090109090503038300000000000806018A3
:100DB0001E13F0F0101018181004040484848484A6
:100DC000FFFF0404040404040604000000000404FB
:100DD0000404FFFF040404068400F8F80808F9FB83
:100DE0000B09F8F80808F8F80000000000000000FF
:100DF00000001F1F0C06022120203F3F20203F3F04
:100E000020203F3F20203F3F203000000000000016
:100E100000E0FC98888080C0C00000E0F020000066
:100E2000FCF80800000000000000000000806018CE
:100E30001F13F0F01010181810601C0703020202B4
:100E4000FFFF02020202030302000000000004048C
:100E50000404FFFF04040406840202020282E27A10
:100E60001F031EE2820202030302000000000000D2
:100E700000001F1F0C0643212010180C0603010060
:100E800000000000030E1C3830300000000000009D
:100E90000080F8BC88808080C080000000000000D6
:100EA000FCF8080000000000000000000080403056
:100EB0001E1311F01010101810020202020202029A
:100EC000FFFF02020202020303020000000004040A
:100ED000040404FF0404040406840001FE02020268
:100EE000030302020202FFFE0000000000000000F7
:100EF0000000081F0C060201010000007F0808081E
:100F00000808080808083F3F000000000000000033
:100F10000080F838080080800000F0E02020382CA5
:100F20002020202020F0E020000000000000C03041
:100F30003C27E1E1212131210100FFFF12121212B1
:100F40001212121212FFFF00000000000001040440
:100F50000404FFFF040406161410131391F171FF2B
:100F6000FF157191111313101810000000000000FC
:100F700000000F1F0C062211180804030100007F57
:100F80003F00000103060C1C1808080000000000C8
:100F900000C0FCB8888080C08000F0F010101010F5
:100FA00010101010101010F0F010000000806018E9
:100FB0001E13F0F0101018100001FFFF0202E2E211
:100FC000222222F2E30302FFFF00000000000404DB
:100FD0000404FFFF040404068400FFFF0000FF7FF9
:100FE0001010107F7F0000FFFF00000000000000D5
:100FF00000000F1F0C06030100007F3F00000000EF
:10100000000000101030703F1F00000000000000C2
:1010100000C0F8301000008000008080808084983C
:10102000F8F080808080C080000000000000C030A8
:101030003C27E1E121213131010000000418F86072
:101040000000C03C0E040080800000000001040489
:101050000404FFFF0404040684014141414141416D
:10106000FFFF4141414161610101000000000000BA
:1010700000000F1F0C06030100000000000000002C
:101080007F3F0000000000000000000000000000A2
:1010900080F0FC8880C0C0800080E0404040404438
:1010A00078784040404040C0E04000000040201CB4
:1010B0001711F0F01018181002030B0888C8B83880
:1010C0001808080888CCCA010000000000000404C9
:1010D0000404FFFF0404060402422111180C87C314
:1010E00066FEF20D71C080000000000000000000EC
:1010F00000081F0F0602011010080404021311302B
:10110000703C1F00000103070E04000000000000F7
:1011100000E0FC988880C080000080808080FCF81F
:101120008080C08080E0783000000000008060187F
:101130001F13F0F0101818102020202020203FBF8F
:10114000E070382E272120203820000000040404FD
:101150000404FFFF0404864644201018FCFE878523
:101160008484848484FEFE040000000000000000EB
:1011700000001F1F0C040201000000007F3F101040
:1011800010101010107F3F00000000000000202011
:101190002020E0E02020203020008000000000001F
:1011A00000FCF800000000008000000000000000CB
:1011B000C0FCFF232020E0F0200000FF414141411E
:1011C00041FFFF4141414141FF01000000100C037C
:1011D00001FFFF000000FFFF000000FF2020202093
:1011E00020FFFF20202020207F00000000000000C2
:1011F000001F1F01010107070000000000000000A0
:10120000007F7F0000000000000000000000404060
:101210004040C0C040406060401010101010F0F01E
:101220001010F0F010101018100000000000000066
:10123000E0FC2F212020F0200000F8080808FFFF24
:101240000808FFFF080808FC0800000000100C0355
:10125000FFFF00000000FF000000FF8040380F008B
:1012600000003F3F303020FF000000000000000081
:101270003F1F020202020F0000007F080808080852
:10128000080808080808083F0000000000000000E7
:10129000001030E0C000000000E0C0404040705C42
:1012A0004840404040C0E0400000000000000818F6
:1012B0007070000001E01C0300FFFF24242424249C
:1012C0002424242424FFFF000000000000004040EC
:1012D00040C0E07C07002020202F272222E2FE3E93
:1012E00062A2262A3A3F273030200000000000008A
:1012F000003F3F00004040202010180C0703000072
:101300000001030C1C1830702020000000000000B9
:101310000000C070BCA8A8A0A0A0A0A0A0A0A0A0F1
:10132000A0A0A0A0E0A03030200000000020108885
:1013300086838584848484F4F4A484848484C4C4EB
:10134000840404FEFE040000000000000000000011
:101350000000FC444444C44747C4C44444FCFE0465
:101360000000000FFFC000000080000000000040EF
:1013700040202010180F0300001F3F2020202020B5
:10138000303F300001070E1C383F00000000000015
:1013900080F8B88880C0C0800000FCFC0800000015
:1013A0000080000000000000800000000040301CB1
:1013B0001310F0101018100404F4FF050404FE1EAE
:1013C00004FFFF01010101FFFF0100000000040410
:1013D0000404FF0404060684387F4080C0FF0F0029
:1013E00000FFFF00000000FFFF0000000000000001
:1013F00000081F0C06422120100806030103071EE7
:10140000001F0F010101010F070000000000000094
:1014100000E0FC98888080C0800000F0F010101080
:1014200010F010101010F0F810000000008060188C
:101430001E13F0F010101810000000FFFF828282CF
:1014400082FF82828282FFFF00000000000004040D
:101450000404FFFF040404860400C00301F0F0004C
:101460000418780000000361C08000000000000044
:1014700000000F0F0602010006070300000F1F18EF
:1014800010101010181F18080303000000000000BF
:101490000080F87C080800008080002020202020A8
:1014A00020202020A0E070200000000000008070BC
:1014B0003C2721E1E12121313121010000000080A0
:1014C000E0781C0F0300000000000000000205048B
:1014D000040404FFFF040404040604C0F03C0F03EA
:1014E00001000000000000C000000000000000003B
:1014F0000000001F3F0C04020101000F1F183030D4
:10150000303030303030303F1E0800000000000026
:1015100000C0FC988880C0C0800000C0E04000008F
:10152000FCF8080000000000000000000000603827
:101530001E13F0F01010181090E09C8783828282B6
:10154000FFFF8282828383C2C08000000000040407
:101550000404FFFF04040406040000F8F808080867
:101560000808080808F8FC08000000000000000057
:1015700000001F1F0C0402020100007F3F08080842
:1015800008080808087F3F00000000000000000075
:1015900000C0FCB8888080C0800000F0F0101010FF
:1015A000101010101010F0F81000000000804038EB
:1015B0001E13F0F010101818100000FFFF0404E4D0
:1015C000C444040404041F8F00000000000004044D
:1015D0000404FFFF040404068604F07F030000FFF8
:1015E000FF1018080406030381000000000000003B
:1015F00000000F1F0C064321180E03000000001FFF
:101600003F303030303030303F10000000000000FC
:1016100000C0FC7818000000800000F0E0202020CE
:1016200020202020202020F0600000000000C0705A
:101630003C27E1E121213131210101FFFF10101090
:1016400010101010101010FF000000000001040422
:101650000404FFFF04040404060404FFFF08080850
:1016600008080808080808FF000000000000000043
:1016700000001F3F1C0C06030100007F3F08080804
:10168000080808080808083F0000000000000000E3
:1016900000E0FC988880C0C0800000FCF888888842
:1016A0008888888888F8F808000000000080603882
:1016B0001F13F0F010101818108080BF9F888888C2
:1016C00088888888889FDFC08000000000000404AC
:1016D0000404FFFF0404060694101050D09010106C
:1016E00010101010FF101010181000000000000063
:1016F00000000F1F0C060301000000000007070098
:10170000101030703F0000000000000000000000DA
:101710000080F8BC88888080C0C0802020202020E5
:101720002020202020A0E070600000000000C030D9
:101730001C1711F0F0101018181000000000000025
:1017400000FCF81C0201000000000000000004047E
:10175000040404FFFF0404040686040000000000E3
:1017600000FFFF000000000000000000000000007B
:101770000000001F1F0C06030100000000101010E5
:10178000307F3F000000000000000000000000006B
:1017900000C0F8BC888080C080800000000000FC91
:1017A000080080800000C0F0600000000080403031
:1017B0001E1310F010101818504041414141417F54
:1017C00041C1E1795D4743606040000000000404CE
:1017D000040404FF040404068644203010F8FC8648
:1017E0008341402030181810000000000000000065
:1017F0000000081F0C06030100000000003F3F30FE
:10180000303030303030303C3F10000000000000FD
:101810000080F8BC888080C0C08000F0F0101010FC
:1018200010F010101010F8F0100000000080603070
:101830001E13F0F010101018100000FFFF00000041
:1018400000FF00000000FFFF000000000000040493
:101850000404FFFF04040404060408FFFF0101015F
:101860000101010101010703C000000000000000A8
:1018700000001F3F0C0602010100001F3F30303006
:1018800030303030303030303F1800000000000081
:1018900000C0F8BC888080C0800008F010101010D4
:1018A0001010101010F0F810000000000000603060
:1018B0001E13F0F010101818100000FF84848484A8
:1018C0008484848484FFFF0000000000000004047E
:1018D0000404FFFF04040406040000FF00000007E6
:1018E00038E0C0203011190C0E000000000000008C
:1018F00000001B3F1C0C06020100207F301808046A
:10190000020003070E1C1838301010000000000001
:1019100000E0FC988880C0C08808084888888888CB
:101920008888888888C8880C080000000040201833
:101930001713F0F010101810008080A09F8888887E
:1019400088888888889F9080C080000000000404F8
:101950000404FFFF0404060400FFFF4040467C58D7
:10196000C0E0584E604040FFFF0000000000000053
:1019700000001F1F0C060201007F3F000000000056
:101980001F1F00101010307F1F000000000000001B
:1019900000C0FC9C888080C08000F0F01010101007
:1019A00010909010101010F0F818000000806038AF
:1019B0001E13F0F0101018100001FFFF202020204F
:1019C00020FF2120303020FFFF0000000000040431
:1019D0000404FFFF040406060400FFFF000080600B
:1019E0003F0F0818F0E000FFFF00000000000000BB
:1019F00000001F3F0C06020100007F3F0C0B08088F
:101A0000080808080809087F3F00000000000000DF
:101A100000E0FC98888080C0800000FCF80808087E
:101A20000808080808F8F810000000000080601896
:101A30001E13F0F0101018100000007F3FD1F1517C
:101A400011111111113F3F0080000000000004043B
:101A50000404FFFF0404040614100C864331190F1C
:101A600007C1713D0F0101FF3F01000000000000B0
:101A700000001F1F0C0603010241212010080C0664
:101A80000311103070303F0F000000000000000014
:101A900000E0FC98888080C080000000041870205E
:101AA000000080703C08008000000000008060188A
:101AB0001E13F0F010101818000101F1612121210E
:101AC000FFFF212121217F7F01000000000004048D
:101AD0000404FFFF0404060684040E0F84C4743C4F
:101AE000FFFF040404040404FE04000000000000DE
:101AF00000000F0F0602211110080402030000006D
:101B00007F7F000000020207030000000000202089
:101B10002020A0E0202020303020404040404040A5
:101B20004C787040C04060604000000000000080C1
:101B3000E0FCCF434040E0C0C0C0F8101010131EBE
:101B4000109090181713115038100000000806016B
:101B500000FFFF000000FFFF000000FCFC04040485
:101B600004FF04040404FCFC00000000000000006A
:101B7000000F0F01010107030000000F0F0000001C
:101B8000007F0002040C0F0700000000000020206E
:101B90002020E0602020302040C0808080FCF88839
:101BA0008080FC88808080C0800000000000008071
:101BB000F0FF272020F0200000FFFF4040FFFF4003
:101BC0004040FF404040FFFF0000000000080603C7
:101BD000FFFF000000FF0020203F3F20A0BF3F206C
:101BE00020203F2020203F3F202000000000000058
:101BF0001F0F01010107402010180C06030301000C
:101C00000000000102060C1C78200000000000000B
:101C1000000080E07C584840404040404040404008
:101C20004040404040406060400000000080402054
:101C3000180E1711101212D29292121212121212C0
:101C4000121212FB1302000000000000000000004E
:101C500000FCFC00000000FFFF0000000000FC088A
:101C6000000000FFF800000000000000000000007D
:101C7000103F1F101010101F1F10101010103F00E9
:101C800000000000030F1C30787F000000000000FF
:101C900000C0F8B88880C0C08000000000C0F8BC58
:101CA00088808080C08000000000000000806018F4
:101CB0001E13F0F010101810804030FCE723202095
:101CC000E0F02C272121F0E02000000000000404B7
:101CD0000404FFFF04040406840000FFFF1010103A
:101CE0001F1F101010103F3F800000000000000078
:101CF00000001F1F0C0602010000001F3F303030A3
:101D000030303030303030303F1000000000000004
:101D100000C0FCB8888080C0800008F0101010104F
:101D2000101010101010F0F8000000000080601873
:101D30001E13F0F010101818100000FF0000000033
:101D4000FFFE02000000FFFF00000000000004048E
:101D50000404FFFF040404068604003F000000C0E2
:101D6000FF1F800000003F3F000000000000000057
:101D700000000F1F0C06424120201010080C070322
:101D80000000000103060E1C783000000000000077
:101D900080F8BC8880C08000800408387000000093
:101DA00020202020202020E0F02000000040301ED5
:101DB00013F0F01018180001FF0108C8C84848FFC8
:101DC000FF484848EC4810FFFF00000000000404F2
:101DD00004FFFF0404060408FF00003F3F91DEFFFC
:101DE000FF549392BF0000FFFF00000000000000BE
:101DF000001F3F0C040201003F0004020301000F1A
:101E00000F0000111330703F1F00000000000000A1
:101E100000C0FCB8888080C0808080808080808402
:101E200098F8B080808080C0C0800000008060385A
:101E30001E13F0F010101818100000F0E020202001
:101E400020FFFF20202020F0E020000000000404FC
:101E50000404FFFF04040406860400FFFF000000E2
:101E600000FFFF00000000FFFF0000000000000076
:101E700000000F1F0C060301000000030300000018
:101E8000007F3F0101010703010000000000000086
:101E900000C0FC3808008080808080808498F880B2
:101EA0008080C0B09C8880C0800000000040201866
:101EB0001713F1F111191911000418700000FF0037
:101EC0000000FFFF20100C0C840000000000040440
:101ED0000404FFFF04040605010101F989898989C9
:101EE0008989898989F9FD09010100000000000044
:101EF00000081F1F0C0203010000007F10101010CB
:101F000010101010107F3F000000000000000000C3
:101F10000080F8781800000080000000000000E059
:101F2000FC180800000000000000000000804030A5
:101F30001E17F1F1111119191111101010D0FC1FF9
:101F40001110101090F03018181000000000040458
:101F50000404FFFF04040404864400003C2F4140B5
:101F60008080C0F83F030000000000000000000077
:101F700000000F3F0C060241402020201018080CE2
:101F80000603010103060E1C3800000000000000DB
:101F900000C0F8BC888080C0C08000F8F01010102D
:101FA0001010101010101018180000000080603879
:101FB0001E13F0F010101818100000FFFF000000B2
:101FC000FCFC04040404FEFE040000000000040401
:101FD0000404FFFF04040406060400FFFF000000E1
:101FE0007F7F101010107F3F0000000000000000F5
:101FF00000000F3F0C0602010100103F1F101010DF
:102000001010101010101018181000000000000020
:102010000080F0FC9888808080C0C08000000000B4
:10202000008080E070381808000000000000806028
:102030003C171110F0F010101818100000080402DE
:10204000030180C0E0703818100000000001020297
:1020500002020202FFFF0202020283431208080486
:102060000603010180C070381C1810000000000039
:10207000000000001F1F0C0603414020201018081C
:102080000C06030301000000000000000000000037
:1020900000C0FC988880C0C0808080808080C0F8AC
:1020A000BC888080808080C0C08000000080603854
:1020B0001E13F0F01010181000804020F8FE1310CE
:1020C000101010101010F0F81000000000000404B0
:1020D0000404FFFF0404040685010000FFFF212122
:1020E000212121212121FFFF00000000000000002C
:1020F00000000F1F0E020301000000007F3F0000E0
:102100000000001010307F3F0000000000000000C1
:102110000000E0FC38080000008080000000F8F8B3
:10212000080000000000000000000000000000C0E7
:10213000382E2321E1212121313121010000FFFF2F
:102140000000000000000000000000000002050484
:1021500004040404FF040404040406840000FFFFD4
:102160000000000000000000C000000000000000AF
:10217000000000083F180C060201010000000F1FBC
:1021800018181818181818181F0C00000000000064
:1021900000E0F8988080C0C08000000000000000CF
:1021A0000000FC0808081070600000000080601843
:1021B0001711F0F0101018100004041424E4C48463
:1021C0000404FFFC040404040604000000000404EA
:1021D0000404FFFF04040486E40000FEFC00010088
:1021E00010E0C33FF080000000800000000000000D
:1021F00000001F1F0E0201060300003F3F30303079
:102200003F11030001071E383C7F00000000000062
:1022100080F078180080800040404040C040445822
:10222000784040C040406060400000000040301CEA
:102230001711F1F11119191100F8F888888F8E889B
:10224000F8A88E89C98808FCF80000000000040482
:102250000404FFFF0404060400FFFF0000F8F80870
:102260000F0808FC080000FFFF000000000000004D
:1022700000081F0F06020100003F3F000007030196
:10228000010101131030703F0F000000000000003A
:1022900000C0F8B888808080C08000000000000086
:1022A000FCF808000000000000000000008060381A
:1022B0001E13F0F010101018100000C0FC000000F9
:1022C000FFFF008040301C0F0600000000000404E7
:1022D0000404FFFF04040404068401010180E07E7D
:1022E0001F000F78E08000000000000000000000E8
:1022F00000000F1F0C0642412130180C060301009C
:102300000000000001070F1C38181000000000003A
:1023100000C0FCBC888080C090101010F0F010103D
:102320001010101010F01018181000000080603805
:102330001E13F0F01010181810000000FFFF040426
:102340000404040404FF0000000000000000040472
:102350000404FFFF0404040606040000FFFF01015B
:102360000181818181FF80806040000000000000C9
:1023700000000F1F0C060201010201010101010111
:1023800001000000007F00000000000000000000CD
:1023900000C0FC9C8880C0C080000020202020203D
:1023A000F0F0101018181C180000000000806038B1
:1023B0001E13F0F010101810000008080808080894
:1023C000FFFF0808080C0C080000000000000404CF
:1023D0000404FFFF04040406840202020282623E37
:1023E0001B030222C282020303020000000000005D
:1023F00000000F1F0C06020100083C1E1B09080804
:1024000008080808080B0F3E180000000000000034
:1024100000E0F838000080800000202060A0202C20
:10242000383820E0A0303020000000000080601824
:102430001F13F1F111191911000808C8C8494F48B4
:1024400048484E4B48C8E84C0C0800000000040403
:102450000404FFFF040406060400003FBF9212328A
:10246000D2921212123F3F00000000000000000054
:1024700000001F1F0C060301181E00001F3F212033
:1024800020232120303C11021E0C0000000000001F
:1024900000C0FC1800008000000000C020181C10C4
:1024A000109070381000008000000000008040385C
:1024B0002E23E1E1212131210502FFFF898989894C
:1024C000FFFF89898989FFFF0100000000000404E3
:1024D0000404FFFF04040404040405F5E424242494
:1024E000242424242424F5250604000000000000F0
:1024F00000081F0F040202010000007F3F111111AC
:102500001111111111117F000000000000000000E6
:1025100000C0FC7818000080800000000000E07C13
:1025200018688000000000000000000000804030BB
:102530001E17F1F111111919914120584C474140D2
:10254000404041436E5C787070202000000004041D
:102550000404FFFF04040407840004F808080808C2
:102560000808080808F8FC08000000000000000047
:1025700000000F3F0C0603010000007F0808080858
:1025800008080808087F3F00000000000000000065
:1025900000C0F8BC88808080C08080F0E0202020CF
:1025A000202020202020F0F0200000000080603853
:1025B0001E13F0F010101818100000FFFF2020204C
:1025C000202020202020FFFF000000000000040445
:1025D0000404FFFF04040404060408FFFF40404015
:1025E000404040404040FFFF00000000000000006D
:1025F00000001F3F0C0402111110101311101010D5
:1026000010101010101011181C180000000000000D
:102610000080F8BC888080C0C0800020C04040702E
:102620005C48404040E0C0000000000000804030B6
:102630001E1311F01010101810000000FF00000011
:10264000202060E0607F0300000000000000040420
:10265000040404FF04040404064440444F44444476
:1026600044444464644404FCFE0400000000000090
:102670000000081F0C06020100000000000000001E
:10268000001010107070381F0700000000000000DC
:1026900000C0FCB8888080C080808080808080807E
:1026A000FCF888808080C0C0800000000080603816
:1026B0001E13F0F01010181080808086FCB8808007
:1026C000FFFF80E0B88F8680C08000000000040417
:1026D0000404FFFF0404040684000080E0301E07A9
:1026E000FFFF031C70C0800000000000000000001D
:1026F00000000F1F0C060211080403010000000077
:102700007F3F0000000103070604000000000000F6
:1027100080F8B88880C0C08080404060E0F0181821
:1027200010FCF808001060C0800000000040301C61
:102730001711F0F01018181010101010FFFF1010E3
:10274000101FFF101010101B1910000000000404CF
:102750000404FFFF0404068420301018FFFF040265
:102760000100FFFCB01C0703010000000000000096
:1027700000001F0F06020100001010303F1F04046C
:102780000201000003061C38387F00000000000032
:102790000080F8B8888080C08080808080808084BD
:1027A00098F0E080808080C0C08000000000C07091
:1027B0003C27E0E0202030302000000080E0703C2A
:1027C0000FFB00000080C0E0604000000000040437
:1027D0000404FFFF0404062614180C06FFFF000083
:1027E00000011F7AE38100000000000000000000EB
:1027F00000001F3F0C040201010000003F7F180889
:102800000C04020001070F1C181800000000000053
:102810000080F87818000000800000800000008030
:10282000783C08000000008000000000008040307C
:102830001C1713F1F1111119110102FFFF01010120
:1028400001010101010101FFFF010000000004047A
:10285000040404FFFF040404060404FFFF02020250
:1028600002020202020202FFFF000000000000005C
:102870000000103F1F0C06020100007F7F040404CB
:10288000040404040404043F3F00000000000000AE
:102890000000000000000000C0F07C1828C080008C
:1028A00000000000000000000000000000000080A8
:1028B00080406020505C4E47434040C04040414310
:1028C000466C5830306060E0C040000000000100FD
:1028D0000010105090101010101010FF1010101059
:1028E0001090D09018181000000000000000202068
:1028F0002020202021233F2E2020203F2020203870
:102900002E27212020202030302000000000000051
:102910000010101010101010101010F0F010101007
:10292000101010101018100000000000000008081F
:102930000808080808080808080818EFEF08080839
:10294000080808080888880C0C080000000000002F
:1029500002020202C2723E0F020000FFFF061830A0
:10296000D0880C06030101010000000000002010C7
:10297000080C0603010000101030703F3F000000FB
:1029800000010303060E0C1C0808000000000000F4
:1029900000C0F8BC888080C0C08000C08080808477
:1029A00098F8F08080808080C080000000804030F7
:1029B0001E1311F010101818100C0F0700F8F80073
:1029C000000000000080C483010000000000040437
:1029D000040404FF040404048684000000FFFF08CC
:1029E0000804060603030181010000000000000046
:1029F0000000083F1C06020101000000001F3F30DC
:102A0000303030303030303F3810000000000000EF
:102A100000C0F8BC888080C0C080000000F0F010CA
:102A200010101010F8F0100000000000008040307E
:102A30001E1311F01010101810808060381F030052
:102A4000000000007F7F4040606040000000040400
:102A5000040404FF04040404070400FEFC0404044A
:102A6000040404040404FEFC000000000000000054
:102A70000000103F180C04020100007F7F080808C6
:102A80000808080808083F3F000000000000000098
:102A90000080F8BC888080C0C08000000000081062
:102AA00070E000000080E0C0400000000080403086
:102AB0001E1310F0101018181000800000FFFE0206
:102AC000000000E0FC3F870000000000000004045C
:102AD000040404FF0404060684383F0600FFFFE0F8
:102AE000703C0F03000000073E3C000000000000A7
:102AF0000000081F0C0603211010080C061F3F30B1
:102B00003030303030303F3C10000000000000001A
:102B10000000C0F83818000000008000000000002D
:102B2000FCF80800000000000000000000008060C9
:102B3000382E2721E1E1212131312101000000005F
:102B4000FFFF102060C0C0800000000000010808E6
:102B500008080808FFFF080808080C0C0800000017
:102B6000FFFF0000000001030F0000000000000054
:102B7000000000001F3F1C0C0602010100000000C5
:102B80007F3F000000000000000000000000202047
:102B90002020A0E060202030B0A08080FCFC888055
:102BA000808080FC888080C0C080000000000080A1
:102BB000E0FCDF434040C0E0400000608F0F0000B9
:102BC0000000000FE8F830000000000000080603D5
:102BD00000FFFF000000FFFF00000000010E38E0D2
:102BE000C0F03C0F030000000000000000000000E7
:102BF000000F070101414723201010080C060301B4
:102C0000000307060C1838303010000000000000E8
:102C10000000C0703C2820202020202020202020E0
:102C2000202020A0A02030383020000000002018F4
:102C300004030908C9F9A9A9898989898989C989E0
:102C4000090909F9FD09000000000000000000006A
:102C5000908884434121A2B69C981C366363C1C00E
:102C6000C040401FFFC000000080000000000101C4
:102C7000000000000404080809191B3770600000F8
:102C80000000000001071E38387F0000000000002F
:102C90000080F8BC88808080C080000000000004B4
:102CA0001878F000000000808000000000804030B4
:102CB0001E1311F010101818100001010101FFFF80
:102CC000414141414141C1E1410100000000040492
:102CD000040404FF0404040486040000C0FC3F0153
:102CE000000000000000FF1F0000000000000000C6
:102CF00000000C1F0C06422120180C0703000000E6
:102D000008101070303F0F000000000000000000AD
:102D100000C0FC18000080000080888888888888AF
:102D2000F8F8888888888C88C08000000080403847
:102D30002E23E1E12131310106072424242424003B
:102D4000FFFF0024242424230100000000000808C1
:102D50000808FFFF08080C0C0000FEFE4242424239
:102D6000FEFE42424242FEFE020000000000000061
:102D700000103F1F0C04020200007F3F10101010D3
:102D80001F1F101010107F3F000000000000000007
:102D9000F0FC8880C0C08000F0101010F078101097
:102DA00010101010101010F0181800000040301F04
:102DB00013F0F01018100000FF0020DE030000FEEA
:102DC000FC0404FCFC0400FF0000000000000404FC
:102DD00004FFFF0404060400FF404080C7FC201FDE
:102DE0001F04041F1F0000FF00000000000000007F
:102DF000000F1F0C060201007F0000000100000010
:102E0000000000101030703F0000000000000000C3
:102E10000000F0FC180800000080800000000000A6
:102E200000FCF808000000000000000000008060C6
:102E30003C1F13F1F1111111191141404040404064
:102E400040FFFF404040606040000000000004047C
:102E5000040404FFFF0404040406860400000000C8
:102E600000FFFF0000000000000000000000000064
:102E70000000001F3F0C040613111010101010105A
:102E8000101F1F1010101018181000000000000074
:102E900000E07C18000080001060E08000FCF8007A
:102EA00000FCF80880C07030000000000040301CBA
:102EB0001713F1F1111911058484878D94F7A784F4
:102EC00084C7A7BE9584C4C686040000000004041D
:102ED0000404FFFF040446C4484444444444C4FF7B
:102EE00047C444444446464460400000000000009B
:102EF00000081F0F06024140202010180806030199
:102F0000000003040C1830303020000000000000E6
:102F10000080FC380000008000000000000000007D
:102F2000FCF80800000000000000000000008060C5
:102F30003C27E1E1212131310101FFFE02020202C1
:102F4000FFFF0202020202FF02000000000104046F
:102F50000404FFFF040404068408FFFF04040404BF
:102F6000FFFF0404040404FF000000000000000050
:102F700000000B3F0C06020100007F7F08080808D4
:102F80000F0F08080808083F0000000000000000BC
:102F900000E0F818000080000000000080E0703CB5
:102FA000182840C080000000000000000080403869
:102FB0002E23E1E121312109040406F98B8A8A8A52
:102FC0008A8A8B8AFDFB03060602020000000404C5
:102FD0000404FFFF04040604000024252424242400
:102FE000FCFC2426272233A0800000000000000003
:102FF00000081F1F060201010101011111113171A9
:103000003F0F01010101010101010000000000006A
:103010000080F0BC88808080C0802020202020207C
:1030200020E0E06020202030302000000080403090
:103030001C1311F010101018100000000000C0F058
:103040003CFF33004080000000000000000004044A
:10305000040404FF04040484468460301C07030055
:1030600000FF00000000030E3C38000000000000DC
:1030700000000C1F0E030100010000000000000012
:10308000007F0000000000000000000000000000C1
:1030900080F0FC888080C0C08008F01010101010F4
:1030A000F0F01010101010F8F80000000040201C84
:1030B0001711F0F0101018100000FF0202F2E222C7
:1030C00023232222222222F7E7000000000004042A
:1030D0000404FFFF0404060604FC3F0000FFFF8415
:1030E00084848484848484FFFF0000000000000046
:1030F00000081F0F0642211807010000007F3F084B
:10310000080808080808083F3F0000000000000009
:1031100000F0FC888080C0C08000F0F0101010101B
:10312000101010101010F8F000000000008060383F
:103130001F11F0F0101018100000FFFF4242424231
:1031400042424242424247E7C040000000000404BD
:103150000404FFFF0404868600E07F0300FCFC04F7
:103160000404FCFE040000FF00000000000000005A
:1031700000000F0F024120180703000000070301A1
:1031800001010F1310303C1F000000000000000080
:1031900000F0FC988080C0C080808080808084980F
:1031A000F8F080808080C0C080000000008060183F
:1031B0001F11F0F01010181080808080828CF89021
:1031C0008080E0BC8F8280C0C080000000000404CA
:1031D0000404FFFF04040606040000FCF8080808C5
:1031E0000808080808F8FC080000000000000000BB
:1031F00000001F1F0C0602010000007F3F080808A6
:1032000008080808083F3F00000000000000000018
:1032100000F0FC8880C0C080008084083870000006
:1032200010101010101010F0F8100000008060183E
:103230001711F0F01018180000FFFF040404FC043C
:103240000404FCFC060404FFFF0000000004040466
:103250000404FFFF0404060408FFFF0202C27F0209
:103260000202FFFF020302FFFF0000000000000057
:1032700000001F1F0C060201003F3F040201000076
:10328000000003011010707F3F00000000000000EC
:1032900000E0FC988880C0C0804040404040444CE2
:1032A00078704040404040606040000000806018FE
:1032B0001711F0F0101018100000FEFC04040404B4
:1032C0000404040404FCFE040000000000000404E4
:1032D0000404FFFF0404068604000383C1F11D0FEC
:1032E0000F71C1416123131C100000000000000099
:1032F00000001F0F0602110804060301207F30188A
:1033000008040503060C18383010100000000000F7
:1033100000F0F89880C0C0804040404040FCF84039
:1033200040FCF8484040E0C0400000000040201C45
:103330001711F0F010181000103E1292F27F1F12B9
:1033400012FFFF1212129797F810000000000404F9
:103350000404FFFF040604080404FEFF020202F254
:10336000F203020202FFFE01000000000000000064
:1033700000001F0F060241404020233310180E07A3
:103380000100040C081B3970200000000000000040
:1033900000C0FCB8888080C080800004187870006D
:1033A00000202020202020E0F02000000080603855
:1033B0001E1310F010101818100001FE020000007B
:1033C00000000000000000FFFF00000000000404F7
:1033D000040404FF04040406868400FF00000000C7
:1033E00000000000000000FFFF00000000000000DF
:1033F0000000081F1C0602010100403F0000000001
:10340000000000101010707F3F000000000000005E
:1034100000F0FC888080C0808080808080F8988068
:10342000808080FCF88880C0C08000000080603808
:103430001711F0F01010181040404040404FC0F8F5
:103440005C4C484F4740406060400000000004046E
:103450000404FFFF0404068604806030FCF71310A8
:103460001010101010F0F810000000000000000014
:1034700000000F0F06030102010000007F3F080853
:1034800008080808087F3F00000000000000000056
:10349000C0FC988880C0C0804040404040FC48400C
:1034A000404040FCF8404060604000000040301E5A
:1034B0001310F0F01018180080E0F0101413F0D082
:1034C000501010131310D0783810000000000404BE
:1034D0000404FFFF040406040105040404C4FF1FE0
:1034E0000404040404FCFE040000000000000000CA
:1034F00000081F0F064241212010180C0701000090
:1035000000101070381F0F000000000000000000C5
:1035100000E0FC9C80808080C080000000000000F3
:1035200000FCFC40404040406040000000806038AB
:103530002F23E0E020203030200000FCFC080808A9
:10354000080F0F08080808FCFC0000000004040431
:103550000404FFFF04040406060000FF7F040404C3
:10356000040404040404040F0F0000000000000021
:1035700000003F3F1804024130180F030000000014
:10358000000000000000000000000000000000003B
:1035900080F8BC888080C080000000FCFC04000033
:1035A00000000000FCF80000000000000080603C0B
:1035B00027E1E02020303020040484FFFF84022330
:1035C00060602020FFFF20203020000000040C0459
:1035D00004FFFF0404040684601807FFFF00030FC4
:1035E00004000000FFFF00000000000000000000D9
:1035F000003F3F0C04020100000000FF7F000010AC
:10360000101010101F1F10101818000000000000EC
:1036100080F8BC888080C08000206020202020208E
:10362000FCFC202020202020200000000080603CA6
:103630002721E0E020303830200000FAF212121288
:10364000131312121212FBFA0000000000040C0403
:103650000404FFFF04040404002020A121233D39B9
:10366000212121392F2521E13030200000000000E8
:1036700000103F1F0C0603010000007F7F21212165
:10368000212121212121217F0100000000000000D3
:1036900080F8BC888080C0C0000018F06000008006
:1036A00080000000FCFC0000008000000080603C06
:1036B0002721E0202030382004187800F00E00FF89
:1036C000FF818181FFFF81818703010000040C04D9
:1036D0000404FF04040404040020F01E010080FF21
:1036E0000F000FF0C0E07C1F010000000000000090
:1036F00000103F180C020100001E1F40300C472034
:1037000020100C0603071C38706020000000000029
:1037100080F8BC888080C0800000F8F848C888081D
:10372000F8F80808C8C888FCF80000000080603C71
:103730002721E0E02030302000003F3F101017111B
:10374000FFFF14121110103F1F00000000040C04B2
:103750000404FFFF0404060440C0424242424242C5
:103760007F7F42424242424240400000000000004F
:1037700000107F1F0C02010040703C0000000C781C
:103780000000023C780000027C780000000000008D
:1037900000C0FC380880C0A040404040404040FC91
:1037A000FC40404040607060400000000000603815
:1037B0001E13F0F1111018504040444444C4447F9B
:1037C0007F444444464644606040000000000404D6
:1037D0000404FFFF04040684008060383E4785042B
:1037E0000404C4F43C1E0C000000000000000000B3
:1037F00000001F0F06024140412020201018090F31
:10380000060F191830307060202000000000000002
:1038100080FC3C08000080800010E0C00000000038
:103820000000F8F800000000000000000080603C8C
:1038300027E1E12121313161C14040E341040C0421
:103840000404FFFF04040404040000000004040452
:1038500004FFFF0404040606000000FF00000080CF
:10386000601E070003061CF8E000000000000000D6
:10387000001F1F0C0602011130180C07040A11303A
:1038800030202020202020202120100000000000D7
:1038900000E0FC9C80808080C0800000000000C0B0
:1038A000F83C28C0000000000000000000806038E4
:1038B0002F23E0E02020303820804030D88C870350
:1038C00000000000030E1C387030200000040404C7
:1038D0000404FFFF0404040606040000FFFF404048
:1038E00060203010180C0E060400000000000000DC
:1038F00000003F3F180C0602010000000F3F30207F
:103900002020202020202020323C00000000000049
:1039100000C0FC38080080C000001010D0909090CB
:1039200090D0D09010F0F0080800000000804038DF
:103930002E23E1E121111911018080809F88888860
:10394000889F9F8080FFBF80C0800000000004042B
:103950000404FFFF04040606840000FCF8080808BD
:1039600008FC080000FFFF0000000000000000004D
:1039700000000F1F0C0603010000000303010101FA
:1039800001131030707F1F000000000000000000D5
:1039900000E0FC888880C0C0800000000080F0BE8D
:1039A0008C84808080808080C0C08000008040380F
:1039B0001711F0F010101818100040300C0701001B
:1039C0000000F808000018060301000000000404CD
:1039D0000404FFFF0404060684000000C0780F03FF
:1039E0000100FF000001021CF8E080000000000060
:1039F00000000F1F0602010100000001000020402E
:103A0000C0607F0000000000000301000000000013
:103A100000C0F8BC888080C080000000000000FC6E
:103A2000FC08000000000000000000000000C030A2
:103A30001E1310F01010101000020602020202FF06
:103A4000FF020202020203028000000000010404DF
:103A5000040404FF04040406060503010101E17FD8
:103A60000F0779C181010101010100000000000080
:103A70000000183F180C8642412010180E07010064
:103A800000000001070E1C3870302000000000000C
:103A900000F0FC888080C0C04040404040FCF840BE
:103AA0004040FCFC48404060400000000040301CAA
:103AB0001711F0F0101018100000FEFC44474544A8
:103AC0004444474744FCFE04000000000000040496
:103AD0000404FFFF0404064640404F4F444444FCA6
:103AE000FCC44444444F4F606040000000000000AC
:103AF00000001F0F0643414020203010180C070320
:103B0000000103040C1830307010000000000000A9
:103B100000E0FC9C888080C0800000000004083821
:103B2000F06000000000000000000000008060382D
:103B30002E23E0E020203030200404C404040404D8
:103B40000404040484E4C6470604000000000808D6
:103B50000808FFFF08080C0E0C0800000FFCE0002E
:103B6000000080F81F0700000000000000000000B7
:103B700000103F1F0C0402212020202020212020A3
:103B8000302C23202020203038302000000020203E
:103B90002020E0E020202030200000F02020202005
:103BA0002020E02020202020E0F020000000000065
:103BB000C0F0DF43404040E0400000FF0000000054
:103BC0000000FF0000000000FFFF000000080403E9
:103BD00001FFFF00000000FF000000FF01010101E4
:103BE0000101FF0101010101FFFF000000000000D1
:103BF000003F1F020202020F0000007F08080808B1
:103C000008080F08080808083F3F0000000000C02F
:103C100060384E4C48484848484848484848484812
:103C200048484848C86C48000000000000060100F1
:103C3000F010115151911DF7F11191D1111111F99C
:103C4000F1010101FFFF0000000000000000000082
:103C50007F0020120A0F06BFBF060B0A1B12007F4F
:103C60003F0000001FFFC0000000C0000082824231
:103C700042422222121A0E0703060A1A3222624216
:103C8000C24243020001070E383C7F0000000000E2
:103C90000000000000000000000000000000000024
:103CA0000000000000000000000000000000E0FE36
:103CB0000EFEFEE00000000000000000000000001A
:103CC0000000000000E0FE0F0000001FFFFEE0000B
:103CD000000000000000000000000000E07E2F2037
:103CE0002020202020213FFFFEC000000000000017
:103CF000000000E0FE0700000000000000000000DF
:103D0000033FFFFCC0000000000404060707040492
:103D1000000000000000000000040407070706047C
:103D2000040000000000000000000000000000008F
:103D30000000000000000000000000000000000083
:103D40000000000000000000000000000000000073
:103D50000000000000020202FEFEFE020202020259
:103D6000020206060C1CF8F0E00000000000000053
:103D700000FFFFFF000000000000008080C0707F97
:103D80003F0F0000000000000000FFFFFF010101E5
:103D900001010101010302060C3CF8F08000000063
:103DA000000000FFFFFF0000000000000000000016
:103DB0000080E0FF7F1F00000004040407070704E1
:103DC00004040404040404040603030100000000C6
:103DD00000000000000000000000000000000000E3
:103DE00000000000000000000000000000000000D3
:103DF00000000000000000000000000000000000C3
:103E00000000000000000080C0F038180404020226
:103E100002020206040C1C7CFC8000000000E0FE94
:103E2000FF0F000000000000000000000000000084
:103E300000010300000000FFFFFF00000000000081
:103E40000000000000000000000000000000000072
:103E5000000F3F7FF0C08000000000000000000065
:103E600080C0703C0600000000000000000001035C
:103E70000307060606060603030100000000000013
:103E80000000000000000000000000000000000032
:103E90000000000000000000000000000000000022
:103EA0000000000000000000000000000000000012
:103EB000000000020202FEFEFE06020202020206EC
:103EC000040C1838F0E0C00000000000000000FF03
:103ED000FFFF00000000000000000000000007FFDE
:103EE000FFF0000000000000FFFFFF0000000000E6
:103EF0000000000000000000FFFFFF0000000000C5
:103F000000FFFFFF00000000000000000080C0F084
:103F10007F1F0700000000040404070707040404CF
:103F20000404040602030101000000000000000078
:103F30000000000000000000000000000000000081
:103F40000000000000000000000000000000000071
:103F50000000000000000000000000000000000061
:103F60000000020202FEFEFE020202020202020241
:103F70000206060E1E78C000000000000000FFFFD1
:103F8000FF000000000000000080C0F800000000FA
:103F900000000000000000FFFFFF0101010101011E
:103FA000010103073F0000000000000000000000C6
:103FB000FFFFFF0000000000000000000000000004
:103FC000C0F01800000004040407070704040404F8
:103FD00004040404040406060707010000000000AE
:103FE00000000000000000000000000000000000D1
:103FF00000000000000000000000000000000000C1
:1040000000000000000000000000000000000000B0
:1040100000020202FEFEFE0202020202020202028E
:104020000206060E1E3E70800000000000FFFFFF2B
:104030000000000000000000000080F00000000010
:10404000000000000000FFFFFF0202020202020265
:104050000202070F7F00000000000000000000FFC8
:10406000FFFF000000000000000000000000000052
:104070000000000000040404070707040404000013
:104080000000000000000000000000000000000030
:104090000000000000000000000000000000000020
:1040A0000000000000000000000000000000000010
:1040B0000000000000000000000000000000000000
:1040C000000080C0F038180C040202020202040C46
:1040D0001C3CFE800000000000E0FCFF0F00000020
:1040E00000000000000000000000000103000000CC
:1040F0000000FFFFFF0000000000000000000010B3
:10410000101030F0F0F0301010000000071F7FF0AA
:10411000C00000000000000000000000FFFFFF00E2
:104120000000000000000000000103020604040477
:10413000040404020301010100000000000000006B
:10414000000000000000000000000000000000006F
:10415000000000000000000000000000000000005F
:10416000000000000000000000000000000000024D
:104170000202FEFEFE020202000000000002020235
:10418000FEFEFE0202020000000000FFFFFF000032
:10419000000000000000000000FFFFFF0000000022
:1041A00000000000FFFFFF02020202020202020200
:1041B0000202FFFFFF0000000000000000FFFFFF01
:1041C0000000000000000000000000FFFFFF0000F2
:1041D00000000004040407070704040400000000B2
:1041E00000040404070707040404000000000000A2
:1041F00000000000000000000000000000000000BF
:1042000000000000000000000000000000000000AE
:10421000000000000000000000000000000000009E
:104220000000020202020202FEFEFE02020202027E
:10423000020000000000000000000000000000007C
:1042400000FFFFFF00000000000000000000000071
:1042500000000000000000000000FFFFFF00000061
:10426000000000000000000000000000000000004E
:10427000000000FFFFFF0000000000000000000041
:1042800000000000000004040404040407070704FD
:10429000040404040400000000000000000000000A
:1042A000000000000000000000000000000000000E
:1042B00000000000000000000000000000000000FE
:1042C00000000000000000000000000000000000EE
:1042D00000000000020202020202FEFEFE020202D2
:1042E00002020200000000000000000000000000C8
:1042F000000000FFFFFF00000000000000000000C1
:10430000000000000000000000000000FFFFFF00B0
:10431000000000000000000000000000000000009D
:104320000000000000FFFFFF000000000000000090
:10433000000070F8F8F0000000000080C0703F1F1F
:104340000700000000000000000000000000010164
:104350000101010100000000000000000000000059
:10436000000000000000000000000000000000004D
:10437000000000000000000000000000020202FE39
:10438000FEFE020202000000000082623E1E0E06D7
:104390000202000000000000FFFFFF000080C0F0EC
:1043A000D80E030100000000000000000000000023
:1043B00000FFFFFF0C060101071F7FFCF0800000DB
:1043C00000000000000000000000FFFFFF000000F0
:1043D0000000000001071F7EF8E0800000000000E0
:1043E000040404070707040404000000000000049C
:1043F0000407070706040400000000000000000096
:1044000000000000000000000000000000000000AC
:10441000000000000000000000000000000000009C
:10442000000000000000000000000000020202FE88
:10443000FEFE02020200000000000000000000007A
:104440000000000000000000FFFFFF00000000006F
:10445000000000000000000000000000000000005C
:1044600000FFFFFF0000000000000000000000004F
:1044700000000000000000000000FFFFFF0000003F
:1044800000000000000000000080E01800000000B4
:1044900004040407070704040404040404040406D1
:1044A00006070703000000000000000000000000F5
:1044B00000000000000000000000000000000000FC
:1044C00000000000000000000000000000000000EC
:1044D000000000000000000000020202FEFEFEF8E4
:1044E00000000000000000000000E01EFEFEFE02D2
:1044F0000202000000FF001FFFFFF00000000000AC
:1045000000E03E0300FFFFFF000000000000FF008E
:1045100000011FFFFEE00000E07E07000000FFFF3B
:10452000FF000000000000FF00000000033FFFFE4E
:10453000FE070000000000FFFFFF00000000040471
:104540000704040000000007070000000004040442
:10455000070707040404000000000000000000003A
:10456000000000000000000000000000000000004B
:10457000000000000000000000000000000000003B
:10458000000000000000000000020202FE3EFEF8F3
:10459000E08000000000000000020202FE020202B1
:1045A0000000000000FF0000030F3FFEF8E0800065
:1045B0000000000000FF0000000000000000FF00FD
:1045C0000000000000030F3FFEF8E0800000FF0045
:1045D00000000000000000FF0000000000000000DC
:1045E0000000030F3FFEF8FF000000000004040479
:1045F00007040404000000000000000000000003A5
:1046000007000000000000000000000000000000A3
:10461000000000000000000000000000000000009A
:10462000000000000000000000000000000000008A
:10463000000000000000000000000080E070180C86
:1046400004060202020202040C1870E0800000005E
:104650000000F0FEFF070000000000000000000066
:104660000000000007FFFEF0000000FFFFFF000059
:104670000000000000000000000000000000FFFF3C
:10468000FF00000000071F7EE0C0000000000000E7
:104690000000000080E07E1F070000000000000016
:1046A00000000103020604040404040203010000E4
:1046B00000000000000000000000000000000000FA
:1046C00000000000000000000000000000000000EA
:1046D00000000000000000000000000000000000DA
:1046E00000000000000000020202FEFEFE020202C4
:1046F00002020202020206040C38F0E08000000010
:10470000000000FFFFFF00000000000000000000AC
:104710000080E0FF7F1F000000000000FFFFFF049B
:10472000040404040404040606030301000000005A
:104730000000000000FFFFFF00000000000000007C
:10474000000000000000000000000004040407074F
:104750000704040400000000000000000000000046
:104760000000000000000000000000000000000049
:104770000000000000000000000000000000000039
:104780000000000000000000000000000000000029
:10479000000000000000000000C0E078180C0402D7
:1047A0000202020204041870E0C0000000000000D1
:1047B000F0FFFF0700000000000000000000000004
:1047C0000007FFFFF000000000FFFFFF00000000F7
:1047D0000000000000000000000000FFFFFF0000DC
:1047E0000000000F3F7CF0FC0C0606060E3CFCF0BF
:1047F000C080C0FC3F0F010000000000000000006E
:1048000001030204040404071F3F7F717030080095
:104810000000000000000000000000000000000098
:104820000000000000000000000000000000000088
:104830000000000000000000000000000000000078
:10484000000000000000020202FEFEFE0202020260
:1048500002020206060C3CF8F0C000000000000056
:104860000000FFFFFF00000000000000000080E0EB
:10487000FF7F1F0000000000000000FFFFFF02029A
:104880000202021EFEFBE301000000000000000027
:1048900000000000FFFFFF00000000000000071FF5
:1048A000FFFCE0000000000000000404040707070C
:1048B00004040400000000000000070707040404CB
:1048C00000000000000000000000000000000000E8
:1048D00000000000000000000000000000000000D8
:1048E00000000000000000000000000000000000C8
:1048F000000000000080E0F0380C04020202020216
:104900000202060C1C3CFCF00000000000000F3FFF
:104910007FF8F0E0C0C080800000000000000000D0
:10492000010000000000000000000000010103037E
:1049300007070F0E1E3C7CF8F0E08000000000002E
:104940000EFCE0C0000000000000000000000000BD
:10495000C0FF7F1F000000000000070703030302E1
:104960000404040404040602030100000000000023
:104970000000000000000000000000000000000037
:104980000000000000000000000000000000000027
:104990000000000000000000000000000000000017
:1049A00000000000C07C1E060202020202FEFEFEA3
:1049B0000202020202060E7EC0000000000000009B
:1049C000000000000000FFFFFF00000000000000EA
:1049D000000000000000000000000000000000FFD8
:1049E000FFFF0000000000000000000000000000C9
:1049F0000000000000000000FFFFFF0000000000BA
:104A0000000000000000000000000000000404049A
:104A1000040707070404040400000000000000006D
:104A20000000000000000000000000000000000086
:104A30000000000000000000000000000000000076
:104A40000000000000000000000000000000000066
:104A50000000020202FEFEFE020202000000000050
:104A60000000020202FE0202020000000000FFFF3E
:104A7000FF00000000000000000000000000FF0038
:104A800000000000000000FFFFFF00000000000029
:104A900000000000000000FF000000000000000017
:104AA0003FFFFF800000000000000000000080C009
:104AB0003F000000000000000000000103030604A6
:104AC00004040404040201010000000000000000CE
:104AD00000000000000000000000000000000000D6
:104AE00000000000000000000000000000000000C6
:104AF00000000000000000000000000000000000B6
:104B0000000202063EFEFEE202000000000000007D
:104B1000000282FE1E060202000000000000037F69
:104B2000FFFEC000000000000080F81F0100000030
:104B3000000000000000000000077FFFFCC0000034
:104B400080F80F01000000000000000000000000DD
:104B500000000000077FFFFCFC0F000000000000C9
:104B6000000000000000000000000000000000073E
:104B7000070000000000000000000000000000002E
:104B80000000000000000000000000000000000025
:104B90000000000000000000000000000000000015
:104BA0000000000000000000000000000000000203
:104BB000027EFEFE0202000002021EFEFEC2020093
:104BC00000000202FE0E02020000001FFFFF800034
:104BD000000000F83FFFFFE0000000C0FF030000FE
:104BE00000000000000FFFFFC000E07F030007FF90
:104BF000FFF000F81F0000000000000000000003AC
:104C0000FFFFFE0F0000000003FFFFFE0700000093
:104C1000000000000000000000010701000000008B
:104C2000000000070100000000000000000000007C
:104C30000000000000000000000000000000000074
:104C40000000000000000000000000000000000064
:104C50000000000000000000000000000000000054
:104C600002020E3EFEFEC20200000000000282E2CE
:104C70003E0E060202000000000000000000030FCC
:104C80003FFCF0C0E0781E070100000000000000BB
:104C9000000000000000000000C0781F1FFFF8E0C7
:104CA0008000000000000000000000000000C0F0D4
:104CB0003C0F0300000000030F3FFEF8E00000007F
:104CC00000000004040607070604040000000000BA
:104CD00000000404070707060404000000000000A9
:104CE00000000000000000000000000000000000C4
:104CF00000000000000000000000000000000000B4
:104D0000000000000000000000000000000002029F
:104D1000063EFEFEE202020000000000000202E287
:104D20007E0E06020200000000000000071FFFFCCC
:104D3000E080000080E03C0F010000000000000067
:104D40000000000000000000031FFFFCFC07010042
:104D50000000000000000000000000000000000053
:104D6000000000FFFFFF0000000000000000000046
:104D7000000000000000000004040404070707040A
:104D80000404040000000000000000000000000017
:104D90000000000000000000000000000000000013
:104DA0000000000000000000000000000000000003
:104DB000000000000000000000000000000000C033
:104DC000783E1E0E060602020202020282E2FAFE8D
:104DD0003E0E020000000000000000000000000085
:104DE0000080E0F87E3F0F0300000000000000009C
:104DF000000000000000C0E0F87E1F070100000076
:104E00000000000000000000000000C0F0FC7F1F58
:104E10000701000000000000000080C0F018000042
:104E20000000040707070504040404040404040440
:104E30000406070707010000000000000000000052
:104E40000000000000000000000000000000000062
:104E50000000000000000000000000000000000052
:104E60000000000000000000000000000000000042
:104E70000000000000000000000000000000000032
:104E80000000000000000000000000000000000022
:104E90000000000000000000000000000000000012
:104EA0000000000000000000000000000000000002
:104EB00000000000000000000000000000000000F2
:104EC00000000000000000000000000000000000E2
:104ED00000000000000000000000000000000000D2
:104EE00000000000000000000000000000000000C2
:104EF00000000000000000000000000000000000B2
:104F000000000000000000000000000000000000A1
:104F10000000000000000000000000000000000091
:104F20000000000000000000000000000000000081
:104F300000000000000080C0C020201010101010E1
:104F400010103060E0C0800000000000000000078A
:104F5000078780C0404060202020201010FFFFFF06
:104F60000000000000000078FEFF87010000000044
:104F7000000000000080FFFFFF000000C0000000F4
:104F800000010303060404040404040202030103F1
:104F900007070404020100000000000000000000F8
:104FA0000000000000000000000000000000000001
:104FB0000000000000008000000000000000000071
:104FC00000000000000000000000020202FEFFFFDF
:104FD00000000000000000000000000000000000D1
:104FE000000000000000FFFFFF00C0402010101074
:104FF00010103060E0C0000000000000000000FF62
:10500000FFFF030000000000000000000003FFFF9E
:10501000F800000000000000FFFFFF80000000001B
:10502000000000000080E0FF7F0F00000000000093
:10503000000703010103020404040404060203013F
:105040000000000000000000000000000000000060
:105050000000000000000000000000000000000050
:105060000000000000000000000000000000000040
:105070000000000000000000000000000000000030
:105080000000000000000000000000000000000020
:105090000000000000000080C0E060301010101020
:1050A000101020E0C00000000000000000F0FEFF33
:1050B0000F01000000000000000000000F0F0F00B3
:1050C0000000000000000F3FFFF080000000000023
:1050D00000000000000080603000000000000000C0
:1050E0000000010103020604040404040602010195
:1050F00000000000000000000000000000000000B0
:10510000000000000000000000000000000000009F
:10511000000000000000000000000000000000008F
:1051200000008000000000000000000000000000FF
:10513000000000000000020202FEFFFF000000006D
:10514000000000000080C0E060301010101010203F
:105150002040FFFFFF00000000000000F8FEFF07F6
:105160000000000000000000000000FFFFFF000042
:1051700000000000000F7FFFE08000000000000042
:10518000000000C0FFFFFF00000000000000000062
:1051900000010302060404040402020100070703DD
:1051A00002020200000000000000000000000000F9
:1051B00000000000000000000000000000000000EF
:1051C00000000000000000000000000000000000DF
:1051D00000000000000000000000000000000000CF
:1051E00000000000000000000000000000000000BF
:1051F000000000000080C06020101010101030204F
:1052000060C0800000000000000000F0FEFF43408E
:1052100040404040404040404040417F7F7C000053
:10522000000000000F3FFFF08000000000000000C1
:1052300000000080C03000000000000000000000FE
:105240000101030206040404040402030100000037
:10525000000000000000000000000000000000004E
:10526000000000000000000000000000000000003E
:10527000000000000000000000000000000000002E
:105280000000000000000000000000000000C0F06E
:10529000F81C04060202020202027C7C7800000074
:1052A00000101010101010FFFFFF10101010101041
:1052B00010100000000000000000000000000000CE
:1052C000FFFFFF00000000000000000000000000E1
:1052D000000000000000000000FFFFFF00000000D1
:1052E00000000000000000000000000000040404B2
:1052F0000404070707040404040404000000000079
:10530000000000000000000000000000000000009D
:10531000000000000000000000000000000000008D
:10532000000000000000000000000000000000007D
:10533000000000000000000000000000000000006D
:10534000000000000000000000000000000000005D
:10535000000080C0E030101010101030E0E0E020BD
:10536000307070700000000000003E7FFFC0000041
:105370000000000000C0FFFF3F0000000000000030
:10538000000000001CBEFF736162E2E2E2E3E1C1E3
:10539000C0C0C080000000000000001C7F7FE180D2
:1053A00080000000000000008081C17F7F1F00009E
:1053B00000000000000000000001010101010101E6
:1053C00001010000000000000000000000000000DB
:1053D000800000000000000000000000000000004D
:1053E00000000000020202FEFFFF000000000000BB
:1053F00000000000000000000000000000000000AD
:10540000FFFFFF80C0602030101010103070E0C02F
:10541000000000000000000000FFFFFF010000008E
:1054200000000000000000FFFFFF0000000000007F
:105430000000FFFFFF00000000000000000000006F
:10544000FFFFFF0000000000040404070707040436
:10545000040000000000040404070707040404001B
:10546000000000000000000000000000000000003C
:10547000000000000000000000000000000000002C
:10548000000000000000000000000000000000001C
:105490000000000000000000000000001C3E3E3E36
:1054A0001C000000000000000000000000000000E0
:1054B000101010101010F0F8F800000000000000AC
:1054C000000000000000000000000000000000FFDD
:1054D000FFFF0000000000000000000000000000CE
:1054E0000000000000000000FFFFFF0000000000BF
:1054F0000000000000000000000000040404040498
:10550000040707070404040404040000000000006A
:10551000000000000000000000000000000000008B
:10552000000000000000000000000000000000007B
:10553000000000000000000000000000000000006B
:10554000000000000000000000000000000000005B
:105550001C3E3E3E1C000000000000000000000059
:1055600000000000101010101010F0F8F8000000FB
:10557000000000000000000000000000000000002B
:10558000000000FFFFFF000000000000000000001E
:10559000000000000000000000000000FFFFFF000E
:1055A00000000000000000000070F0F0800000002B
:1055B000000080C0707F1F07000000000000000096
:1055C00000000000010101010101010000000000D4
:1055D000000000000000000000000000000080004B
:1055E00000000000000000000000000000000000BB
:1055F0000000020202FEFFFF0000000000000000A9
:105600000000000000000000000000000000FFFF9C
:10561000FF00000000000010D0F03010101000005B
:1056200000000000000000FFFFFF00C06030F8EE47
:10563000C3010000000000000000000000000000A6
:10564000FFFFFF0301000000030F3F7CF0E080003C
:10565000000000000000040404070707040404001D
:10566000000000040407070706040400000000000F
:10567000000000000000000000000000000000002A
:10568000000000000000000000000000000000001A
:10569000000000800000000000000000000000008A
:1056A00000000000020202020203FFFFFF000000F0
:1056B00000000000000000000000000000000000EA
:1056C000000000FFFFFF00000000000000000000DD
:1056D000000000000000000000000000FFFFFF00CD
:1056E00000000000000000000000000000000000BA
:1056F0000000000000FFFFFF0000000000000000AD
:105700000000000000000000040404040404070773
:10571000070404040404040000000000000000006A
:105720000000000000000000000000000000000079
:105730000000000000000000000000000000000069
:105740000000000000000000000000000000000059
:105750000000000000000000000000000000000049
:10576000000000000000001010F0F0F8C020101041
:105770001030F0E0E0C02010101030F0E0C0000069
:105780000000FFFFFF000000000000FFFFFF00001F
:1057900000000000FFFFFF00000000FFFFFF00000F
:1057A00000000000FFFFFF000000000000FFFFFFFF
:1057B00000000404070707040400000404070707A7
:1057C00004040000040407070704040000000000AC
:1057D00000000000000000000000000000000000C9
:1057E00000000000000000000000000000000000B9
:1057F00000000000000000000000000000000000A9
:105800000000000000000000000000000000000098
:1058100000000000000000101010F0F0F880C060E0
:105820002030101010103060E0C0000000000000B8
:10583000000000FFFFFF010000000000000000006A
:1058400000FFFFFF0000000000000000FFFFFF005E
:1058500000000000000000000000FFFFFF0000004B
:10586000000004040407070704040400000000000B
:1058700004040407070704040400000000000000FB
:105880000000000000000000000000000000000018
:105890000000000000000000000000000000000008
:1058A00000000000000000000000000000000000F8
:1058B00000000000000000000000000000000000E8
:1058C0000000000000000000000080C06060301098
:1058D00010101010302060C0800000000000000098
:1058E000F0FCFF07010000000000000000000000C5
:1058F0000107FFFCF000000000073F7FF080000080
:1059000000000000000000000080F07F3F07000062
:105910000000000000000103020604040404040661
:105920000203010000000000000000000000000071
:105930000000000000000000000000000000000067
:105940000000000000000000000000000000000057
:105950000000000000000000000000000000000047
:105960000000000000000000000000000000000037
:105970000000000000202020E0E0F080C060203027
:10598000101010103020E0C0800000000000000067
:1059900000FFFFFF01000000000000000000000009
:1059A00003FFFFF8000000000000FFFFFF80000081
:1059B000000000000000000080F0FF3F0F0000002A
:1059C000000000FFFFFF01030206040404040606B2
:1059D00003010100000000000001010101010101BB
:1059E00001010000000000000000000000000000B5
:1059F00000000000000000000000000000000000A7
:105A00000000000000000000000000000000000096
:105A10000000000000000000000000000000000086
:105A2000000000000000000080C0C06030101010B6
:105A300010102060C0C0E0F000000000000000F87E
:105A4000FEFF070000000000000000000000FFFF54
:105A5000FF000000000000000F7FFFE000000000DA
:105A600000000000000080FFFFFF000000000000B9
:105A70000000000001030206040404040402030100
:105A8000FFFFFF0000000000000000000000000019
:105A900000000000000001010101010101010100FD
:105AA00000000000000000000000000000000000F6
:105AB00000000000000000000000000000000000E6
:105AC00000000000000000000000000000000000D6
:105AD000000000001010101010F0F8F8000080C056
